:020000040000FA
:100000000C9493010C94C4010C94C4010C94C4018D
:100010000C94C4010C94C4010C94C4010C94C4014C
:100020000C94C4010C94C4010C94C4010C94C4013C
:100030000C94C4010C94C4010C94C4010C94C4012C
:100040000C94C4010C94C4010C94C4010C94C4011C
:100050000C94C4010C94C4010C94C4010C94F812C7
:100060000C94C4010C9414140C94EA130C94C40161
:100070000C94C4010C94C4010C94C4010C94C401EC
:100080000C94C4010C94C4010C94C4010C94C401DC
:100090000C94C4010C94C4010C94C4010C943E143F
:1000A0000C94C4010C94C4010C94C4010C94C401BC
:1000B0000C94C4010C94C4010C94C4010C94C401AC
:1000C0000C94C4010C94C4010C94C4010C94C0138E
:1000D0000C9496130C94C4010C946C130C9442135E
:1000E0000C94C4010C9487030C9424020C94750D99
:1000F0000C9476020C9485170C944A030C944302DA
:100100000C94DC030C947A020C9471070C94BE0DD1
:100110000C944F030C948D040C94A5070C9462026C
:100120000C94B00D0C9458020C94AF040C9455022E
:100130000C949B030C94B4030C9468020C944D0231
:100140000C9462150C94C40D0C94A1040C94C00D75
:100150000C94AE0D0C94BE030C9470020C944F07DB
:100160000C9483020C9438040C9463030C94780769
:100170000C94D2030C94C20D0C94AA030C946C0240
:100180000C94FB040C94C8030C9448050C9488024E
:100190000C947E040C9423020C9484020C94B70DEE
:1001A0000C9449020C947E020C9443030C945E0759
:1001B0000C94D4070C9475030C9451020C946D03A9
:1001C0000C9459030C945E020C944E070C947E0D13
:1001D0000C947D030C94910332333A30333A353129
:1001E0000041707220313020323032330032333AE5
:1001F00030333A35310041707220313020323032A4
:10020000330000002100240027002A002D003000C8
:10021000330001010000040107010A01000022006F
:10022000250028002B002E003100340002010000C0
:10023000050108010B010000200023002600290011
:100240002C002F003200000100000301060109010B
:1002500005050505070508080808020202020A0A42
:100260000808040404040101010101010101030360
:10027000030303030303040707070C0C0C0C0C0C0B
:100280000C0C0202020206060606060606060B0B08
:100290000B0B0B0B0B0B0102102020080810204049
:1002A000102040800201020108040201010204083A
:1002B00010204080804020100804020180040201C8
:1002C0008040201008040201080402010102040811
:1002D00010204080010204081020408000000A0B1A
:1002E00002090C0D0E0807030401000000000000C5
:1002F00000000000000000000000000000000000FE
:1003000000000000000000001211100000000000BA
:1003100000000000000000000000000000000000DD
:1003200000006215851711241FBECFEFD1E2DEBF9A
:10033000CDBF00E00CBF12E0A0E0B2E0E0EDF5E3DD
:1003400000E00BBF02C007900D92A43DB107D9F7A2
:1003500025E0A4EDB2E001C01D92AF38B207E1F78D
:1003600011E0C2E9D1E000E006C021970109802F29
:10037000FE010E949418C139D10780E00807A9F74F
:100380000E94EC150C94D61A0C940000FC01A08974
:10039000B18982E08C93A485B5851C92A685B7852A
:1003A0008FEC8C93108EA489B5896C93A289B38944
:1003B0008C9180618C93A289B3898C9188608C9395
:1003C000A289B3898C9180688C930288F389E02D8F
:1003D00080818F7D808308951F93CF93DF93FC01ED
:1003E000A481B58170E060E04FEF5FEF6A177B0793
:1003F00001F1FC012081318121153105C1F0260F69
:10040000371FF9012081E8E0F0E030E0E901C4277E
:1004100056954795C0FF04C0C8E04C27C4E85C2748
:1004200035952795319789F76F5F7F4FDFCF20E0B4
:10043000EACFCA0180959095982789279827DF9160
:10044000CF911F910895089508958150823108F049
:100450005AC0E82FF0E08827EF5CFD4F8F4F0C94D7
:10046000941851025502430249024D028302580278
:100470005E02620268026C02700276027A028302F5
:100480007E0284028802809180008F7780938000B2
:100490000895809180008F7DF9CF80918000877FC3
:1004A000F5CF84B58F7784BD089584B58F7DFBCF5C
:1004B0008091B0008F778093B00008958091B00054
:1004C0008F7DF9CF809190008F7780939000089571
:1004D000809190008F7DF9CF80919000877FF5CF3C
:1004E0008091A0008F778093A00008958091A00054
:1004F0008F7DF9CF8091A000877FF5CF809120017B
:100500008F77809320010895809120018F7DF9CF0E
:1005100080912001877FF5CFCF93DF93EEEDF2E05E
:100520008491E8E9F2E0D491E2E5F2E0C491CC23D1
:10053000A1F081110E942502EC2FF0E0EE0FFF1FC9
:10054000EA5CFD4FA591B491EC91ED2381E090E040
:1005500009F480E0DF91CF91089580E090E0FACF38
:100560001F93CF93DF93282F30E0F901E452FD4F22
:100570008491F901EA56FD4FD491F901E05BFD4FFA
:10058000C491CC23A9F0162F81110E942502EC2FD3
:10059000F0E0EE0FFF1FE45EFD4FA591B4918FB721
:1005A000F894EC91111108C0D095DE23DC938FBF35
:1005B000DF91CF911F910895DE2BF8CFCF93DF937A
:1005C00090E0FC01EA56FD4F2491805B9D4FFC01B9
:1005D00084918823D1F090E0880F991FFC01EE5F91
:1005E000FD4FA591B491FC01E45EFD4FC591D491FE
:1005F000623071F49FB7F8943C91822F80958323E9
:100600008C93E8812E2B28839FBFDF91CF91089593
:100610008FB7F894EC912E2B2C938FBFF6CFCF93FE
:10062000DF93EC0161E088E00E94DE02209731F464
:1006300060E088E0DF91CF910C94B002CF3FD1050C
:1006400011F461E0F6CFE4EEF2E0E491E150E23142
:1006500008F0B2C0F0E08827EF5CFC4F8F4F0C949D
:10066000941843034A034F0359036303DC036D03E8
:1006700075037D03870391039B03AA03B403DC0383
:10068000BE03C803D20384B5806884BDC7BDDF91B3
:10069000CF91089584B5806284BDC8BDF8CF8091A4
:1006A0008000806880938000D0938900C093880088
:1006B000EECF80918000806280938000D0938B0089
:1006C000C0938A00E4CF809180008860809380008E
:1006D000D0938D00C0938C00DACF8091B0008068F9
:1006E0008093B000C093B300D2CF8091B0008062FD
:1006F0008093B000C093B400CACF8091900080680E
:1007000080939000D0939900C0939800C0CF8091BF
:100710009000806280939000D0939B00C0939A00D9
:10072000B6CF80919000886080939000D0939D0018
:10073000C0939C00ACCF8091A00080688093A00003
:100740008091A0008F7B8093A000D093A900C093DC
:10075000A8009DCF8091A00080628093A000D093DC
:10076000AB00C093AA0093CF8091A00088608093D3
:10077000A000D093AD00C093AC0089CF8091200140
:10078000806880932001D0932901C09328017FCFF6
:1007900080912001806280932001D0932B01C0932F
:1007A0002A0175CF80912001886080932001D09329
:1007B0002D01C0932C016BCFC038D1050CF041CF77
:1007C00037CF3FB7F8948091260390912703A091EB
:1007D0002803B091290326B5A89B05C02F3F19F027
:1007E0000196A11DB11D3FBFBA2FA92F982F8827B1
:1007F000BC01CD01620F711D811D911D42E0660F8C
:10080000771F881F991F4A95D1F708958F929F925D
:10081000AF92BF92CF92DF92EF92FF924B015C01B9
:100820000E94E1036B017C010E94E1036C197D09C8
:100830008E099F09683E734081059105A8F321E068
:10084000821A9108A108B10888EEC80E83E0D81E6C
:10085000E11CF11C81149104A104B10429F7FF905B
:10086000EF90DF90CF90BF90AF909F908F900895C2
:10087000AF92BF92CF92DF92EF92FF920F931F93AE
:10088000CF93DF936C017B018B01040F151FEB01EC
:100890005E01AE18BF08C017D10759F06991D601A3
:1008A000ED91FC910190F081E02DC6011995892B05
:1008B00079F7C501DF91CF911F910F91FF90EF90D4
:1008C000DF90CF90BF90AF900895FC01A089B189CF
:1008D0008C91A689B78982FD0FC09C91818D8F5F15
:1008E0008F73228D821749F0A18DAE0FBF2FB11DDE
:1008F0005D969C93818F08958C910895FC01538D92
:10090000448D252F30E0842F90E0821B930B5417E9
:1009100010F0CF96089501970895FC01918D828D76
:10092000981761F0A28DAE0FBF2FB11D5D968C910F
:10093000928D9F5F9F73928F90E008958FEF9FEF4E
:100940000895FC01918D828D981731F0828DE80F0A
:10095000F11D858D90E008958FEF9FEF0895FC01C4
:10096000918D228D892F90E0805C9F4F821B910991
:100970008F739927089582EA93E00E94AF0421E0E3
:10098000892B09F420E0822F08958FE394E00E94E0
:10099000AF0421E0892B09F420E0822F08958CED2B
:1009A00094E00E94AF0421E0892B09F420E0822F1B
:1009B0000895FC01A48DA80FB92FB11DA35ABF4FF4
:1009C0002C91848D90E001968F739927848FA6894E
:1009D000B7892C93A089B1898C91837080648C93A2
:1009E000938D848D981306C00288F389E02D808151
:1009F0008F7D80830895EF92FF920F931F93CF9383
:100A0000DF93EC0181E0888F9B8D8C8D98131AC049
:100A1000E889F989808185FF15C09FB7F894EE8930
:100A2000FF896083E889F98980818370806480838D
:100A30009FBF81E090E0DF91CF911F910F91FF90D8
:100A4000EF900895F62E0B8D10E00F5F1F4F0F7380
:100A50001127E02E8C8D8E110CC00FB607FCFACF3B
:100A6000E889F989808185FFF5CFCE010E94D904FC
:100A7000F1CFEB8DEC0FFD2FF11DE35AFF4FF0820C
:100A80009FB7F8940B8FEA89FB8980818062CFCF72
:100A9000CF93DF93EC01888D8823B9F0AA89BB89B5
:100AA000E889F9898C9185FD03C0808186FD0DC0A0
:100AB0000FB607FCF7CF8C9185FFF2CF808185FFC1
:100AC000EDCFCE010E94D904E9CFDF91CF910895F7
:100AD00080E090E0892B29F00E94CF0481110E94D0
:100AE000000080E090E0892B49F080E090E0892BC5
:100AF00029F00E94000081110E94000080E090E037
:100B0000892B29F00E94C50481110E94000080E019
:100B100090E0892B29F00E94BB0481110C94000005
:100B20000895FC01908190539A3008F090E0818103
:100B300080532AE0929F800D112408952091FD0298
:100B4000260F3327331F21323105ECF4209178032F
:100B5000FC0190E080E0243069F082E00895A091EB
:100B6000FD022191AC0143525D4FA40FB52FB11D81
:100B70002C930196861798F38091FD02680F60937D
:100B8000FD0280E0089581E008951092780381E0ED
:100B9000809377031092520361E084E10E94B002D7
:100BA00061E085E10E94B002E9EBF0E080818E7F98
:100BB000808380818D7F808388E48093B80085E482
:100BC0008093BC00089510922F0310922E03109270
:100BD0007F031092A1030E94C50583E292E09093E7
:100BE0002D0380932C0384E292E090932B03809357
:100BF0002A030895CF93DF9391E09093DC0288233A
:100C0000B9F0C091B800D091BA008091BC008A7B45
:100C10008093BC0060E084E10E94B00260E085E166
:100C20000E94B0020E94C505D093BA00C093B800DC
:100C3000DF91CF9108958F929F92AF92BF92CF9202
:100C4000DF92EF92FF920F931F93CF93DF93D09198
:100C5000A103D13208F0D7C0182FC091A0030E9481
:100C6000E1036B017C018091780381116BC082E00C
:100C700080937803109377038FEF8093760310921D
:100C80007503D0937403A0E8B3E0E4E5F3E080E0FB
:100C9000D81391C01092530380915303CC0FC82BEB
:100CA000C093530380915203813009F088C01092A1
:100CB00052030E94E1036B017C01809153038093F6
:100CC000BB0080917A0390917B03A0917C03B0914B
:100CD0007D03892B8A2B8B2BA1F00E94E1030091CD
:100CE0007A0310917B0320917C0330917D036C1972
:100CF0007D098E099F09061717072807390708F489
:100D000042C08091BC0083FDD8CF85EC8093BC00AD
:100D10000E94E1036B017C0180917803823009F429
:100D200050C0809176038F3F09F46FC080917603A5
:100D3000803209F46CC080917603803309F469C075
:100D400084E026C080917A0390917B03A0917C037C
:100D5000B0917D03892B8A2B8B2B09F484CF0E94C1
:100D6000E10380907A0390907B03A0907C03B09085
:100D70007D036C197D098E099F0986169706A806C2
:100D8000B90608F070CF809179030E94FA0585E0DA
:100D900010927F031092A10310927E03DF91CF91F6
:100DA0001F910F91FF90EF90DF90CF90BF90AF9089
:100DB0009F908F9008959D9191938F5F69CF85EE5D
:100DC000A5CF80917A0390917B03A0917C03B09191
:100DD0007D03892B8A2B8B2B09F49ECF0E94E10384
:100DE00000917A0310917B0320917C0330917D0365
:100DF0006C197D098E099F090617170728073907FF
:100E000008F08ACFC0CF81E0C3CF80E0C1CF82E0BD
:100E1000BFCF83E0BDCFCF93DF93EC018B818823DD
:100E2000A1F0888191E090937E038093A0031092BB
:100E30007F031092A10381E00E941B0691E08111C3
:100E400090E0892FDF91CF9108950E94E30581E022
:100E50008B83CE010E940B07982F8111E2CFF1CF37
:100E60001F93CF93DF93EA01122FDC0111968D912E
:100E70009C91DC01ED91FC910280F381E02D1995AC
:100E8000C817D90729F4812F0E941B0691E0811110
:100E900090E0892FDF91CF911F9108950895E091FF
:100EA0002F0380912E03E81730F4F0E0E05DFC4F53
:100EB000808190E008958FEF9FEF089590912F0328
:100EC00080912E032FEF3FEF981748F4E92FF0E0C1
:100ED000E05DFC4F208130E09F5F90932F03C901BC
:100EE000089580912E0390912F03891B990B0895EB
:100EF000CF92DF92EF92FF920F931F93CF93DF93E6
:100F00007C01CB018A0120917E03222389F0EB0131
:100F10006B01C40ED51ECC15DD0569F06991D701B2
:100F2000ED91FC910190F081E02DC7011995F3CF6F
:100F3000642F0E949E05C801DF91CF911F910F91F0
:100F4000FF90EF90DF90CF900895CF93DF931F92A3
:100F5000CDB7DEB7698320917E032223F9F020917B
:100F6000A103203258F021E030E0FC0133832283DA
:100F700090E080E00F90DF91CF91089580917F0302
:100F8000E82FF0E0E058FC4F998190838F5F8093C9
:100F90007F038093A10381E090E0ECCF61E0CE017C
:100FA00001960E949E05F7CF90E080E0089567E0EB
:100FB0000E947418911103C01092D602089584E122
:100FC000913019F0923021F482E38093D602089593
:100FD00086E99330D1F388EC9430B9F38FEF9530F4
:100FE000A1F31092D60284E18093D5020895FB010B
:100FF00001900020E9F73197AF01461B570B0C9485
:1010000038040F931F93CF93DF93EC01FB014481CE
:101010005581608171810E9438048C016AE272E01E
:10102000CE010E94F707800F911FDF91CF911F9192
:101030000F9108950F931F93CF93DF9300D000D0AB
:101040001F921F92CDB7DEB7DC018E010F5F1F4FDD
:1010500086E0F80111928A95E9F715963C9115976B
:101060002AE0832F622F0E947418982F880F890F0F
:10107000880F830F8A8314963C911497832F0E94C4
:101080007418982F880F890F880F830F8B831396FE
:101090003C911397832F0E947418982F880F890F03
:1010A000880F830F8C8312963C911297832F0E9496
:1010B0007418982F880F890F880F830F8E831196CD
:1010C0003C911197832F0E947418982F880F890FD5
:1010D000880F830F8F833C91832F0E947418982F61
:1010E000880F890F880F830F888780915003909114
:1010F0005103FC01248135812830310580F02081A5
:1011000031E030937E032093A00310927F0310926E
:10111000A10321E048E050E0B8010E943007289682
:101120000FB6F894DEBF0FBECDBFDF91CF911F91F8
:101130000F9108952F923F924F925F926F927F92FC
:101140008F929F92AF92BF92CF92DF92EF92FF92D7
:101150000F931F93CF93DF935C011B016A01F12C66
:10116000E12CD50114968D919C9186010E191F09D1
:101170008017910708F48C01F501D0810E94E103EA
:101180002B013C0180917803811172C0C02F013284
:1011900008F0C0E2F1E0F093780321E0C601801B83
:1011A000910BE816F90608F420E0209377038FEFFF
:1011B00080937603109275038C0F80937403A1E0E3
:1011C000A093530380915303DD0FD82BD093530387
:1011D00080915203813009F090C0109252030E9416
:1011E000E1032B013C01809153038093BB0080916C
:1011F0007A0390917B03A0917C03B0917D03892BAE
:101200008A2B8B2BA1F00E94E10320917A0330916D
:101210007B0340917C0350917D0364197509860915
:101220009709261737074807590708F442C08091E5
:10123000BC0083FDD8CFB5ECB093BC000E94E103A5
:101240002B013C0180917803813009F45AC08091D0
:1012500075038C1710F4C0917503A4E5B3E0E0E3C7
:10126000F3E080E08C1751F19D9191938F5FFACF5D
:1012700080917A0390917B03A0917C03B0917D03D0
:10128000892B8A2B8B2B09F47DCF0E94E1032091BF
:101290007A0330917B0340917C0350917D03641964
:1012A000750986099709261737074807590708F06F
:1012B00069CF809179030E94FA05C0E010922F0354
:1012C000C0932E03C017110609F057C041018E0CC0
:1012D0009F1CE401CE01881999098017910798F5A0
:1012E000D50111968D919C91DC01ED91FC910284C8
:1012F000F385E02D19958993EDCFE5EEE093BC00E1
:101300009DCF80917A0390917B03A0917C03B09153
:101310007D03892B8A2B8B2B09F494CF0E94E10348
:1013200020917A0330917B0340917C0350917D039F
:101330006419750986099709261737074807590759
:1013400008F080CFB6CFE00EF11EEC14FD0408F4D7
:1013500008CF81E0DF91CF911F910F91FF90EF9027
:10136000DF90CF90BF90AF909F908F907F906F90C5
:101370005F904F903F902F90089580E0EBCFEF92D9
:10138000FF920F931F93CF93DF9300D000D01F9253
:10139000CDB7DEB78C011982E0905003F090510375
:1013A000D70114968D919C911597892BE9F08C911A
:1013B00091E090937E038093A00310927F0310929C
:1013C000A10320E041E050E0BE016F5F7F4FC70105
:1013D0000E943007882341F047E050E0BE016F5F74
:1013E0007F4FC7010E949A08E981EF77FA81FB805D
:1013F0004D815E818F81282F30E094E035952795CF
:101400009A95E1F7922F990F990F291B220F280F18
:10141000D8012C93852F90E024E0959587952A9507
:10142000E1F7982F990F990F891B880F850F119657
:101430008C931197642F70E034E0759567953A9519
:10144000E1F7862F880F880F681B660F640F1296CE
:101450006C9312974F2D50E064E0559547956A952F
:10146000E1F7842F880F880F481B440F4F0D139608
:101470004C9313972F2F30E074E0359527957A958C
:10148000E1F7822F880F880F281B220F2F0F149649
:101490002C9314978E2F90E0F4E095958795FA950C
:1014A000E1F7982F990F990F891B880F8E0F1596CA
:1014B0008C93C80127960FB6F894DEBF0FBECDBF40
:1014C000DF91CF911F910F91FF90EF900895CF93EF
:1014D000DF93EC0188819981009711F00E945319E4
:1014E000198218821D821C821B821A82DF91CF9181
:1014F0000895FC0180819181009711F00C9453199B
:101500000895FC0180819181009711F00C94891756
:1015100060E070E0CB010895FC0124813581232B2C
:1015200039F421E0FB018081882349F020E007C0E5
:10153000808191810E94C61A21E0892BB9F7822F00
:1015400008956CE272E00E948C0A91E0811190E0B3
:10155000892F08950F931F93CF93DF93EC01888118
:101560009981009759F02A813B812617370730F07F
:1015700081E0DF91CF911F910F9108958B016F5FF3
:101580007F4F0E94DC19009759F0998388831B8351
:101590000A832C813D81232B59F7FC011082E8CF6F
:1015A00080E0E7CFEF92FF920F931F93CF93DF93EB
:1015B0006115710541F480E0DF91CF911F910F918A
:1015C000FF90EF90089541155105B1F07B01EC01BA
:1015D0000C811D81040F151FB8010E94AA0A8823DF
:1015E00051F3288139818C819D81B701820F931F2E
:1015F0000E94CF1A1D830C8381E0DECFEF92FF9211
:101600000F931F93CF93DF9300D000D01F92CDB7DD
:10161000DEB77C01CB014AE08E010F5F1F4FB8019E
:101620000E94D917F80101900020E9F73197AF0126
:10163000401B510BB801C7010E94D20A811103C09F
:10164000C7010E94670AC70127960FB6F894DEBF4C
:101650000FBECDBFDF91CF911F910F91FF90EF9003
:101660000895CF93DF93EC01FB0101900020E9F78F
:101670003197AF01461B570B0E94D20A811103C05C
:10168000CE010E94670ACE01DF91CF910895CF93DA
:10169000DF93EC01FB0144815581608171810E94DF
:1016A000D20A811103C0CE010E94670ACE01DF91E8
:1016B000CF910895EF92FF920F931F93CF93DF93F3
:1016C000EC017B018A01BA010E94AA0A81110BC0B8
:1016D000CE010E94670ACE01DF91CF911F910F9139
:1016E000FF90EF9008951D830C83B7018881998145
:1016F0000E94CF1AF0CFFB0101900020E9F731974B
:10170000AF01461B570B0C945A0B0F931F93CF93AB
:10171000DF93CDB7DEB762970FB6F894DEBF0FBE8A
:10172000CDBF8C01CB01F80111821082138212828D
:10173000158214824AE0BE016F5F7F4F0E94B91785
:10174000BE016F5F7F4FC8010E947B0B62960FB690
:10175000F894DEBF0FBECDBFDF91CF911F910F91E7
:1017600008950F931F93CF93DF9300D000D000D044
:10177000CDB7DEB78C01862FF8011182108213825B
:101780001282158214824AE0BE016F5F7F4F90E0A3
:101790000E94D917BE016F5F7F4FC8010E947B0B6B
:1017A00029960FB6F894DEBF0FBECDBFDF91CF9163
:1017B0001F910F910895CF93DF93EC01FB018617E2
:1017C000970749F0608171816115710541F044818D
:1017D00055810E945A0BCE01DF91CF9108950E944E
:1017E000670AF9CFFC0111821082138212821582DE
:1017F00014820C94DB0BFC01118210821382128282
:1018000015821482FB0101900020E9F73197AF01A6
:10181000461B570B0C945A0B6F927F928F929F929C
:10182000AF92BF92CF92DF92EF92FF920F931F93EE
:10183000CF93DF93EC018B01DB011496AD90BC904C
:101840007501B1E0EB1AF108EFEFFFEF912C812C5D
:1018500090E080E070E060E0E816F9062CF12617D1
:10186000370734F1DC0111966D018A159B0560F490
:10187000D8016D907C906114710431F0D301A80FF0
:10188000B91F5C91451719F08E159F0559F46F5FCC
:101890007F4F4F01BFEF8B1A9B0AF6018E159F05F4
:1018A00009F0FC01C601D8CF261737070CF03FC05E
:1018B0006F01E815F90510F064014F016CE272E068
:1018C000CE010E94FB0BF801E480F580CE14DF040A
:1018D000D8F48E149F0408F47401D8016D917C91A2
:1018E000FB01EE0DFF1DB08010826C0D7D1DCE0141
:1018F00061157105C9F00E947B0BF801808191810F
:10190000E80EF91ED701BC92CE01DF91CF911F9155
:101910000F91FF90EF90DF90CF90BF90AF909F908E
:101920008F907F906F9008950E94670AE6CF6CE2D7
:1019300072E0CE010E94FB0BE7CFCF92DF92EF92D5
:10194000FF920F931F93CF93DF93CDB7DEB76297CC
:101950000FB6F894DEBF0FBECDBF7C018B01BC017A
:10196000CE0107960E94F20BB801CE0107960E94A5
:10197000470BBC01CE010D960E94F20BCE010D96D5
:101980000E94EC016C016DE272E0CE0101960E94B2
:10199000FB0BB701CE0101960E94470B6FE272E08C
:1019A0000E94310BB8010E94470B6FE272E00E9467
:1019B000310BB6010E94FE0ABC018CED94E00E943E
:1019C0000108CE0101960E94790ACE010D960E946F
:1019D000790ACE0107960E94790AB701CE010796CF
:1019E0000E94F20BB801CE0107960E94470BBC0182
:1019F000CE010D960E94F20BCE010D960E94EC01D5
:101A00006C016DE272E0CE0101960E94FB0BB70102
:101A1000CE0101960E94470B6FE272E00E94310BEB
:101A2000B8010E94470B6FE272E00E94310BB601D1
:101A30000E94FE0ABC0182EA93E00E940108CE01E6
:101A400001960E94790ACE010D960E94790ACE0174
:101A500007960E94790A62960FB6F894DEBF0FBE11
:101A6000CDBFDF91CF911F910F91FF90EF90DF904D
:101A7000CF900895EF92FF920F931F93CF93DF9330
:101A800000D000D000D01F921F92CDB7DEB78C01DE
:101A90007A014BE050E0CE0101960E94B017CE01D2
:101AA0000A960E949105F8018083E981E154E331AF
:101AB00028F50E2E000CFF0B8827EE59F24F8F4FA2
:101AC0000C949418B00D7E0D7E0DC40D7E0DAE0DE0
:101AD0007E0D7E0D7E0D750D7E0D7E0DB70DC20D3A
:101AE000C00D7E0D7E0D7E0DBE0D8A81813691F179
:101AF0008B818E3689F187E0F8018183CE010596CE
:101B00000E949105F801828348E050E0B701CE01C0
:101B100001960E94B017CE0101960E949105F8012E
:101B20008383CE0104960E949105F8018483CE013F
:101B300007960E949105F80185832B960FB6F894BD
:101B4000DEBF0FBECDBFDF91CF911F910F91FF90F0
:101B5000EF90089581E0D0CF86E0CECF82E0CCCF69
:101B60008B81823711F088E0C7CF84E0C5CF8B81AD
:101B7000823711F085E0C0CF83E0BECF89E0BCCFD3
:101B80008AE0BACF8BE0B8CF8CE0B6CF85ED8093FA
:101B9000BC0080917A0390917B03A0917C03B0916B
:101BA0007D030796A11DB11D23E0B695A7959795D6
:101BB00087952A95D1F72091BC0024FD03C010928F
:101BC0007803089540917A0350917B0360917C03E0
:101BD00070917D03452B462B472B69F30097A10598
:101BE000B10541F02AE22A95F1F700C00197A10959
:101BF000B109E1CF809179030C94FA054F925F927D
:101C00006F927F928F929F92AF92BF92CF92DF920C
:101C1000EF92FF920F931F93CF93DF93CDB7DEB771
:101C2000CB54D1090FB6F894DEBF0FBECDBF0E94D2
:101C30008C02892B09F015C38091DB02882309F4FB
:101C400010C31092DB02809120038F5F873008F071
:101C500011C38093200360912003CE0188960E94D7
:101C6000B10B61E372E0CE0182960E94FB0BBE01D4
:101C7000685D7F4FCE0182960E94470BBC01CE016A
:101C80008E960E94F20B69E372E0CE0101960E94EB
:101C9000FB0BBE01625D7F4FCE0101960E949D0C41
:101CA000CE0101960E94790ACE018E960E94790A91
:101CB000CE0182960E94790ACE0188960E94790A06
:101CC0006091200390E080E00E940B188091200337
:101CD0000E94D7072FB7F894809122039091230395
:101CE000A0912403B09125032FBF4091D7025091BA
:101CF000D8026091D9027091DA028C019D01041B17
:101D0000150B260B370BB901A801483E534061055E
:101D1000710508F45BC18093D7029093D802A09319
:101D2000D902B093DA0266E672E08CED94E00E948C
:101D3000F7076AE272E08CED94E00E94F707CE01AB
:101D40008A5B9F4F0E94BF092A960FAD2A9710E029
:101D50002B96EFAC2B97F12C2C968FAD2C9790E017
:101D60006CE370E00E9480186C01BC01CE01805CC5
:101D70009F4F0E94850B2AE0C216D104BCF46AEC86
:101D800072E0CE0101960E94FB0BBE01605C7F4FAA
:101D9000CE0101960E94470BBC01CE01805C9F4F93
:101DA0000E94DB0BCE0101960E94790AC7016CE309
:101DB00070E00E9480187C01BC01CE01CA960E948E
:101DC000850B3AE0E316F104B4F46AEC72E0CE015C
:101DD00001960E94FB0BBE01665C7F4FCE0101960F
:101DE0000E94470BBC01CE01CA960E94DB0BCE01BC
:101DF00001960E94790AC80168E170E00E9480188B
:101E00007C01BC01CE01C4960E94850B5AE0E51608
:101E1000F104B4F46AEC72E0CE0101960E94FB0B6F
:101E2000BE016C5C7F4FCE0101960E94470BBC0146
:101E3000CE01C4960E94DB0BCE0101960E94790A66
:101E40006DE372E0CE018E960E94FB0B6FE372E0B1
:101E5000CE018E960E947B0B61E472E0CE0101966A
:101E60000E94FB0BBE01625D7F4FCE0101960E9476
:101E7000470B63E472E00E94310BBE016C5C7F4F44
:101E80000E94470BBE01665C7F4F0E94470BBE015C
:101E9000605C7F4F0E94470B6CE472E00E94310B44
:101EA000FC0144815581608171818FE394E00E943F
:101EB0003804CE0101960E94790ABE016C5C7F4F06
:101EC000CE0182960E94F20B63E672E0CE0182960A
:101ED0000E94310BBE01665C7F4F0E94470B63E698
:101EE00072E00E94310BBE01605C7F4F0E94470B85
:101EF000BC01CE0188960E94F20B6EE472E0CE0126
:101F000001960E94FB0BBE01685D7F4FCE010196DA
:101F10000E949D0CCE0101960E94790ACE018896FE
:101F20000E94790ACE0182960E94790ACE018E968D
:101F30000E94790ACE01C4960E94790ACE01CA96FF
:101F40000E94790ACE01805C9F4F0E94790A80919D
:101F500020038630E1F40431110509F08EC12B967F
:101F6000AFAD2B97F3E0AF9FD0011124AC33B10597
:101F700014F4ACE3B0E024E630E00E949C182CE3BB
:101F800030E040E050E00E9419182093D6026091A2
:101F9000D6028091D5026817C9F0CE0182960E94C0
:101FA000B10B61E572E0CE0101960E94FB0BBE0110
:101FB0006E5D7F4FCE0101960E949D0CCE01019671
:101FC0000E94790ACE0182960E94790A2091D60257
:101FD0008091D502281708F06BC1281B330B37FFFF
:101FE00003C0319521953109253131050CF45EC1CD
:101FF00083508093D5028091D50290E00E940F0318
:1020000011E082EA93E00E94AF04892B31F16EE186
:1020100070E080E090E00E94060482EA93E00E9473
:10202000AF04181619066CF782EA93E00E948D043B
:102030008A3009F04EC182EA93E00E94480510926E
:10204000D4028FE589831A8241E050E0BE016F5FC0
:102050007F4F85E895E00E94D20A80918905909192
:102060008A05892B09F4D2C165E875E0CE01019695
:102070000E94F20B30E020E04FE5BE016F5F7F4F22
:10208000CE01CA960E940C0CCE0101960E94790ADC
:1020900065E875E0CE0101960E94F20B21E030E088
:1020A0004FE5BE016F5F7F4FCE01805C9F4F0E9466
:1020B0000C0CCE0101960E94790A65E572E0CE0112
:1020C000CA960E948C0A882339F0CE01805C9F4F0B
:1020D0000E94A10A81111BC168E572E0CE01CA9677
:1020E0000E948C0A8111B0C16CE572E0CE01CA96E3
:1020F0000E948C0A8111BEC16FE572E0CE01CA96C2
:102100000E948C0A882309F43EC1CE01805C9F4F57
:102110000E94A10A882309F436C1BE01605C7F4F8A
:10212000CE0101960E94F20B30E020E04EE2BE01AB
:102130006F5F7F4FCE018E960E940C0CCE010196F0
:102140000E94790ABE01605C7F4FCE0101960E9419
:10215000F20B21E030E04EE2BE016F5F7F4FCE0117
:1021600088960E940C0CCE0101960E94790ABE014D
:10217000605C7F4FCE0101960E94F20B22E030E0BE
:102180004EE2BE016F5F7F4FCE01C4960E940C0CE1
:1021900030E020E04FE5BE016C5C7F4FCE018296BF
:1021A0000E940C0CCE01C4960E94790ACE010196C1
:1021B0000E94790ACE018E960E94A10A8823E1F13D
:1021C000CE0188960E94A10A8823B1F1CE018296A1
:1021D0000E94A10A882381F1CE018E960E94810A75
:1021E0006B01CE0188960E94810A4B01CE01829636
:1021F0000E94810A2B01C60101974E97E8F4C401A1
:1022000001970B97C8F4CE0101960E94BF092E8159
:102210003D814C81C201F0ED4F16F7E05F0610F0F2
:10222000805D97408CAB8DAACEAA4FAB38AF29AF5B
:10223000CE01C4960E941A08BE01625D7F4FCE0196
:1022400001960E94F20B65E672E0CE0101960E94B3
:10225000310BBE01685D7F4F0E94470B65E672E05F
:10226000AAC10E948C02019709F034CD81E08093CD
:10227000DB0230CD10922003EECC0731110509F0BE
:1022800086CE2B96AFAD2B97B0E02CE93FEF4FEF0A
:102290005FEF0E9438182CE330E040E050E00E94ED
:1022A00019182C593F4F4F4F5F4F6FCE8150A1CE21
:1022B000821708F0A5CE281B330B37FF03C03195DA
:1022C000219531092531310514F08D5F92CE8F5F54
:1022D00090CE9091D402853259F491110CC0109394
:1022E000D4026CE272E085E895E00E947B0B89CE17
:1022F000992309F486CE89831A8241E050E0BE0119
:102300006F5F7F4F85E895E00E94D20A7ACECE01BA
:10231000805C9F4F0E94810A67307105A0F5609331
:10232000200390E080E00E940B1810912003812F81
:102330000E94D707212F30E050E040E019A28E0123
:102340000F5D1F4F8AE0C82ED12CE12CF12CCA0161
:10235000B901A70196010E944318605DF8016293DC
:102360008F01211531054105510589F7309729F075
:10237000BF018CED94E00E94F7076AE272E08CEDF9
:1023800094E00E94F707BE01665C7F4FCE01829603
:102390000E94F20B68E672E0CE0182960E94310B39
:1023A000BE01605C7F4F0E94470B68E672E00E94AE
:1023B000310BBC01CE0188960E94F20B6AE672E0F6
:1023C000CE0101960E94FB0BBE01685D7F4FCE01DE
:1023D00001960E949D0CCE0101960E94790ACE01C1
:1023E00088960E94790ACE0182960E94790A6CE250
:1023F00072E085E895E00E947B0BCE01805C9F4FE8
:102400000E94790ACE01CA960E94790A6AE070E0B9
:1024100080E090E00E940604C55BDF4F0FB6F894A1
:10242000DEBF0FBECDBFDF91CF911F910F91FF9007
:10243000EF90DF90CF90BF90AF909F908F907F9064
:102440006F905F904F900895CE01805C9F4F0E94E7
:10245000A10A882309F448CECE01805C9F4F0E94D8
:10246000810A6230710508F08ECF81E090E00E9411
:102470000B1889CFCE01805C9F4F0E94A10A882350
:1024800009F43ACEBE01605C7F4FCE0101960E94F6
:10249000F20B30E020E04AE3BE016F5F7F4FCE01D8
:1024A0008E960E940C0CCE0101960E94790ABE0104
:1024B000605C7F4FCE0101960E94F20B21E030E07C
:1024C0004AE3BE016F5F7F4FCE0188960E940C0CDD
:1024D000CE0101960E94790ABE01605C7F4FCE0159
:1024E00001960E94F20B22E030E04AE3BE016F5FEA
:1024F0007F4FCE01C4960E940C0C30E020E04FE5E7
:10250000BE016C5C7F4FCE0182960E940C0CCE0106
:10251000C4960E94790ACE0101960E94790ACE01E2
:102520008E960E94A10A882391F1CE0188960E947E
:10253000A10A882361F1CE018E960E94810A2B01A7
:10254000CE0188960E94810A4B01CE0182960E949C
:10255000810A6B01C20101974797C8F4C401019732
:10256000CB97A8F4C6010197CB9788F4CE010196CA
:102570000E94BF098B819A8129812CAB9DAB8EABC8
:102580004FAA88AEC9AECE01C4960E941A08BE01F9
:10259000625D7F4FCE0101960E94F20B62E672E00F
:1025A000CE0101960E94310BBE01685D7F4F0E94F3
:1025B000470B62E672E00E94310BBE016E5D7F4FF9
:1025C0000E94470BBC018CED94E00E940108CE01F3
:1025D00001960E94790ACE0182960E94790ACE0164
:1025E00088960E94790ACE018E960E94790ACBCEF7
:1025F0001F920F920FB60F9211242F933F938F9338
:102600009F93AF93BF938091220390912303A09156
:102610002403B09125033091210323E0230F2D37AC
:1026200058F50196A11DB11D20932103809322032B
:1026300090932303A0932403B09325038091260352
:1026400090912703A0912803B09129030196A11D21
:10265000B11D8093260390932703A0932803B09382
:102660002903BF91AF919F918F913F912F910F902F
:102670000FBE0F901F90189526E8230F0296A11DFC
:10268000B11DD2CF1F920F920FB60F9211240BB62D
:102690000F922F933F934F935F936F937F938F93FB
:1026A0009F93AF93BF93EF93FF9382EA93E00E94CF
:1026B000D904FF91EF91BF91AF919F918F917F913D
:1026C0006F915F914F913F912F910F900BBE0F90A3
:1026D0000FBE0F901F9018951F920F920FB60F927A
:1026E00011240BB60F922F933F934F935F936F93E9
:1026F0007F938F939F93AF93BF93EF93FF9382EA60
:1027000093E00E946504FF91EF91BF91AF919F917B
:102710008F917F916F915F914F913F912F910F908A
:102720000BBE0F900FBE0F901F9018951F920F9227
:102730000FB60F9211240BB60F922F933F934F9326
:102740005F936F937F938F939F93AF93BF93EF9319
:10275000FF938FE394E00E94D904FF91EF91BF9122
:10276000AF919F918F917F916F915F914F913F9129
:102770002F910F900BBE0F900FBE0F901F901895CA
:102780001F920F920FB60F9211240BB60F922F9338
:102790003F934F935F936F937F938F939F93AF93E9
:1027A000BF93EF93FF938FE394E00E946504FF9142
:1027B000EF91BF91AF919F918F917F916F915F91B9
:1027C0004F913F912F910F900BBE0F900FBE0F9026
:1027D0001F9018951F920F920FB60F9211240BB6EF
:1027E0000F922F933F934F935F936F937F938F93AA
:1027F0009F93AF93BF93EF93FF938CED94E00E9470
:10280000D904FF91EF91BF91AF919F918F917F91EB
:102810006F915F914F913F912F910F900BBE0F9051
:102820000FBE0F901F9018951F920F920FB60F9228
:1028300011240BB60F922F933F934F935F936F9397
:102840007F938F939F93AF93BF93EF93FF938CED01
:1028500094E00E946504FF91EF91BF91AF919F9129
:102860008F917F916F915F914F913F912F910F9039
:102870000BBE0F900FBE0F901F9018951F920F92D6
:102880000FB60F9211240BB60F922F933F934F93D5
:102890005F936F937F938F939F93AF93BF93EF93C8
:1028A000FF938091B900887F803609F44DC008F00D
:1028B00040C0883209F4A9C028F5803109F49DC0D0
:1028C000C8F4882309F4FBC0883009F496C0FF914E
:1028D000EF91BF91AF919F918F917F916F915F9198
:1028E0004F913F912F910F900BBE0F900FBE0F9005
:1028F0001F901895883109F488C0803241F7809381
:10290000760314C0803409F49DC040F48033B9F3D9
:102910008833E9F68093760385ECB0C0803509F4FE
:1029200085C0883509F496C0883489F60E94C60DA2
:10293000CECF883909F48CC038F5883729F050F4A7
:10294000883611F0803719F683E08093780310926F
:102950001F0357C0883809F47BC0803919F08038CC
:1029600009F0B5CF80911F03803208F071C0E0916B
:102970001F0381E08E0F80931F038091BB00F0E066
:10298000E150FD4F80833DC0803B39F0E0F4803A58
:1029900009F479C0883A09F09ACF84E080937803EB
:1029A0001092FE021092FD02E0912C03F0912D0393
:1029B00019958091FD0281110FC081E08093FD0285
:1029C0001092DD0209C0803C09F4A6CF883C09F4CE
:1029D000A3CF883B09F07BCFE091FE0281E08E0F10
:1029E0008093FE02F0E0E352FD4F80818093BB00B4
:1029F0009091FE028091FD0229C080915303809343
:102A0000BB0085EC8093BC0062CF909175038091F0
:102A10007403981758F5E091750381E08E0F809349
:102A20007503F0E0EC5AFC4F8081E9CFE09175032B
:102A300081E08E0F809375038091BB00F0E0EC5A2B
:102A4000FC4F808390917503809174039817C8F2AE
:102A500085E8D8CFE091750381E08E0F80937503F0
:102A60008091BB00F0E0EC5AFC4F808380917703AB
:102A700081115CCF81E08093520384EA8093BC0093
:102A80001092780324CF85EC8093BC0010927803D9
:102A900080911F03803230F4E0911F03F0E0E15099
:102AA000FD4F108260911F0370E0E0912A03F091C6
:102AB0002B038FEF92E0199510921F0308CF10920D
:102AC000760334CFE2EAF3E01382128288EE93E0D9
:102AD000A0E0B0E084839583A683B7832AE032E048
:102AE0003183208345E351E05587448744E351E037
:102AF0005787468740E351E0518B408B41E351E0DB
:102B0000538B428B42E351E0558B448B46E351E0BB
:102B1000578B468B118E128E138E148EEFE3F4E0DA
:102B20001382128284839583A683B78331832083A3
:102B300045ED50E05587448744ED50E05787468780
:102B400040ED50E0518B408B41ED50E0538B428B78
:102B500042ED50E0558B448B46ED50E0578B468B51
:102B6000118E128E138E148EECEDF4E0138212820D
:102B700084839583A683B7833183208325EC30E05B
:102B80003587248724EC30E03787268720EC30E037
:102B9000318B208B21EC30E0338B228B22EC30E028
:102BA000358B248B26EC30E0378B268B118E128EE2
:102BB000138E148EE9E7F5E01382128284839583E5
:102BC000A683B7838CE192E0918380836CE272E00C
:102BD00085E895E00C94FB0BCF93DF93CDB7DEB780
:102BE0002D970FB6F894DEBF0FBECDBF789484B595
:102BF000826084BD84B5816084BD85B5826085BDF9
:102C000085B5816085BD80916E00816080936E0086
:102C10001092810080918100826080938100809178
:102C20008100816080938100809180008160809329
:102C300080008091B10084608093B1008091B000E9
:102C400081608093B00080919100826080939100B8
:102C500080919100816080939100809190008160CB
:102C6000809390008091A10082608093A100809168
:102C7000A10081608093A1008091A0008160809379
:102C8000A000809121018260809321018091210127
:102C900081608093210180912001816080932001D7
:102CA00080917A00846080937A0080917A008260BB
:102CB00080937A0080917A00816080937A0080917D
:102CC0007A00806880937A001092C10066E08CEDF3
:102CD00094E00E94C60164E28FE394E00E94C60182
:102CE00066E082EA93E00E94C60162E082E00E9410
:102CF000DE0261E088E00E94DE0290E080E00E9457
:102D00000F0390E080E00E940318809320030E944C
:102D1000D7070E94E30581E080937E0388E68093D5
:102D2000A00310927F031092A10381E00E941B0672
:102D300061E772E0811190C080915003909151033E
:102D4000009709F069C086E090E00E94B7188C01F6
:102D500088E6F801808389E795E092838183138276
:102D600080E290E095838483109351030093500395
:102D70000E94E305FF24F394F801F382C8010E9446
:102D80000B07882309F44BC01D8680915003909156
:102D90005103FC0124813581232B89F02081F0929D
:102DA0007E032093A00310927F031092A10321E0E1
:102DB00041E050E0BE01635F7F4F0E94300741E079
:102DC00050E0BE016F5F7F4F80915003909151039F
:102DD0000E949A08898190E0880F892F881F990B9B
:102DE000892B09F472C06DE872E08CED94E00E94CA
:102DF000F7076AE272E08CED94E00E94F7074DEE6F
:102E000051E066EF71E0CE0101960E943A0DCE01CD
:102E100001960E941A081EC00E94531994CF6DE7B4
:102E200072E0CE0101960E94FB0B69E372E0CE01D5
:102E300007960E94FB0BBE016F5F7F4FCE01079686
:102E40000E949D0CCE0107960E94790ACE01019640
:102E50000E94790A6DEB72E0CE0101960E94FB0B95
:102E600069E372E0CE0107960E94FB0BBE016F5F23
:102E70007F4FCE0107960E949D0CCE0107960E94BF
:102E8000790ACE0101960E94790A66EC72E0CE01C1
:102E900001960E94FB0B6CEC72E0CE0107960E943B
:102EA000FB0BBE016F5F7F4FCE0107960E949D0C0A
:102EB000CE0107960E94790ACE0101960E94790AF6
:102EC0000E94FE0D0E946805FBCF61EB72E0CE010F
:102ED00001960E94FB0B69E372E0CE0107960E9407
:102EE000FB0BBE016F5F7F4FCE0107960E949D0CCA
:102EF000CE0107960E94790ACE0101960E94790AB6
:102F000048ED51E061EE71E07ECF85E895E00C94EC
:102F1000790A1F93FC0199278827BC01E894119135
:102F20001032E9F3193010F01E30C8F31B3251F0A3
:102F30001D3249F4689406C00E94C417610F711DC8
:102F4000811D911D119110531A30B0F33EF49095EC
:102F50008095709561957F4F8F4F9F4F1F9108957A
:102F6000FB01DC0102C005900D9241505040D8F7A2
:102F70000895BB274A3031F4992322F4BDE290959D
:102F800081959F4F0C94DA17592F482F372F262FF2
:102F9000660F771F881F991F660F771F881F991F5D
:102FA000620F731F841F951F660F771F881F991F5D
:102FB0000895BB27FB015527AA27880F991FAA1F31
:102FC000A41710F0A41B83955051B9F7A05DAA3344
:102FD00008F0A95DA193009779F7B111B19311920F
:102FE000CB010C94F317DC01FC01672F719177235F
:102FF000E1F7329704C07C916D9370836291AE17B4
:10300000BF07C8F30895F999FECF92BD81BDF89A24
:10301000992780B50895262FF999FECF1FBA92BD42
:1030200081BD20BD0FB6F894FA9AF99A0FBE0196A9
:103030000895052E97FB1EF400940E94301857FD4A
:1030400007D00E94431807FC03D04EF40C943018AC
:1030500050954095309521953F4F4F4F5F4F0895C4
:1030600090958095709561957F4F8F4F9F4F0895F4
:103070000E946518A59F900DB49F900DA49F800D90
:10308000911D11240895A1E21A2EAA1BBB1BFD015C
:103090000DC0AA1FBB1FEE1FFF1FA217B307E40737
:1030A000F50720F0A21BB30BE40BF50B661F771F8F
:1030B000881F991F1A9469F760957095809590956F
:1030C0009B01AC01BD01CF010895A29FB001B39F48
:1030D000C001A39F700D811D1124911DB29F700D21
:1030E000811D1124911D0895991B79E004C0991F39
:1030F000961708F0961B881F7A95C9F78095089552
:1031000097FB072E16F4009407D077FD09D00E9494
:10311000A31807FC05D03EF4909581959F4F089524
:10312000709561957F4F0895EE0FFF1F881F8BBF2D
:103130000790F691E02D19940E946518B7FF089545
:10314000821B930B0895AA1BBB1B51E107C0AA1F4A
:10315000BB1FA617B70710F0A61BB70B881F991F38
:103160005A95A9F780959095BC01CD0108950F93CC
:103170001F93CF93DF938230910510F482E090E0AB
:10318000E0918D05F0918E0530E020E0B0E0A0E008
:10319000309799F42115310509F44AC0281B390BE1
:1031A00024303105D8F58A819B816115710589F13B
:1031B000FB0193838283FE0111C040815181028112
:1031C000138148175907E0F04817590799F41097E9
:1031D00061F012960C93129713961C933296CF01BE
:1031E000DF91CF911F910F91089500938D0510935A
:1031F0008E05F4CF2115310551F04217530738F0F1
:10320000A901DB019A01BD01DF01F801C1CFEF0186
:10321000F9CF90938E0580938D05CDCFFE01E20FFF
:10322000F31F819391932250310939832883D7CF9B
:1032300020918B0530918C05232B41F420910202C3
:103240003091030230938C0520938B05209100026E
:10325000309101022115310541F42DB73EB740915F
:10326000040250910502241B350BE0918B05F0916F
:103270008C05E217F307A0F42E1B3F0B2817390724
:1032800078F0AC014E5F5F4F2417350748F04E0FC2
:103290005F1F50938C0540938B05819391939FCF33
:1032A000F0E0E0E09CCFCF93DF930097E9F0FC01E2
:1032B000329713821282A0918D05B0918E05ED0197
:1032C00030E020E01097A1F420813181820F931F1C
:1032D00020918B0530918C052817390709F061C0C2
:1032E000F0938C05E0938B05DF91CF910895EA016F
:1032F000CE17DF07E8F54A815B819E014115510534
:10330000B1F7E901FB83EA8349915991C40FD51FB5
:10331000EC17FD0761F4808191810296840F951F5F
:10332000E90199838883828193819B838A83F0E07A
:10333000E0E012968D919C9113970097B9F52D912D
:103340003C911197CD010296820F931F20918B051E
:1033500030918C052817390739F6309751F51092BE
:103360008E0510928D05B0938C05A0938B05BCCF74
:10337000D383C28340815181840F951FC817D90719
:1033800061F44E5F5F4F88819981480F591F5183C7
:1033900040838A819B81938382832115310509F0C3
:1033A000B0CFF0938E05E0938D059ECFFD01DC013B
:1033B000C0CF13821282D7CF4F925F926F927F92CB
:1033C0008F929F92AF92BF92CF92DF92EF92FF9235
:1033D0000F931F93CF93DF938C01009799F4CB0148
:1033E000DF91CF911F910F91FF90EF90DF90CF90E1
:1033F000BF90AF909F908F907F906F905F904F9015
:103400000C94B718FC01E60FF71F9C0122503109FC
:10341000E217F30708F4AEC0D901CD91DC91119702
:10342000C617D70720F1C530D10578F0CE01049733
:103430008617970750F0C61BD70B2297C193D193DD
:103440006D937C93CF010E945319C801DF91CF91F6
:103450001F910F91FF90EF90DF90CF90BF90AF90B2
:103460009F908F907F906F905F904F9008955B0139
:10347000AC1ABD0A4C018C0E9D1EA0918D05B09119
:103480008E05512C412CF12CE12C109731F58091B7
:103490008B0590918C058815990509F05CC046163E
:1034A000570608F058C080910002909101020097E1
:1034B00041F48DB79EB74091040250910502841BE0
:1034C000950BE817F90708F055C0F0938C05E093C9
:1034D0008B05F90171836083B8CF8D919C91119711
:1034E00012966C90129713967C901397A815B905B5
:1034F00059F56C0142E0C40ED11CCA14DB0420F162
:10350000AC014A195B09DA011296159780F06282C4
:10351000738251834083D9016D937C93E114F1044C
:1035200071F0D7011396FC93EE9312978ECF2296EB
:103530008C0F9D1FF90191838083F301EFCFF093EE
:103540008E05E0938D0581CF4816590608F42C01AD
:103550007D01D3019ACFCB010E94B7187C0100975F
:1035600049F0AE01B8010E94BD1AC8010E9453196A
:1035700087016BCF10E000E068CFFB01DC0102C0E7
:1035800001900D9241505040D8F70895FB01DC01A5
:103590008D91019080190110D9F3990B0895FB01C9
:1035A000DC0101900D920020E1F7089511E0C2E9DD
:1035B000D1E000E006C0802FFE010E949418219601
:1035C000011DC339D10780E00807A9F7F894FFCFA0
:1035D00000008F05800000000000FB0438047E041A
:1035E0004805AF048D04A10400000000A50778077A
:1035F000D4074E0771075E074F070D0A0025005FCD
:10360000004C65644D6F6465006C6F67004D004150
:10361000004F004C32333032313246000D006374BB
:10362000006C656400736200646C730073740073F3
:1036300064003A3A002E2E002D00676F74636D64AB
:10364000005274634E6F74466F756E64002152743D
:10365000634368697050726573656E7400525443B9
:10366000206C6F737420706F7765722C206C65749A
:10367000277320736574207468652074696D6521F3
:10368000005254432052554E4E494E4700527463E7
:10369000466F756E6400322E302E30007665727380
:0436A000696F6E00E0
:020000040003F7
:10E000000D9489F10D94B2F10D94B2F10D94B2F129
:10E010000D94B2F10D94B2F10D94B2F10D94B2F1F0
:10E020000D94B2F10D94B2F10D94B2F10D94B2F1E0
:10E030000D94B2F10D94B2F10D94B2F10D94B2F1D0
:10E040000D94B2F10D94B2F10D94B2F10D94B2F1C0
:10E050000D94B2F10D94B2F10D94B2F10D94B2F1B0
:10E060000D94B2F10D94B2F10D94B2F10D94B2F1A0
:10E070000D94B2F10D94B2F10D94B2F10D94B2F190
:10E080000D94B2F10D94B2F10D94B2F10D94B2F180
:10E090000D94B2F10D94B2F10D94B2F10D94B2F170
:10E0A0000D94B2F10D94B2F10D94B2F10D94B2F160
:10E0B0000D94B2F10D94B2F10D94B2F10D94B2F150
:10E0C0000D94B2F10D94B2F10D94B2F10D94B2F140
:10E0D0000D94B2F10D94B2F10D94B2F10D94B2F130
:10E0E0000D94B2F141546D656761323536300041AF
:10E0F000726475696E6F206578706C6F72657220DE
:10E1000073746B3530305632206279204D4C530099
:10E11000426F6F746C6F616465723E004875683F52
:10E1200000436F6D70696C6564206F6E203D200048
:10E130004350552054797065202020203D20005FF9
:10E140005F4156525F415243485F5F3D2000415658
:10E1500052204C696243205665723D20004743437C
:10E160002056657273696F6E203D20004350552024
:10E1700049442020202020203D20004C6F7720663D
:10E18000757365202020203D20004869676820665F
:10E190007573652020203D200045787420667573D6
:10E1A00065202020203D20004C6F636B2066757336
:10E1B000652020203D20004D617220203720323024
:10E1C000313300312E362E3800342E332E350056A2
:10E1D00023202020414444522020206F7020636F70
:10E1E00064652020202020696E73747275637469E1
:10E1F0006F6E2061646472202020496E74657272B3
:10E20000757074006E6F20766563746F7200726A49
:10E210006D702020006A6D70200057686174207056
:10E220006F72743A00506F7274206E6F7420737541
:10E2300070706F72746564004D7573742062652030
:10E2400061206C6574746572002000577269747483
:10E25000696E672045450052656164696E672045B7
:10E26000450045452065727220636E743D00504F35
:10E27000525400303D5A65726F2061646472003FF1
:10E280003D43505520737461747300403D454550C3
:10E29000524F4D207465737400423D426C696E6B41
:10E2A000204C454400453D44756D70204545505215
:10E2B0004F4D00463D44756D7020464C415348001B
:10E2C000483D48656C70004C3D4C69737420492F83
:10E2D0004F20506F72747300513D51756974005234
:10E2E0003D44756D702052414D00563D73686F7707
:10E2F00020696E7465727275707420566563746FF0
:10E30000727300593D506F727420626C696E6B00BD
:10E310002A0011241FBECFEFD1E2DEBFCDBF01E046
:10E320000CBF12E0A0E0B2E0EEE1FDEF03E00BBFB6
:10E3300002C007900D92A030B107D9F712E0A0E01B
:10E34000B2E001C01D92AE30B107E1F70F9460F367
:10E350000D948DFE01E20EBF0FEF0DBF11241FBE05
:10E360000D9460F30D9400F020E030E040ED57E0B4
:10E3700005C0FA013197F1F72F5F3F4F2817390792
:10E38000C0F308959C01260F311DC901A0E0B0E043
:10E390002F5F3F4FABBFFC018791882361F08093D3
:10E3A000C6008091C00086FFFCCF8091C0008064D1
:10E3B0008093C000EACF08958DE08093C6008091DD
:10E3C000C00086FFFCCF8091C00080648093C000B5
:10E3D0008AE08093C6008091C00086FFFCCF8091C8
:10E3E000C00080648093C00008950F94C2F10F9420
:10E3F000DCF10895FC019081992359F09093C600B7
:10E400008091C00086FFFCCF8091C0008064809323
:10E41000C0003196992379F70895282F982F929567
:10E420009F70892F805D8A3308F0895F8093C600D2
:10E430008091C00086FFFCCF8091C00080648093F3
:10E44000C000822F8F70982F905D9A3308F0995FEB
:10E450009093C6008091C00086FFFCCF8091C000E1
:10E4600080648093C00008959C01FB01853691056E
:10E470001CF46330710594F0C90164E670E00F94F8
:10E480002EFE605D7F4F6093C6008091C00086FFC6
:10E49000FCCF8091C00080648093C0002B30310598
:10E4A00014F43297B4F0C90164E670E00F942EFEC4
:10E4B0006AE070E00F942EFE605D7F4F6093C600AF
:10E4C0008091C00086FFFCCF8091C0008064809363
:10E4D000C000C9016AE070E00F942EFEC0968093E0
:10E4E000C6008091C00086FFFCCF8091C000806490
:10E4F0008093C00008951F93182F8EE692EE60E07F
:10E500000F94C2F11093C6008091C00086FFFCCF2B
:10E510008091C00080648093C0000F94DCF11F9153
:10E5200008952F923F924F925F926F927F928F92B7
:10E530009F92AF92BF92CF92DF92EF92FF920F9392
:10E540001F93DF93CF93CDB7DEB762970FB6F894E2
:10E55000DEBF0FBECDBF382E622ECA01DB015C01CB
:10E560006D01772420E2222E2E010894411C511CBB
:10E570008BC081E0A81680E0B80681E0C80680E084
:10E58000D80628F0C601AA27BB270F940DF2BB2797
:10E59000AD2D9C2D8B2D0F940DF28A2D0F940DF225
:10E5A0002092C6008091C00086FFFCCF8091C00001
:10E5B00080648093C0009DE29093C6008091C0006B
:10E5C00086FFFCCF8091C00080648093C0002092C1
:10E5D000C6008091C00086FFFCCF8091C00080649F
:10E5E0008093C00019828601750188249924A1E0D6
:10E5F0003A1651F03A1620F0B2E03B1661F409C029
:10E600000BBFF701779007C0C7010F9477FE782EF4
:10E6100002C0F7017080872D0F940DF22092C60082
:10E620008091C00086FFFCCF8091C0008064809301
:10E63000C000872D8052F401EF70F0708F3520F408
:10E64000E40DF51D708204C0E40DF51D8EE280839B
:10E650000894E11CF11C011D111D0894811C911CE2
:10E6600090E18916910409F0C2CF80E190E0A0E02A
:10E67000B0E0A80EB91ECA1EDB1E198AC2010F9493
:10E68000FAF10F94DCF16A94662009F072CF629679
:10E690000FB6F894DEBF0FBECDBFCF91DF911F91B3
:10E6A0000F91FF90EF90DF90CF90BF90AF909F9031
:10E6B0008F907F906F905F904F903F902F90089534
:10E6C0002F923F924F925F926F927F928F929F9282
:10E6D000AF92BF92CF92DF92EF92FF920F931F9370
:10E6E000DF93CF93CDB7DEB7CD53D1400FB6F894BB
:10E6F000DEBF0FBECDBF01E20EBF0FEF0DBF94B75F
:10E70000F894A89514BE80916000886180936000A1
:10E7100010926000789493FF05C0E0910002F091A0
:10E7200001021995279A2F9A8091C00082608093E8
:10E73000C00080E18093C40088E18093C1000000A4
:10E74000EE24FF24870144E0A42EB12CCC24DD2448
:10E7500024C0C5010197F1F70894E11CF11C011DCB
:10E76000111D21E2E2162EE4F20620E0020720E06D
:10E77000120718F031E0C32ED12CC801B70127ECE5
:10E780003BE140E050E00F9441FE611571058105C9
:10E79000910519F485B1805885B98091C00087FD35
:10E7A00003C0C114D104A9F2A6014F5F5F4FC25E3E
:10E7B000DE4F59834883CE51D140C25EDE4F8881FF
:10E7C0009981CE51D140019711F00D9410FEC05D9A
:10E7D000DE4F19821882C053D14060E0C15DDE4F28
:10E7E0001882CF52D14088249924C35DDE4F19820C
:10E7F0001882CD52D140C05EDE4F188219821A8233
:10E800001B82C052D140CE5CDE4F188219821A8220
:10E810001B82C253D140EE24FF2487010BBFF701B6
:10E8200007911691C45CDE4F19830883CC53D14005
:10E830000D940BFEC25EDE4F28813981CE51D1404E
:10E840002130310509F52091C600C25EDE4F1982E4
:10E850001882CE51D14022C02F5F3F4F4F4F5F4FA4
:10E86000213082E138078AE7480780E0580780F0C6
:10E87000C45CDE4FE881F981CC53D140EF5FFF4F9C
:10E8800019F0EE27FF27099420E030E040E050E047
:10E890008091C00087FFE0CF2091C600C35DDE4FAE
:10E8A00048815981CD52D1404F5F5F4FC35DDE4FEC
:10E8B00059834883CD52D140213209F063C64A3092
:10E8C000510508F05FC60894811C911C53E0851621
:10E8D000910409F059C600E010E018C081E280936D
:10E8E000C6008091C00086FFFCCF8091C00080648C
:10E8F0008093C0002F5F3F4F2931310579F70F9486
:10E90000DCF10F5F1F4F0530110519F020E030E0FA
:10E91000E5CF10920A0210920B0210920C02109294
:10E920000D02109206021092070210920802109235
:10E930000902109202021092030210920402109235
:10E9400005028FEE90EE60E00F94F5F180E191EE1C
:10E9500060E00F94C2F18091C00087FFFCCF9091DE
:10E96000C600903608F09F759032B8F09093C600BC
:10E970008091C00086FFFCCF8091C00080648093AE
:10E98000C000A0E2A093C6008091C00086FFFCCF2B
:10E990008091C00080648093C000983409F4D7C18E
:10E9A0009934B8F4923409F459C1933458F490333B
:10E9B00019F1903308F4E3C59F33A1F1903409F0C5
:10E9C000DEC5BDC0953409F470C1963409F0D7C5D1
:10E9D00098C1923509F42BC2933538F49C3409F46C
:10E9E000F5C1913509F0CBC518C2963509F445C279
:10E9F000993509F0C4C567C483E792EE62E00F94CD
:10EA0000F5F110920602109207021092080210927D
:10EA1000090210920A0210920B0210920C0210923C
:10EA20000D0213C18FE792EE62E00F94F5F18FEEC5
:10EA300090EE60E00F94F5F181E291EE60E00F94CA
:10EA4000C2F187EB91EE60E00F94F5F180E391EE77
:10EA500060E00F94C2F184EE90EE60E00F94F5F167
:10EA60008FE391EE60E00F94C2F186E090E061E008
:10EA700070E00F9434F20F94DCF18DE591EE60E0DC
:10EA80000F94C2F189EC91EE60E00F94F5F18EE401
:10EA900091EE60E00F94C2F183EC91EE60E00F9490
:10EAA000F5F18CE691EE60E00F94C2F18EE10F94E7
:10EAB0000DF288E90F940DF281E00F940DF20F949E
:10EAC000DCF18BE791EE60E00F94C2F119E0E0E039
:10EAD000F0E010935700E4918E2F0F940DF20F94F5
:10EAE000DCF18AE891EE60E00F94C2F1E3E0F0E03F
:10EAF00010935700E4918E2F0F940DF20F94DCF1D8
:10EB000089E991EE60E00F94C2F1E2E0F0E0109349
:10EB10005700E4918E2F0F940DF20F94DCF188EAE8
:10EB200091EE60E00F94C2F1E1E0F0E01093570045
:10EB30001491812F0F940DF20F94DCF107CF8BE825
:10EB400092EE62E00F94F5F18BE492EE60E00F94A8
:10EB5000F5F10F94DCF100E010E019C0C8016F2D51
:10EB60000F947FFEFF2031F489E492EE60E00F9471
:10EB7000C2F10BC0F092C6008091C00086FFFCCFAE
:10EB80008091C00080648093C0000F5F1F4FC80158
:10EB900081519F41A0E0B0E0ABBFFC01F790BAE229
:10EBA000FB1621F0E2E000301E07C1F60F94DCF105
:10EBB0000F94DCF187E592EE60E00F94F5F10F948D
:10EBC000DCF1CC24DD2400E010E01EC0C8010F946D
:10EBD00077FEF82E882331F489E492EE60E00F94FA
:10EBE000C2F10BC08093C6008091C00086FFFCCFAD
:10EBF0008091C00080648093C000FE1419F00894D6
:10EC0000C11CD11C0F5F1F4FC80181519F41A0E063
:10EC1000B0E0ABBFFC01E790FAE2EF1621F022E092
:10EC20000030120799F60F94DCF10F94DCF182E6C4
:10EC300092EE60E00F94C2F1C60161E070E00F94C3
:10EC400034F20F94DCF10F94DCF110920202109276
:10EC50000302109204021092050278CE89E992EE26
:10EC600062E00F94F5F1279A2F9A16C02F9880E052
:10EC700090E0E0EDF7E03197F1F7019684369105E9
:10EC8000C1F72F9A80E090E0E0EDF7E03197F1F7DF
:10EC9000019684369105C1F78091C00087FFE6CFC9
:10ECA0008091C00087FFFCCF64C485EA92EE62E0E9
:10ECB0000F94F5F140910202509103026091040219
:10ECC0007091050281E020E10F9491F2809102029F
:10ECD00090910302A0910402B091050280509F4FD1
:10ECE000AF4FBF4F8093020290930302A0930402A0
:10ECF000B093050280509041A040B04008F426CE69
:10ED0000A4CF83EB92EE62E00F94F5F140910602FE
:10ED100050910702609108027091090280E020E1A1
:10ED20000F9491F28091060290910702A09108023F
:10ED3000B091090280509F4FAF4FBF4F80930602A2
:10ED400090930702A0930802B0930902FFCD80ECD4
:10ED500092EE62E00F94F5F183E792EE60E00F949B
:10ED6000F5F18FE792EE60E00F94F5F18BE892EE0B
:10ED700060E00F94F5F189E992EE60E00F94F5F10F
:10ED800085EA92EE60E00F94F5F183EB92EE60E09D
:10ED90000F94F5F180EC92EE60E00F94F5F187ECC2
:10EDA00092EE60E00F94F5F188ED92EE60E00F9442
:10EDB000F5F18FED92EE60E00F94F5F18AEE92EEB0
:10EDC00060E00F94F5F183E093EEBDCD87EC92EE19
:10EDD00062E00F94F5F181E40F947BF282E40F94EA
:10EDE0007BF283E40F947BF284E40F947BF285E45E
:10EDF0000F947BF286E40F947BF287E40F947BF20E
:10EE000088E40F947BF28AE40F947BF28BE40F94F6
:10EE10007BF28CE40F947BF299CD88ED92EE62E068
:10EE20000F94F5F1772473948824992409C48FED05
:10EE300092EE62E00F94F5F140910A0250910B02BC
:10EE400060910C0270910D0282E020E10F9491F22A
:10EE500080910A0290910B02A0910C02B0910D02D8
:10EE600080509F4FAF4FBF4F80930A0290930B0289
:10EE7000A0930C02B0930D0269CD8AEE92EE62E08F
:10EE80000F94F5F184EE90EE60E00F94F5F18FECC5
:10EE900091EE60E00F94F5F1662477244301CC5D98
:10EEA000DE4F19821882C452D140D401C301B695F5
:10EEB000A79597958795CA5DDE4F88839983AA8326
:10EEC000BB83C652D140CC5DDE4FA881B981C4520C
:10EED000D1401196CC5DDE4FB983A883C452D14096
:10EEE000CD0162E070E00F9434F2B0E2B093C6005E
:10EEF0008091C00086FFFCCF8091C0008064809329
:10EF0000C000EDE2E093C6008091C00086FFFCCF18
:10EF10008091C00080648093C000F0E2F093C6004E
:10EF20008091C00086FFFCCF8091C00080648093F8
:10EF3000C000CA5DDE4FE880F9800A811B81C6529D
:10EF4000D140BB27A12F902F8F2D0F940DF2CA5DBA
:10EF5000DE4F8881C652D1400F940DF2B0E2FB2EF5
:10EF6000F092C6008091C00086FFFCCF8091C00067
:10EF700080648093C0000DE30093C6008091C000C0
:10EF800086FFFCCF8091C00080648093C00010E2B7
:10EF90001093C6008091C00086FFFCCF8091C00016
:10EFA00080648093C0008BBEF3012791C65DDE4F65
:10EFB0002883CA52D140A22EBB24CC24DD2408943D
:10EFC000611C711C811C911C8BBEF3018791282E42
:10EFD0003324442455240894611C711C811C911C09
:10EFE0008BBEF3013791C55DDE4F3883CB52D140E4
:10EFF0000894611C711C811C911C8BBEF30147910C
:10F00000C45DDE4F4883CC52D140ADEFEA2EAFEF66
:10F01000FA2EAFEF0A2FAFEF1A2F6E0C7F1C801E57
:10F02000911E142D032DF22CEE24EA0CFB1C0C1D5A
:10F030001D1D0F940DF220E22093C6008091C000A8
:10F0400086FFFCCF8091C00080648093C000C65DC5
:10F05000DE4F8881CA52D1400F940DF230E23093D6
:10F06000C6008091C00086FFFCCF8091C000806404
:10F070008093C000C45DDE4F8881CC52D1400F9494
:10F080000DF240E24093C6008091C00086FFFCCFA5
:10F090008091C00080648093C000C55DDE4F888190
:10F0A000CB52D1400F940DF250E25093C6008091A4
:10F0B000C00086FFFCCF8091C00080648093C000B8
:10F0C0008FEFE8168FEFF80680E0080780E018075A
:10F0D00031F484E092EE60E00F94C2F1DFC0D80119
:10F0E000C7018070907CA070B0708050904CA040A0
:10F0F000B040D1F52FEF3FE340E050E0E222F322B1
:10F1000004231523CA5DDE4FA880B980CA80DB8046
:10F11000C652D140AE0CBF1CC01ED11EAA0CBB1CD7
:10F12000CC1CDD1C8EE092EE60E00F94C2F1BB2798
:10F13000A12F902F8F2D0F940DF28E2D0F940DF285
:10F1400030E23093C6008091C00086FFFCCF8091F2
:10F15000C00080648093C0004EE34093C60080915D
:10F16000C00086FFFCCF87C08EE09EEFA0E0B0E03D
:10F17000E822F9220A231B239CE0E91694E9F90608
:10F1800090E0090790E0190709F088C0C45DDE4FE0
:10F19000A881CC52D140EA2EFF2400E010E0102FCD
:10F1A0000F2DFE2CEE24C55DDE4FB881CB52D14031
:10F1B000EB0EF11C011D111DD601C501817090706F
:10F1C000A070B070DC0199278827E80EF91E0A1F8D
:10F1D0001B1F20EF30E040E050E0A222B322C42207
:10F1E000D52241E1AA0CBB1CCC1CDD1C4A95D1F7F1
:10F1F000EA0CFB1C0C1D1D1D81E090E0A0E0B0E0BE
:10F20000282239224A225B2235E1220C331C441C7D
:10F21000551C3A95D1F7E20CF31C041D151D57013E
:10F220006801AA0CBB1CCC1CDD1C85E192EE60E0E1
:10F230000F94C2F1C801AA27BB270F940DF2BB2778
:10F24000A12F902F8F2D0F940DF28E2D0F940DF274
:10F2500090E29093C6008091C00086FFFCCF809121
:10F26000C00080648093C000AEE3A093C60080918C
:10F27000C00086FFFCCF8091C00080648093C000F6
:10F28000C601AA27BB270F940DF2BB27AD2D9C2DDD
:10F290008B2D0F940DF28A2D0F940DF20F94DCF14B
:10F2A000CC5DDE4FE881F981C452D140F99709F471
:10F2B0004DCBF4E0EF2EF12C012D112D6E0C7F1CA7
:10F2C000801E911EF2CD83E093EE62E00F94F5F183
:10F2D0008AE192EE60E00F94C2F18091C00087FF56
:10F2E000FCCF1091C6001F751093C6008091C0001E
:10F2F00086FFFCCF8091C00080648093C0000F9493
:10F30000DCF1812F81548A3108F036C1163409F4BA
:10F3100095C0173490F4133409F44EC0143430F40B
:10F320001134F1F0123409F01DC130C0143409F465
:10F3300059C0153409F016C16BC01A3409F4C4C0A1
:10F340001B3438F4173409F48FC0183409F00AC19B
:10F35000A1C01B3409F4D2C01C3409F003C1E8C0B9
:10F360008FEF81B90DC082B1809582B980E090E0C5
:10F37000E0EDF7E03197F1F70196883C9105C1F790
:10F380008091C00087FFEFCF12B8EFC08FEF84B934
:10F390000DC085B1809585B980E090E0E0EDF7E0A3
:10F3A0003197F1F70196883C9105C1F78091C00033
:10F3B00087FFEFCF15B8D9C08FEF87B90DC088B1DF
:10F3C000809588B980E090E0E0EDF7E03197F1F7C3
:10F3D0000196883C9105C1F78091C00087FFEFCF6F
:10F3E00018B8C3C08FEF8AB90DC08BB180958BB9A7
:10F3F00080E090E0E0EDF7E03197F1F70196883C8E
:10F400009105C1F78091C00087FFEFCF1BB8ADC059
:10F410008FEF8DB90DC08EB180958EB980E090E0F0
:10F42000E0EDF7E03197F1F70196883C9105C1F7DF
:10F430008091C00087FFEFCF1EB897C08FEF80BBD1
:10F440000DC081B3809581BB80E090E0E0EDF7E0F6
:10F450003197F1F70196883C9105C1F78091C00082
:10F4600087FFEFCF11BA81C08FEF83BB0DC084B38C
:10F47000809584BB80E090E0E0EDF7E03197F1F714
:10F480000196883C9105C1F78091C00087FFEFCFBE
:10F4900014BA6BC08FEF809301010FC080910201FD
:10F4A00080958093020180E090E0E0EDF7E03197F5
:10F4B000F1F70196883C9105C1F78091C00087FF64
:10F4C000EDCF1092020151C08FEF809304010FC065
:10F4D0008091050180958093050180E090E0E0ED4A
:10F4E000F7E03197F1F70196883C9105C1F78091DB
:10F4F000C00087FFEDCF1092050137C08FEF8093DA
:10F5000007010FC08091080180958093080180E079
:10F5100090E0E0EDF7E03197F1F70196883C910536
:10F52000C1F78091C00087FFEDCF109208011DC088
:10F530008FEF80930A010FC080910B01809580931B
:10F540000B0180E090E0E0EDF7E03197F1F70196F4
:10F55000883C9105C1F78091C00087FFEDCF1092E4
:10F560000B0103C085E292EEEEC98091C00087FFD7
:10F57000FCCF8091C600EAC988E392EEE4C98CE131
:10F5800091EEE1C988249924933011F1943028F444
:10F59000913089F09230B8F408C0953061F195301F
:10F5A000F0F0963009F048C043C02B3109F042C951
:10F5B00091E06BE13FC96227C15DDE4F2883CF52E6
:10F5C000D14092E037C9B22FA0E0622793E032C960
:10F5D000822F90E0A82BB92B622794E02BC92E3004
:10F5E00009F039C3622795E0C05DDE4F19821882A9
:10F5F000C053D1401FC9E1E0F0E0EC0FFD1FC05D3A
:10F60000DE4F08811981C053D140E00FF11F2083E4
:10F610000F5F1F4FC05DDE4F19830883C053D14079
:10F6200062270A171B0709F005C9D80196E002C92D
:10F63000261709F010C303C0973009F0FBC87724E0
:10F640009981933109F412C19431C8F4963009F4C8
:10F65000D8C0973050F4923009F406C1933009F4C1
:10F660006DC0913009F059C253C0913109F477C08F
:10F67000923108F0BBC0903109F04FC2F5C098310B
:10F6800009F487C0993150F4953109F4EFC09531F0
:10F6900008F4C6C1963109F040C2C2C19A3109F4DA
:10F6A0006CC09A3108F491C09B3109F45BC09D3164
:10F6B00009F033C29D81903359F48F81882311F46E
:10F6C0009EE11CC0813011F091E018C098E916C08D
:10F6D000892F807591F0903539F4E0E0F0E089E011
:10F6E0008093570094910AC0983539F4E3E0F0E034
:10F6F00089E080935700949101C090E01A821B82A8
:10F700008D818C831D829E831F8227E030E009C299
:10F710001A8288E08B8381E48C8386E58D8382E581
:10F720008E8389E48F8383E5888780E589878FE5E9
:10F730008A8782E38B872BE030E0F3C18A818139AD
:10F7400041F0823941F0803911F48FE005C080E04A
:10F7500003C082E001C08AE01A828B8344C0772410
:10F76000739482C08D81882311F48EE12CC0813086
:10F7700011F081E028C088E926C01A82E1E0F0E0BB
:10F7800089E08093570084918B831C8224E030E0D1
:10F79000C8C18B81803589F48C81883039F4E2E0EE
:10F7A000F0E089E08093570084910DC0E0E0F0E044
:10F7B00089E080935700849106C0E3E0F0E089E09F
:10F7C0008093570084911A82DFCF8D81836C99E0FA
:10F7D000E1E0F0E0082E90935700E89507B600FCB2
:10F7E000FDCF1A821B8223E030E09BC180EC8A832C
:10F7F000CE5CDE4F188219821A821B82C253D1401E
:10F800008EC18A8190E0A0E0B0E0582F44273327D2
:10F8100022278B8190E0A0E0B0E0DC0199278827C7
:10F82000282B392B4A2B5B2B8D8190E0A0E0B0E098
:10F83000282B392B4A2B5B2B8C8190E0A0E0B0E089
:10F84000BA2FA92F982F8827282B392B4A2B5B2BCF
:10F85000220F331F441F551FC05EDE4F288339839C
:10F860004A835B83C052D1401A8259C13A81C95C34
:10F87000DE4F3883C753D140CA5CDE4F1882C6536F
:10F88000D1408B81C82EDD24CA5CDE4F488159816E
:10F89000C653D140C42AD52A933109F082C0CE5C28
:10F8A000DE4F88819981AA81BB81C253D1408050AB
:10F8B000904CA340B04030F583E0CE5CDE4FE88052
:10F8C000F9800A811B81C253D140F70100935B008C
:10F8D00080935700E89507B600FCFDCFCE5CDE4F65
:10F8E000088119812A813B81C253D14000501F4FAA
:10F8F0002F4F3F4FCE5CDE4F088319832A833B8313
:10F90000C253D140C05EDE4F488159816A817B81FC
:10F91000C052D140DE011B9631E08C9111962C91A2
:10F9200011971296C75CDE4F2883C953D140C85C3B
:10F93000DE4F1882C853D14090E0C85CDE4FE881AA
:10F94000F981C853D1408E2B9F2B0C01FA01609393
:10F950005B0030935700E89511244E5F5F4F6F4F67
:10F960007F4F0EEFE02E0FEFF02ECE0CDF1CC114F8
:10F97000D10499F685E0C05EDE4F088119812A81A5
:10F980003B81C052D140F80120935B008093570027
:10F99000E89507B600FCFDCF81E180935700E8951C
:10F9A00035C0C05EDE4F88819981AA81BB81C0527B
:10F9B000D140B695A795979587957C018601ABE0D8
:10F9C000AA2EB12CAC0EBD1E0BC0D5016D915D01F0
:10F9D000C7010F947FFE0894E11CF11C01501040F8
:10F9E0000115110591F7A60160E070E0440F551F65
:10F9F000661F771FC05EDE4FE880F9800A811B8199
:10FA0000C052D1404E0D5F1D601F711F1A82C05E33
:10FA1000DE4F488359836A837B83C052D1407FC0C5
:10FA2000FA80C55CDE4FF882CB53D140C65CDE4F16
:10FA30001882CA53D1408B81C82EDD24C65CDE4FAC
:10FA400008811981CA53D140C02AD12A1A828981DA
:10FA5000BE016D5F7F4F843121F59601C05EDE4FA0
:10FA6000E880F9800A811B81C052D1400BBFF701A9
:10FA700087919691DB018C9311969C936E5F7F4FDB
:10FA8000D801C7010296A11DB11DC05EDE4F88835B
:10FA90009983AA83BB83C052D14022503040F1F6F3
:10FAA00036C0C05EDE4F288139814A815B81C052F9
:10FAB000D1400894C108D108760100E010E0089414
:10FAC000C11CD11C0894E11CF11C011D111DE20E8A
:10FAD000F31E041F151F21BDBB27A52F942F832FB5
:10FAE00082BD2F5F3F4F4F4F5F4FF89A80B5DB01CC
:10FAF0008D93BD012E153F054007510761F7C05E8C
:10FB0000DE4F288339834A835B83C052D1409601FC
:10FB10002D5F3F4FFB01108204C080EC8A8322E0FE
:10FB200030E08BE18093C6008091C00086FFFCCF5F
:10FB30008091C00080648093C000C15DDE4FF88179
:10FB4000CF52D140F093C6008091C00086FFFCCF19
:10FB50008091C00080648093C000432F3093C60022
:10FB60008091C00086FFFCCF8091C00080648093AC
:10FB7000C000922F2093C6008091C00086FFFCCF6A
:10FB80008091C00080648093C0008EE08093C600A6
:10FB90008091C00086FFFCCF8091C000806480937C
:10FBA000C00065E1C15DDE4FE880CF52D1406E25D7
:10FBB00069276427FE01319610C090819093C6009A
:10FBC0008091C00086FFFCCF31968091C000806498
:10FBD0008093C0006927215030402115310569F715
:10FBE0006093C6008091C00086FFFCCF8091C0006A
:10FBF00080648093C00085B1805885B9772081F4F6
:10FC0000C15DDE4F0881CF52D1400F5FC15DDE4F35
:10FC10000883CF52D14090E0A0E0B0E00D941AF4F8
:10FC200027982F9880E090E020ED37E0F901319798
:10FC3000F1F7019684369105C9F700008091C00064
:10FC40008D7F8093C00081E180935700E895EE2777
:10FC5000FF270994FFCF90E00D941AF497FB092E2B
:10FC600007260AD077FD04D02ED006D000201AF443
:10FC7000709561957F4F0895F6F7909581959F4F08
:10FC80000895A1E21A2EAA1BBB1BFD010DC0AA1FDD
:10FC9000BB1FEE1FFF1FA217B307E407F50720F0F5
:10FCA000A21BB30BE40BF50B661F771F881F991F70
:10FCB0001A9469F760957095809590959B01AC01B9
:10FCC000BD01CF010895AA1BBB1B51E107C0AA1FAC
:10FCD000BB1FA617B70710F0A61BB70B881F991FED
:10FCE0005A95A9F780959095BC01CD010895F99991
:10FCF000FECF92BD81BDF89A992780B50895262F31
:10FD0000F999FECF1FBA92BD81BD20BD0FB6F89400
:0EFD1000FA9AF99A0FBE01960895F894FFCF63
:00000001FF
