:100000000C946E010C949F010C949F010C949F0121
:100010000C949F010C949F010C949F010C949F01E0
:100020000C949F010C949F010C949F010C949F01D0
:100030000C949F010C949F010C949F010C949F01C0
:100040000C949F010C949F010C949F010C949F01B0
:100050000C949F010C949F010C949F010C94790EB9
:100060000C949F010C94950F0C946B0F0C949F01B2
:100070000C949F010C949F010C949F010C949F0180
:100080000C949F010C949F010C949F010C949F0170
:100090000C949F010C949F010C949F010C94BF0F32
:1000A0000C949F010C949F010C949F010C949F0150
:1000B0000C949F010C949F010C949F010C949F0140
:1000C0000C949F010C949F010C949F010C94410F80
:1000D0000C94170F0C949F010C94ED0E0C94C30E0E
:1000E0000C949F010C9430020C943E030C941E025D
:1000F0000C941E030C9434030C94EC060C94CA0666
:100100000C9476030C9439020C94B7030C94911858
:100110000C9447020C9450030C942C020C94AD03E5
:100120000C9459020C945E020C948F030C947C0482
:100130000C94330B0C9419070C9499030C94D6046B
:100140000C9458030C9485030C9433020C942305EF
:100150000C942A030C94A3030C9455020C945F0294
:100160000C94E3100C94A2010C94D9060C94280270
:100170000C9459040C9451020C9425030C948A0499
:100180000C944B020C946C030C94C9060C946804F8
:100190000C9462030C946C050C9413040C9463028D
:1001A0000C9448070C94A1010C9448030C943D0254
:1001B0000C9443020C942402000021002400270028
:1001C0002A002D0030003300010100000401070166
:1001D0000A0100002200250028002B002E0031001B
:1001E000340002010000050108010B01000020009D
:1001F0002300260029002C002F00320000010000FF
:100200000301060109010505050507050808080899
:10021000020202020A0A080804040404010101019E
:100220000101010103030303030303030407070799
:100230000C0C0C0C0C0C0C0C02020202060606063E
:10024000060606060B0B0B0B0B0B0B0B010210200B
:1002500020080810204010204080020102010804FC
:100260000201010204081020408080402010080490
:1002700002018004020180402010080402010804E9
:10028000020101020408102040800102040810202D
:10029000408000000A0B02090C0D0E080703040140
:1002A000000000000000000000000000000000004E
:1002B000000000000000000000000000000012111B
:1002C000100000000000000000000000000000001E
:1002D0000000000000000000E310911811241FBE70
:1002E000CFEFD1E2DEBFCDBF00E00CBF12E0A0E057
:1002F000B2E0E6EEF7E300E00BBF02C007900D921C
:10030000A83EB107D9F725E0A8EEB2E001C01D92E2
:10031000AE3BB207E1F711E0CDE6D1E000E006C068
:1003200021970109802FFE010E949F19CC36D10729
:1003300080E00807A9F70E948D110C94E11B0C9432
:10034000000008950895FC01A089B18982E08C9392
:10035000A485B5851C92A685B7858FEC8C93108EED
:10036000A489B5896C93A289B3898C9180618C939F
:10037000A289B3898C9188608C93A289B3898C916E
:1003800080688C930288F389E02D80818F7D808343
:1003900008951F93CF93DF93FC01A481B58170E092
:1003A00060E04FEF5FEF6A177B0701F1FC012081EE
:1003B000318121153105C1F0260F371FF901208148
:1003C000E8E0F0E030E0E901C42756954795C0FF2A
:1003D00004C0C8E04C27C4E85C27359527953197C1
:1003E00089F76F5F7F4FDFCF20E0EACFCA018095AA
:1003F0009095982789279827DF91CF911F9108958D
:100400008150823108F05AC0E82FF0E08827E45F7D
:10041000FD4F8F4F0C949F192C0230021E022402B4
:1004200028025E02330239023D02430247024B02B8
:10043000510255025E0259025F0263028091800000
:100440008F77809380000895809180008F7DF9CF11
:1004500080918000877FF5CF84B58F7784BD089524
:1004600084B58F7DFBCF8091B0008F778093B000F3
:1004700008958091B0008F7DF9CF809190008F77A3
:10048000809390000895809190008F7DF9CF8091A6
:100490009000877FF5CF8091A0008F778093A00098
:1004A00008958091A0008F7DF9CF8091A000877F73
:1004B000F5CF809120018F7780932001089580915E
:1004C00020018F7DF9CF80912001877FF5CFCF93D9
:1004D000DF93E4E9F2E08491EEE4F2E0D491E8E025
:1004E000F2E0C491CC23A1F081110E940002EC2F14
:1004F000F0E0EE0FFF1FE451FE4FA591B491EC9197
:10050000ED2381E090E009F480E0DF91CF91089540
:1005100080E090E0FACF1F93CF93DF93282F30E055
:10052000F901EE56FD4F8491F901E45BFD4FD49142
:10053000F901EA5FFD4FC491CC23A9F0162F811178
:100540000E940002EC2FF0E0EE0FFF1FEE52FE4F74
:10055000A591B4918FB7F894EC91111108C0D09582
:10056000DE23DC938FBFDF91CF911F910895DE2BA7
:10057000F8CFCF93DF9390E0FC01E45BFD4F249133
:100580008A5F9D4FFC0184918823D1F090E0880F11
:10059000991FFC01E854FE4FA591B491FC01EE5265
:1005A000FE4FC591D491623071F49FB7F8943C919D
:1005B000822F809583238C93E8812E2B28839FBFE5
:1005C000DF91CF9108958FB7F894EC912E2B2C9357
:1005D0008FBFF6CFCF93DF93EC0161E088E00E94FC
:1005E000B902209731F460E088E0DF91CF910C945C
:1005F0008B02CF3FD10511F461E0F6CFEAE9F2E0DA
:10060000E491E150E23108F0B2C0F0E08827E45F05
:10061000FC4F8F4F0C949F191E0325032A033403AC
:100620003E03B70348035003580362036C03760389
:1006300085038F03B7039903A303AD0384B58068D3
:1006400084BDC7BDDF91CF91089584B5806284BD1C
:10065000C8BDF8CF80918000806880938000D093DF
:100660008900C0938800EECF8091800080628093E3
:100670008000D0938B00C0938A00E4CF80918000EB
:10068000886080938000D0938D00C0938C00DACF77
:100690008091B00080688093B000C093B300D2CF47
:1006A0008091B00080628093B000C093B400CACF44
:1006B00080919000806880939000D0939900C093BF
:1006C0009800C0CF80919000806280939000D0937A
:1006D0009B00C0939A00B6CF809190008860809371
:1006E0009000D0939D00C0939C00ACCF8091A0005F
:1006F00080688093A0008091A0008F7B8093A000F1
:10070000D093A900C093A8009DCF8091A0008062E3
:100710008093A000D093AB00C093AA0093CF8091A8
:10072000A00088608093A000D093AD00C093AC007F
:1007300089CF80912001806880932001D093290186
:10074000C09328017FCF8091200180628093200197
:10075000D0932B01C0932A0175CF8091200188602E
:1007600080932001D0932D01C0932C016BCFC03812
:10077000D1050CF041CF37CF3FB7F8948091770384
:1007800090917803A0917903B0917A0326B5A89B44
:1007900005C02F3F19F00196A11DB11D3FBFBA2F13
:1007A000A92F982F8827BC01CD01620F711D811DD3
:1007B000911D42E0660F771F881F991F4A95D1F758
:1007C00008958F929F92AF92BF92CF92DF92EF9255
:1007D000FF924B015C010E94BC036B017C010E94F3
:1007E000BC036C197D098E099F09683E7340810521
:1007F0009105A8F321E0821A9108A108B10888EEBA
:10080000C80E83E0D81EE11CF11C81149104A104E0
:10081000B10429F7FF90EF90DF90CF90BF90AF9099
:100820009F908F900895AF92BF92CF92DF92EF92F8
:10083000FF920F931F93CF93DF936C017B018B018A
:10084000040F151FEB015E01AE18BF08C017D107DA
:1008500059F06991D601ED91FC910190F081E02D64
:10086000C6011995892B79F7C501DF91CF911F91A9
:100870000F91FF90EF90DF90CF90BF90AF900895D1
:10088000FC01A089B1898C91A689B78982FD0FC02E
:100890009C91818D8F5F8F73228D821749F0A18D7E
:1008A000AE0FBF2FB11D5D969C93818F08958C91E3
:1008B0000895FC01538D448D252F30E0842F90E066
:1008C000821B930B541710F0CF960895019708954B
:1008D000FC01918D828D981761F0A28DAE0FBF2F14
:1008E000B11D5D968C91928D9F5F9F73928F90E06A
:1008F00008958FEF9FEF0895FC01918D828D9817D9
:1009000031F0828DE80FF11D858D90E008958FEF15
:100910009FEF0895FC01918D228D892F90E0805CDE
:100920009F4F821B91098F739927089589EC93E05B
:100930000E948A0421E0892B09F420E0822F089587
:1009400086E694E00E948A0421E0892B09F420E0E5
:10095000822F089583E095E00E948A0421E0892B8C
:1009600009F420E0822F0895FC01A48DA80FB92F6F
:10097000B11DA35ABF4F2C91848D90E001968F73C7
:100980009927848FA689B7892C93A089B1898C91E6
:10099000837080648C93938D848D981306C0028835
:1009A000F389E02D80818F7D80830895EF92FF92FF
:1009B0000F931F93CF93DF93EC0181E0888F9B8D82
:1009C0008C8D98131AC0E889F989808185FF15C03C
:1009D0009FB7F894EE89FF896083E889F98980815F
:1009E0008370806480839FBF81E090E0DF91CF912E
:1009F0001F910F91FF90EF900895F62E0B8D10E050
:100A00000F5F1F4F0F731127E02E8C8D8E110CC0BE
:100A10000FB607FCFACFE889F989808185FFF5CF09
:100A2000CE010E94B404F1CFEB8DEC0FFD2FF11D30
:100A3000E35AFF4FF0829FB7F8940B8FEA89FB8946
:100A400080818062CFCFCF93DF93EC01888D8823A4
:100A5000B9F0AA89BB89E889F9898C9185FD03C021
:100A6000808186FD0DC00FB607FCF7CF8C9185FF06
:100A7000F2CF808185FFEDCFCE010E94B404E9CF93
:100A8000DF91CF91089580E090E0892B29F00E94BA
:100A9000AA0481110E94000080E090E0892B49F0B7
:100AA00080E090E0892B29F00E94000081110E94D3
:100AB000000080E090E0892B29F00E94A0048111C1
:100AC0000E94000080E090E0892B29F00E949604AB
:100AD00081110C94000008958091A6059091A705BE
:100AE000891B990B089520911103260F3327331F7B
:100AF00021323105ECF42091A103FC0190E080E06B
:100B0000243069F082E00895A09111032191AC0195
:100B10004F505D4FA40FB52FB11D2C930196861732
:100B200098F380911103680F6093110380E008959A
:100B300081E008951092A10381E08093A0031092B8
:100B40007B0361E084E10E948B0261E085E10E9409
:100B50008B02E9EBF0E080818E7F808380818D7F46
:100B6000808388E48093B80085E48093BC00089576
:100B7000CF93DF9391E09093F0028823B9F0C09176
:100B8000B800D091BA008091BC008A7B8093BC00F1
:100B900060E084E10E948B0260E085E10E948B02AC
:100BA0000E949A05D093BA00C093B800DF91CF910C
:100BB00008958F929F92AF92BF92CF92DF92EF9261
:100BC000FF920F931F93CF93DF93D091A405D1325F
:100BD00008F0D7C0182FC091C8030E94BC036B0156
:100BE0007C018091A10381116BC082E08093A103FD
:100BF0001093A0038FEF80939F0310929E03D093D6
:100C00009D03A8EAB3E0EDE7F3E080E0D81391C0DC
:100C100010927C0380917C03CC0FC82BC0937C0383
:100C200080917B03813009F088C010927B030E9481
:100C3000BC036B017C0180917C038093BB0080919D
:100C4000A3039091A403A091A503B091A603892BBF
:100C50008A2B8B2BA1F00E94BC030091A30310915F
:100C6000A4032091A5033091A6036C197D098E0978
:100C70009F09061717072807390708F442C0809113
:100C8000BC0083FDD8CF85EC8093BC000E94BC03E0
:100C90006B017C018091A103823009F450C08091E6
:100CA0009F038F3F09F46FC080919F03803209F446
:100CB0006CC080919F03803309F469C084E026C032
:100CC0008091A3039091A403A091A503B091A603E2
:100CD000892B8A2B8B2B09F484CF0E94BC03809034
:100CE000A3039090A403A090A503B090A6036C1951
:100CF0007D098E099F0986169706A806B90608F091
:100D000070CF8091A2030E94B80585E01092A505DE
:100D10001092A4051092A703DF91CF911F910F911C
:100D2000FF90EF90DF90CF90BF90AF909F908F900B
:100D300008959D9191938F5F69CF85EEA5CF8091A6
:100D4000A3039091A403A091A503B091A603892BBE
:100D50008A2B8B2B09F49ECF0E94BC030091A30326
:100D60001091A4032091A5033091A6036C197D096D
:100D70008E099F09061717072807390708F08ACF39
:100D8000C0CF81E0C3CF80E0C1CF82E0BFCF83E09E
:100D9000BDCF0895E091A7058091A605E81730F42E
:100DA000F0E0EC5CFC4F808190E008958FEF9FEFC6
:100DB00008959091A7058091A6052FEF3FEF981712
:100DC00048F4E92FF0E0EC5CFC4F208130E09F5FBD
:100DD0009093A705C9010895CF92DF92EF92FF92F9
:100DE0000F931F93CF93DF937C01CB018A01209156
:100DF000A703222389F0EB016B01C40ED51ECC158D
:100E0000DD0569F06991D701ED91FC910190F081C8
:100E1000E02DC7011995F3CF642F0E947305C80117
:100E2000DF91CF911F910F91FF90EF90DF90CF90C6
:100E30000895CF93DF931F92CDB7DEB769832091DA
:100E4000A7032223F9F02091A405203258F021E0D5
:100E500030E0FC013383228390E080E00F90DF914B
:100E6000CF9108958091A505E82FF0E0E855FC4F5B
:100E7000998190838F5F8093A5058093A40581E07D
:100E800090E0ECCF61E0CE0101960E947305F7CFB0
:100E900090E080E008956093580370935903809325
:100EA0005A0390935B03645D7E4F8F4F9F4F609317
:100EB000540370935503809356039093570382E035
:100EC00090E09093600380935F032FB7F894809134
:100ED000730390917403A0917503B09176032FBFB3
:100EE0008093EC029093ED02A093EE02B093EF0298
:100EF00008950F931F938FB7F89400917303109187
:100F0000740320917503309176038FBF4091EC02FA
:100F10005091ED026091EE027091EF02041B150BEF
:100F2000260B370B8091580390915903A0915A03D7
:100F3000B0915B03083E134021053105C0F00196D6
:100F4000A11DB11D8093580390935903A0935A0398
:100F5000B0935B0348515C4F6F4F7F4F4093EC025F
:100F60005093ED026093EE027093EF02C4CF409174
:100F700054035091550360915603709157038417A1
:100F80009507A607B70770F0E0915C03F0915D0349
:100F9000309741F01995611571058105910569F04A
:100FA0000E944B07609158037091590380915A0336
:100FB00090915B031F910F91089580915803909138
:100FC0005903A0915A03B0915B03845D9E4FAF4FCC
:100FD000BF4F8093540390935503A0935603B0934F
:100FE000570381E090E020915F0330916003232B51
:100FF00011F490E080E09093600380935F03D2CF80
:101000004F925F926F927F928F929F92AF92BF9218
:10101000CF92DF92EF92FF920F931F93CF93DF93C4
:10102000FC011681A12FB0E020E833E341EE51E04E
:101030000E943B194B015C01C2EBD7E09D0104E625
:1010400010E080E9E82EFF24F394CE01825B974004
:10105000821793079CF14580512C2E54384FC901BB
:1010600064E670E00E948B197C01C90160E971E0BF
:101070000E948B196C0106E012E0C1E0D0E039015A
:1010800083E068227724C415D5050CF040C0C23037
:10109000D10571F56114710459F5E114F10419F4E5
:1010A000C114D10429F5B0E88B0EBBE39B1EB6E258
:1010B000AB1EB11C21960F5F1F4FE5CFCE01837091
:1010C0009927892B99F4CE01B8010E948B19892B9D
:1010D00031F4CE01B7010E948B19892B39F4A0E8B5
:1010E0008A0EA1E59A1EA1E0AA1EB11C2196ADCFE1
:1010F000D8018C91A82FB0E020E831E541E050E024
:101100000E943B19860E971EA81EB91ED3CF2281BE
:1011100030E0A0E1BEE00E9470196B017C012181EA
:1011200030E0ACE3B0E00E947019C60ED71EE81E96
:10113000F91E8081C80ED11CE11CF11CA481A150B4
:10114000BB0B20E831E541E050E00E9446196C0DF0
:101150007D1D8E1D9F1D680D791D8A1D9B1DDF91B4
:10116000CF911F910F91FF90EF90DF90CF90BF90A4
:10117000AF909F908F907F906F905F904F90089569
:101180004F925F926F927F928F929F92AF92BF9297
:10119000CF92DF92EF92FF920F931F93CF93DF9343
:1011A0004B015C018091E8029091E902A091EA0272
:1011B000B091EB0288159905AA05BB0509F4C6C0D4
:1011C0008CE3C82ED12CE12CF12CC501A70196018E
:1011D0000E944E1960936103CA01B901A7019601EB
:1011E0000E944E1960936203C501B40120E13EE004
:1011F00040E050E00E944E19CA01B90128E130E0F8
:1012000040E050E00E944E1960936303C501B401B1
:1012100020E831E541E050E00E944E1969017A0171
:10122000CA01B9016C5F7F4F8F4F9F4F27E030E0BD
:1012300040E050E00E944E196F5F60936403412CC0
:10124000512C320140E004E610E0C0E9D1E0242F47
:1012500030E02E54384FF901E370FF273097F9F44E
:10126000C901B8010E948B19892B31F4C901BE0153
:101270000E948B19892B99F48EE691E0A0E0B0E0F2
:10128000480E591E6A1E7B1ED301C201AA27BB2726
:10129000C816D906EA06FB0638F04F5FD8CF8DE6B0
:1012A00091E0A0E0B0E0ECCF40936703C90164E6B1
:1012B00070E00E948B19EC01C90160E971E00E94A5
:1012C0008B19309721F42097D9F40097C9F04DE697
:1012D00051E060E070E0441A550A660A770AC418C3
:1012E000D508E608F708A6E0B2E020E0213069F46E
:1012F0003097E9F5209711F40097C9F54DE106C044
:101300004EE651E060E070E0E6CF4C9150E070E0D6
:1013100060E031E0320FC416D506E606F70640F06D
:10132000C41AD50AE60AF70A1196232F3C30F1F6C3
:101330002F5F20936603C394C09265038092E802F6
:101340009092E902A092EA02B092EB02DF91CF9173
:101350001F910F91FF90EF90DF90CF90BF90AF90D3
:101360009F908F907F906F905F904F9008954CE189
:10137000CDCF0E9479070E94C0088091620390E05F
:10138000089567E00E947F19911103C010926A03CB
:10139000089584E1913069F082E3923051F086E95A
:1013A000933039F088EC943021F08FEF953009F0CC
:1013B00081E080936A0308958F929F92AF92BF92CB
:1013C000CF92DF92EF92FF920F931F93CF93DF9311
:1013D0008C01D1E0D093A70388E68093C8031092D4
:1013E000A5051092A40560E088EA95E00E9419071F
:1013F00081E00E94D905C82F882321F010925E0356
:1014000080E0FEC0D0935E030E94BC036B017C01B0
:101410008091A103811164C081E08093A103809336
:10142000A0039FEF90939F0310929E0396E09093EA
:101430009D0380937C0380917C03806D80937C036B
:1014400080917B03813009F0E8C010927B030E94F9
:10145000BC036B017C0180917C038093BB00809175
:10146000A3039091A403A091A503B091A603892B97
:101470008A2B8B2BA1F00E94BC038090A303909039
:10148000A403A090A503B090A6036C197D098E0952
:101490009F0986169706A806B90608F442C08091EF
:1014A000BC0083FDD8CF85EC8093BC000E94BC03B8
:1014B0006B017C018091A103813009F4B0C080915F
:1014C0009E03873008F0CDC080919E03ADE7B3E066
:1014D000E4E3F3E0C81749F19D919193CF5FFACF10
:1014E0008091A3039091A403A091A503B091A603BA
:1014F000892B8A2B8B2B09F48BCF0E94BC03809005
:10150000A3039090A403A090A503B090A6036C1928
:101510007D098E099F0986169706A806B90608F068
:1015200077CF8091A2030E94B8051092A705C093BF
:10153000A605C73008F464CF88EA95E00E94D90672
:10154000C82F982F92959770DAE08C2F8F709D9FFF
:10155000800D1124F801808388EA95E00E94D90665
:10156000982F92959F708F709D9F800D1124F80188
:10157000818388EA95E00E94D906982F929593700E
:101580008F709D9F800D1124F801828388EA95E079
:101590000E94D906982F92959F708F709D9F800D05
:1015A0001124F801838388EA95E00E94D906982FD8
:1015B00092959F708F709D9F800D1124F8018483F8
:1015C00088EA95E00E94D906982F92959F708F70B7
:1015D0009D9F800D1124F801858388EA95E00E9483
:1015E000D906982F9F70925E82958F708D9F900D77
:1015F0001124F80196838C2F8095881F8827881FD7
:10160000DF91CF911F910F91FF90EF90DF90CF90DE
:10161000BF90AF909F908F90089585EE45CF8091B9
:10162000A3039091A403A091A503B091A603892BD5
:101630008A2B8B2B09F43ECF0E94BC038090A3031E
:101640009090A403A090A503B090A6036C197D0907
:101650008E099F0986169706A806B90608F02ACFB4
:1016600060CF87E033CFCF93DF9300D000D01F92BD
:10167000CDB7DEB7CE0101960E94DC09882369F060
:10168000CE0101960E94000827960FB6F894DEBF9F
:101690000FBECDBFDF91CF91089560E070E0CB0128
:1016A000F3CF42E050E066E372E00C9413040F9332
:1016B0001F93CF93DF93EC01FB014481558160813F
:1016C00071810E9413048C01CE010E94510B800F86
:1016D000911FDF91CF911F910F910895FC0180819F
:1016E0009181009711F00C94951860E070E0CB01A7
:1016F0000895FC0124813581232B39F421E0FB017D
:101700008081882349F020E007C0808191810E9478
:10171000D11B21E0892BB9F7822F089568E372E08D
:101720000E94790B91E0811190E0892F08950F9329
:101730001F93CF93DF93EC0188819981009759F033
:101740002A813B812617370730F081E0DF91CF9166
:101750001F910F9108958B016F5F7F4F0E94E71AD1
:10176000009759F0998388831B830A832C813D81DC
:10177000232B59F7FC011082E8CF80E0E7CFEF92EE
:10178000FF920F931F93CF93DF936115710541F47F
:1017900080E0DF91CF911F910F91FF90EF9008951E
:1017A00041155105B1F07B01EC010C811D81040F45
:1017B000151FB8010E94970B882351F328813981A6
:1017C0008C819D81B701820F931F0E94DA1B1D83BC
:1017D0000C8381E0DECFCF93DF93EC018881998188
:1017E000009711F00E945E1A198218821D821C82D5
:1017F0001B821A82DF91CF910895EF92FF920F938F
:101800001F93CF93DF9300D000D01F92CDB7DEB7E8
:101810007C01CB014AE08E010F5F1F4FB8010E948F
:10182000DC18F80101900020E9F73197AF01401B67
:10183000510BB801C7010E94BF0B811103C0C70142
:101840000E94EB0BC70127960FB6F894DEBF0FBEC0
:10185000CDBFDF91CF911F910F91FF90EF90089531
:10186000CF93DF93EC01FB0101900020E9F7319762
:10187000AF01461B570B0E94BF0B811103C0CE0165
:101880000E94EB0BCE01DF91CF910895CF93DF93B0
:10189000EC01FB0144815581608171810E94BF0B85
:1018A000811103C0CE010E94EB0BCE01DF91CF91DD
:1018B0000895EF92FF920F931F93CF93DF93EC0164
:1018C0007B018A01BA010E94970B81110BC0CE01E6
:1018D0000E94EB0BCE01DF91CF911F910F91FF90F2
:1018E000EF9008951D830C83B701888199810E9430
:1018F000DA1BF0CFFB0101900020E9F73197AF012F
:10190000461B570B0C94590C0F931F93CF93DF93E7
:10191000CDB7DEB762970FB6F894DEBF0FBECDBF6E
:101920008C01CB01F8011182108213821282158280
:1019300014824AE0BE016F5F7F4F0E94BC18BE0157
:101940006F5F7F4FC8010E947A0C62960FB6F894C1
:10195000DEBF0FBECDBFDF91CF911F910F910895D4
:101960000F931F93CF93DF9300D000D000D0CDB75B
:10197000DEB78C01862FF801118210821382128249
:10198000158214824AE0BE016F5F7F4F90E00E9493
:10199000DC18BE016F5F7F4FC8010E947A0C299648
:1019A0000FB6F894DEBF0FBECDBFDF91CF911F9170
:1019B0000F910895CF93DF93EC01FB0186179707F2
:1019C00049F0608171816115710541F04481558153
:1019D0000E94590CCE01DF91CF9108950E94EB0B2C
:1019E000F9CFFC01118210821382128215821482B7
:1019F0000C94DA0CFC01118210821382128215827F
:101A00001482FB0101900020E9F73197AF01461BDA
:101A1000570B0C94590C6F927F928F929F92AF92BA
:101A2000BF92CF92DF92EF92FF920F931F93CF93CB
:101A3000DF93EC018B01DB011496AD90BC90750136
:101A4000B1E0EB1AF108EFEFFFEF912C812C90E061
:101A500080E070E060E0E816F9062CF12617370701
:101A600034F1DC0111966D018A159B0560F4D801F3
:101A70006D907C906114710431F0D301A80FB91FEF
:101A80005C91451719F08E159F0559F46F5F7F4FD4
:101A90004F01BFEF8B1A9B0AF6018E159F0509F0C7
:101AA000FC01C601D8CF261737070CF03FC06F01E5
:101AB000E815F90510F064014F0168E372E0CE010A
:101AC0000E94FA0CF801E480F580CE14DF04D8F40B
:101AD0008E149F0408F47401D8016D917C91FB0170
:101AE000EE0DFF1DB08010826C0D7D1DCE016115C5
:101AF0007105C9F00E947A0CF80180819181E80E8D
:101B0000F91ED701BC92CE01DF91CF911F910F91A9
:101B1000FF90EF90DF90CF90BF90AF909F908F900D
:101B20007F906F9008950E94EB0BE6CF68E372E020
:101B3000CE010E94FA0CE7CFFC01808191810097D1
:101B400011F00C945E1A0895CF92DF92EF92FF92FB
:101B50000F931F93CF93DF93CDB7DEB762970FB686
:101B6000F894DEBF0FBECDBF7C018B01BC01CE015E
:101B700007960E94F10CB801CE0107960E94460C10
:101B8000BC01CE010D960E94F10CCE010D960E9473
:101B9000C9016C0169E372E0CE0101960E94FA0C62
:101BA000B701CE0101960E94460C6BE372E00E94E1
:101BB000300CB8010E94460C6BE372E00E94300CBE
:101BC000B6010E94FD0BBC0183E095E00E94570B1B
:101BD000CE0101960E949C0DCE010D960E949C0D97
:101BE000CE0107960E949C0DB701CE0107960E9478
:101BF000F10CB801CE0107960E94460CBC01CE0143
:101C00000D960E94F10CCE010D960E94C9016C0147
:101C100069E372E0CE0101960E94FA0CB701CE0191
:101C200001960E94460C6BE372E00E94300CB801F2
:101C30000E94460C6BE372E00E94300CB6010E94D9
:101C4000FD0BBC0189EC93E00E94570BCE0101967D
:101C50000E949C0DCE010D960E949C0DCE01079610
:101C60000E949C0D62960FB6F894DEBF0FBECDBFEA
:101C7000DF91CF911F910F91FF90EF90DF90CF9068
:101C8000089585ED8093BC008091A3039091A403F7
:101C9000A091A503B091A6030796A11DB11D23E055
:101CA000B695A795979587952A95D1F72091BC0071
:101CB00024FD03C01092A10308954091A303509105
:101CC000A4036091A5037091A603452B462B472BD7
:101CD00069F30097A105B10541F02AE22A95F1F7D1
:101CE00000C00197A109B109E1CF8091A2030C9432
:101CF000B8051F920F920FB60F9211242F933F93A6
:101D00008F939F93AF93BF938091730390917403CC
:101D1000A0917503B09176033091720323E0230FF5
:101D20002D3758F50196A11DB11D209372038093A4
:101D3000730390937403A0937503B093760380911B
:101D4000770390917803A0917903B0917A0301967B
:101D5000A11DB11D8093770390937803A09379031D
:101D6000B0937A03BF91AF919F918F913F912F9143
:101D70000F900FBE0F901F90189526E8230F029624
:101D8000A11DB11DD2CF1F920F920FB60F92112439
:101D90000BB60F922F933F934F935F936F937F9365
:101DA0008F939F93AF93BF93EF93FF9389EC93E04F
:101DB0000E94B404FF91EF91BF91AF919F918F91D9
:101DC0007F916F915F914F913F912F910F900BBE3B
:101DD0000F900FBE0F901F9018951F920F920FB685
:101DE0000F9211240BB60F922F933F934F935F9353
:101DF0006F937F938F939F93AF93BF93EF93FF93D3
:101E000089EC93E00E944004FF91EF91BF91AF9164
:101E10009F918F917F916F915F914F913F912F9102
:101E20000F900BBE0F900FBE0F901F9018951F9232
:101E30000F920FB60F9211240BB60F922F933F9370
:101E40004F935F936F937F938F939F93AF93BF93C2
:101E5000EF93FF9386E694E00E94B404FF91EF9124
:101E6000BF91AF919F918F917F916F915F914F91B2
:101E70003F912F910F900BBE0F900FBE0F901F90B0
:101E800018951F920F920FB60F9211240BB60F9256
:101E90002F933F934F935F936F937F938F939F9372
:101EA000AF93BF93EF93FF9386E694E00E944004C4
:101EB000FF91EF91BF91AF919F918F917F916F9122
:101EC0005F914F913F912F910F900BBE0F900FBEDE
:101ED0000F901F9018951F920F920FB60F9211241A
:101EE0000BB60F922F933F934F935F936F937F9314
:101EF0008F939F93AF93BF93EF93FF9383E095E00E
:101F00000E94B404FF91EF91BF91AF919F918F9187
:101F10007F916F915F914F913F912F910F900BBEE9
:101F20000F900FBE0F901F9018951F920F920FB633
:101F30000F9211240BB60F922F933F934F935F9301
:101F40006F937F938F939F93AF93BF93EF93FF9381
:101F500083E095E00E944004FF91EF91BF91AF9123
:101F60009F918F917F916F915F914F913F912F91B1
:101F70000F900BBE0F900FBE0F901F9018951F92E1
:101F80000F920FB60F9211240BB60F922F933F931F
:101F90004F935F936F937F938F939F93AF93BF9371
:101FA000EF93FF938091B900887F803609F44DC08C
:101FB00008F040C0883209F4A9C028F5803109F43E
:101FC0009DC0C8F4882309F4FBC0883009F496C08A
:101FD000FF91EF91BF91AF919F918F917F916F9101
:101FE0005F914F913F912F910F900BBE0F900FBEBD
:101FF0000F901F901895883109F488C0803241F7FE
:1020000080939F0314C0803409F49DC040F4803352
:10201000B9F38833E9F680939F0385ECB0C080352F
:1020200009F485C0883509F496C0883489F60E9481
:10203000410ECECF883909F48CC038F5883729F0A5
:1020400050F4883611F0803719F683E08093A103AD
:102050001092330357C0883809F47BC0803919F0D7
:10206000803809F0B5CF80913303803208F071C019
:10207000E091330381E08E0F809333038091BB00A6
:10208000F0E0ED5EFC4F80833DC0803B39F0E0F432
:10209000803A09F479C0883A09F09ACF84E08093B5
:1020A000A1031092120310921103E091A005F09188
:1020B000A10519958091110381110FC081E08093D2
:1020C00011031092F10209C0803C09F4A6CF883CAC
:1020D00009F4A3CF883B09F07BCFE091120381E0A4
:1020E0008E0F80931203F0E0EF50FD4F80818093BC
:1020F000BB00909112038091110329C080917C0351
:102100008093BB0085EC8093BC0062CF90919E03CE
:1021100080919D03981758F5E0919E0381E08E0F02
:1021200080939E03F0E0E358FC4F8081E9CFE0917B
:102130009E0381E08E0F80939E038091BB00F0E0B0
:10214000E358FC4F808390919E0380919D039817E4
:10215000C8F285E8D8CFE0919E0381E08E0F80938E
:102160009E038091BB00F0E0E358FC4F8083809198
:10217000A00381115CCF81E080937B0384EA80938C
:10218000BC001092A10324CF85EC8093BC00109278
:10219000A10380913303803230F4E0913303F0E007
:1021A000ED5EFC4F10826091330370E0E091A20578
:1021B000F091A30583E193E019951092330308CFC2
:1021C00010929F0334CFCF92DF92EF92FF92E9EC0F
:1021D000F3E01382128288EEC82E83E0D82EE12C21
:1021E000F12CC482D582E682F78286E192E0918367
:1021F000808325E331E03587248724E331E0378786
:10220000268720E331E0318B208B21E331E0338BD3
:10221000228B22E331E0358B248B26E331E0378BB0
:10222000268B118E128E138E148EE6E6F4E0138246
:102230001282C482D582E682F7829183808325ED63
:1022400030E03587248724ED30E03787268720ED7E
:1022500030E0318B208B21ED30E0338B228B22ED6F
:1022600030E0358B248B26ED30E0378B268B118EBA
:10227000128E138E148EE3E0F5E013821282C48274
:10228000D582E682F7829183808385EC90E0958702
:10229000848784EC90E09787868780EC90E0918B30
:1022A000808B81EC90E0938B828B82EC90E0958B1D
:1022B000848B86EC90E0978B868B118E128E138E1A
:1022C000148E1092A7051092A6051092A5051092E3
:1022D000A4050E949A0581EA91E09093A10580935C
:1022E000A00582EA91E09093A3058093A205E8EA15
:1022F000F5E013821282C482D582E682F78288E2F8
:1023000092E09183808368E372E084EB95E0FF9034
:10231000EF90DF90CF900C94FA0CCF93DF93CDB772
:10232000DEB7C954D1090FB6F894DEBF0FBECDBFDA
:10233000789484B5826084BD84B5816084BD85B5A0
:10234000826085BD85B5816085BD80916E008160AC
:1023500080936E0010928100809181008260809352
:102360008100809181008160809381008091800054
:102370008160809380008091B10084608093B1007F
:102380008091B00081608093B00080919100826064
:102390008093910080919100816080939100809161
:1023A00090008160809390008091A1008260809372
:1023B000A1008091A10081608093A1008091A00084
:1023C00081608093A000809121018260809321012F
:1023D00080912101816080932101809120018160A1
:1023E0008093200180917A00846080937A008091AC
:1023F0007A00826080937A0080917A008160809375
:102400007A0080917A00806880937A001092C100EF
:1024100066E083E095E00E94A30164E286E694E032
:102420000E94A30166E089EC93E00E94A30162E0B0
:1024300082E00E94B90261E088E00E94B90290E067
:1024400080E00E94EA0290E080E00E940619182FC6
:102450008093700381E090E00E94061980936B03E3
:10246000812F0E94C1091092A7051092A605109213
:10247000A5051092A4050E949A0581EA91E0909327
:10248000A1058093A00582EA91E09093A305809333
:10249000A20511E01093A70308E60093C80381E0AA
:1024A0000E94D9056DE372E081118DC080915E03B9
:1024B000811134C061E672E0CE0101960E94FA0CEF
:1024C00069E472E0CE0182960E94FA0CBE016F5F51
:1024D0007F4FCE0182960E94A40DCE0182960E946B
:1024E0009C0DCE0101960E949C0D83E39BE090938E
:1024F0005D0380935C038091580390915903A091F0
:102500005A03B0915B038093540390935503A093B7
:102510005603B09357030E94790753C062E672E0F6
:10252000CE0101960E94FA0C69E472E0CE01829617
:102530000E94FA0CBE016F5F7F4FCE0182960E940F
:10254000A40DCE0182960E949C0DCE0101960E94A0
:102550009C0D1093A7030093C8031092A505109239
:10256000A40560E088EA95E00E94190760E888EA1F
:1025700095E00E94190760E088EA95E00E9419073B
:1025800060E088EA95E00E94190764E088EA95E037
:102590000E94190761E088EA95E00E94190761E04E
:1025A00088EA95E00E94190766E688EA95E00E94AD
:1025B000190781E00E94D905882309F49CC3109271
:1025C0005E0361E772E0CE0101960E94FA0C69E4B5
:1025D00072E0CE0182960E94FA0CBE016F5F7F4FBF
:1025E000CE0182960E94A40DCE0182960E949C0D7F
:1025F000CE0101960E949C0D0E94790780915F0395
:10260000909160036AE772E0029711F46DE872E05E
:10261000CE0101960E94FA0C69E472E0CE01829626
:102620000E94FA0CBE016F5F7F4FCE0182960E941E
:10263000A40DCE0182960E949C0DCE0101960E94AF
:102640009C0D6DE972E0CE0101960E94FA0C63EADE
:1026500072E0CE0182960E94FA0CBE016F5F7F4F3E
:10266000CE0182960E94A40DCE0182960E949C0DFE
:10267000CE0101960E949C0D0CE310E068E1262E2D
:10268000312C7CE3472E512C612C712C0E94670267
:10269000892B09F07BC380917103882309F476C3E9
:1026A00010927103809170038F5F873008F078C3B8
:1026B0008093700360917003CE0182960E94B00CEB
:1026C0006BEA72E0CE0188960E94FA0CBE016E5D44
:1026D0007F4FCE0188960E94460CBC01CE01019628
:1026E0000E94F10C69E472E0CE018E960E94FA0C11
:1026F000BE016F5F7F4FCE018E960E94A40DCE016A
:102700008E960E949C0DCE0101960E949C0DCE01DA
:1027100088960E949C0DCE0182960E949C0D60912D
:10272000700390E080E00E940E19809170030E9477
:10273000C1092FB7F8948091730390917403A0910D
:102740007503B09176032FBF40916C0350916D03D8
:1027500060916E0370916F036C017D01C41AD50AFC
:10276000E60AF70AB701A601483E53406105710524
:1027700008F471C180936C0390936D03A0936E0372
:10278000B0936F030E94790780915F03909160037B
:10279000029709F041C10E9479070E94C008A090E9
:1027A0006303B12C80916B03882361F00E94790749
:1027B0000E94C0080E9479070E94C0080E94790701
:1027C0000E94C0080E9479070E94C008E09061033F
:1027D000F12C0E94B9096C01C701B8010E948B1944
:1027E0007C01BC01CE01805C9F4F0E94840C8AE07A
:1027F000E816F104BCF461EA72E0CE0101960E9491
:10280000FA0CBE01605C7F4FCE0101960E94460C1F
:10281000BC01CE01805C9F4F0E94DA0CCE01019674
:102820000E949C0DC601B8010E948B197C01BC015D
:10283000CE01CA960E94840CEAE0EE16F104B4F4CC
:1028400061EA72E0CE0101960E94FA0CBE01665C5C
:102850007F4FCE0101960E94460CBC01CE01CA9664
:102860000E94DA0CCE0101960E949C0DC501B101B7
:102870000E948B197C01BC01CE01C4960E94840C7D
:10288000FAE0EF16F104B4F461EA72E0CE010196C9
:102890000E94FA0CBE016C5C7F4FCE0101960E9433
:1028A000460CBC01CE01C4960E94DA0CCE01019602
:1028B0000E949C0D63EB72E0CE018E960E94FA0C92
:1028C00065EB72E0CE018E960E947A0C67EB72E0A7
:1028D000CE0101960E94FA0CBE01625D7F4FCE01CF
:1028E00001960E94460C69EB72E00E94300CBE011A
:1028F0006C5C7F4F0E94460CBE01665C7F4F0E945D
:10290000460CBE01605C7F4F0E94460C62EC72E098
:102910000E94300CFC01448155816081718186E602
:1029200094E00E941304CE0101960E949C0DBE010A
:102930006C5C7F4FCE0182960E94F10C69ED72E0D3
:10294000CE0182960E94300CBE01665C7F4F0E94D1
:10295000460C69ED72E00E94300CBE01605C7F4F56
:102960000E94460CBC01CE0188960E94F10C64ECDA
:1029700072E0CE0101960E94FA0CBE01685D7F4FA5
:10298000CE0101960E94A40DCE0101960E949C0DDD
:10299000CE0188960E949C0DCE0182960E949C0DCD
:1029A000CE018E960E949C0DCE01C4960E949C0D75
:1029B000CE01CA960E949C0DCE01805C9F4F0E9462
:1029C0009C0D80917003863039F5F4E1AF16B104A7
:1029D00009F0E9C10E94B9099C01220F331F820F3F
:1029E000931F2CE330E040E050E0CD975CF00E9474
:1029F000B9099C01220F331F280F391F032E000C29
:102A0000440B550BA6E9B0E00E943B19A3019201CB
:102A10000E941C1920936A0360916A0380916903E4
:102A2000681799F1CE0101960E94B00C67EC72E034
:102A3000CE0182960E94FA0CBE016F5F7F4FCE01DD
:102A400082960E94A40DCE0182960E949C0DCE011A
:102A500001960E949C0D20916A03809169032817BA
:102A600008F0B2C1281B330B37FF03C03195219505
:102A70003109253131050CF4A5C1835080936903D8
:102A80008091690390E00E94EA0289EC93E00E9441
:102A90008A04892B31F16EE170E080E090E00E94C1
:102AA000E10389EC93E00E948A04181619066CF77A
:102AB00089EC93E00E9468048A3009F096C189ECA1
:102AC00093E00E942305109268038FE589831A82A0
:102AD00041E050E0BE016F5F7F4F84EB95E00E94C4
:102AE000BF0B8091B8059091B905892B09F41DC2DF
:102AF00064EB75E0CE0101960E94F10C30E020E01D
:102B00004FE5BE016F5F7F4FCE01805C9F4F0E94FB
:102B10000B0DCE0101960E949C0D64EB75E0CE0179
:102B200001960E94F10C21E030E04FE5BE016F5F9D
:102B30007F4FCE01CA960E940B0DCE0101960E94D6
:102B40009C0D6BEC72E0CE01805C9F4F0E94790B74
:102B5000882331F0CE01CA960E948E0B811164C188
:102B60006EEC72E0CE01805C9F4F0E94790B811168
:102B7000E5C162ED72E0CE01805C9F4F0E94790B4F
:102B80008111F2C165ED72E0CE01805C9F4F0E9421
:102B9000790B882309F486C1CE01CA960E948E0B58
:102BA000882309F47FC1BE01665C7F4FCE01019688
:102BB0000E94F10C30E020E04EE2BE016F5F7F4FDB
:102BC000CE01C4960E940B0DCE0101960E949C0D71
:102BD000BE01665C7F4FCE0101960E94F10C21E0A0
:102BE00030E04EE2BE016F5F7F4FCE018E960E94B5
:102BF0000B0DCE0101960E949C0DBE01665C7F4FBD
:102C0000CE0182960E94F10C22E030E04EE2BE013D
:102C10006E5D7F4FCE0101960E940B0D30E020E0EB
:102C20004FE5BE016F5F7F4FCE0188960E940B0D6E
:102C3000CE0101960E949C0DCE0182960E949C0DB1
:102C4000CE01C4960E948E0B882309F43FC0CE01AA
:102C50008E960E948E0B8823C9F1CE0188960E9421
:102C60008E0B882399F1CE01C4960E946E0B6B01E6
:102C7000CE018E960E946E0B4B01C60101974E97B6
:102C800028F5C40101970B9708F5CE0101960E9423
:102C9000DC098F8190E029813A814B81843691054E
:102CA0000CF43DC2825B9740809367038092660379
:102CB000C0926503409363033093620320936103E2
:102CC00081E693E00E9400080E944B07BE016C5C05
:102CD0007F4FCE0101960E94F10C6BED72E0CE01A8
:102CE00001960E94300CBE01625D7F4F0E94460C2F
:102CF0006BED72E0F5C110935E031093A703109281
:102D0000A5051092A40560E088EA95E00E941907E5
:102D100060E088EA95E00E94190781E00E94D905E9
:102D200081114DCC83E39BE090935D0380935C0322
:102D30008091580390915903A0915A03B0915B037D
:102D40008093540390935503A0935603B093570375
:102D50000E9479076DE472E0CE0101960E94FA0CA0
:102D600069E472E0CE0182960E94FA0CBE016F5FA8
:102D70007F4FCE0182960E94A40DCE0182960E94C2
:102D80009C0DCE0101960E949C0D1BCC0E946702F7
:102D9000019709F0CECCCC24C394C0927103C9CC66
:102DA0001092700387CC26E1A216B10409F034CE4C
:102DB0000E94B909D801A81BB90B26E930E00E948E
:102DC000A71924CE81505ACE821708F05ECE281B58
:102DD000330B37FF03C0319521953109253131057A
:102DE00014F08D5F4BCE8F5F49CE90916803853292
:102DF00061F491110DC0E1E0E093680368E372E0D3
:102E000084EB95E00E947A0C40CE992309F43DCEE4
:102E100089831A8241E050E0BE016F5F7F4F84EBEF
:102E200095E00E94BF0B31CECE01CA960E946E0B78
:102E300067307105B8F56093700390E080E00E9400
:102E40000E19F09070038F2D0E94C1092F2D30E0D4
:102E500050E040E019A27E01F1E2EF0EF11CCA0140
:102E6000B9012AE030E040E050E00E944E19605D78
:102E7000F70162937F01211531054105510579F76D
:102E8000309761F001900020E9F73197AF014E19BA
:102E90005F09B70183E095E00E94130483E095E0A9
:102EA0000E94510BBE01605C7F4FCE0182960E9452
:102EB000F10C6EED72E0CE0182960E94300CBE01E4
:102EC000665C7F4F0E94460C6EED72E00E94300CF3
:102ED000BC01CE0101960E94F10C60EE72E0CE01C1
:102EE00088960E94FA0CBE016F5F7F4FCE018896D4
:102EF0000E94A40DCE0188960E949C0DCE010196E1
:102F00000E949C0DCE0182960E949C0D68E372E0A7
:102F100084EB95E00E947A0CCE01CA960E949C0D2B
:102F2000CE01805C9F4F0E949C0D6AE070E080E0C3
:102F300090E00E94E1030E944305A8CBCE01CA960F
:102F40000E948E0B882309F414CECE01CA960E94EB
:102F50006E0B6230710508F0A5CF60936B0381E0C2
:102F600090E00E940E199ECFCE01CA960E948E0B51
:102F7000882309F407CEBE01665C7F4FCE0101961F
:102F80000E94F10C30E020E04AE3BE016F5F7F4F0A
:102F9000CE01C4960E940B0DCE0101960E949C0D9D
:102FA000BE01665C7F4FCE0101960E94F10C21E0CC
:102FB00030E04AE3BE016F5F7F4FCE018E960E94E4
:102FC0000B0DCE0101960E949C0DBE01665C7F4FE9
:102FD000CE0182960E94F10C22E030E04AE3BE016D
:102FE0006E5D7F4FCE0101960E940B0D30E020E018
:102FF0004FE5BE016F5F7F4FCE0188960E940B0D9B
:10300000CE0101960E949C0DCE0182960E949C0DDD
:10301000CE01C4960E948E0B882309F44DC0CE01C8
:103020008E960E948E0B882309F446C0CE01C4966A
:103030000E946E0B2A966CAF7DAF8EAF9FAF2A9722
:10304000CE018E960E946E0B4B01CE0188960E9497
:103050006E0B6B0128968EAD9FAD28970197479711
:1030600058F5C4010197CB9738F5C6010197CB9766
:1030700018F5CE0101960E94DC098F8190E03E8117
:103080002D81843691050CF448C0825B9740809373
:10309000670330936603209365032796FFAD279758
:1030A000F093630380926203C092610381E693E030
:1030B0000E9400080E944B07BE016C5C7F4FCE014E
:1030C00001960E94F10C68ED72E0CE0101960E941B
:1030D000300CBE01625D7F4F0E94460C68ED72E0CD
:1030E0000E94300CBE01685D7F4F0E94460CBC01FF
:1030F00083E095E00E94570BCE0101960E949C0D43
:10310000CE0188960E949C0DCE018E960E949C0D49
:10311000CE01C4960E949C0DC5CE4E96B8CF4E9659
:10312000C3CD84EB95E00C949C0D1F93FC01992773
:103130008827BC01E89411911032E9F3193010F09E
:103140001E30C8F31B3251F01D3249F4689406C09A
:103150000E94C718610F711D811D911D119110539F
:103160001A30B0F33EF490958095709561957F4F3D
:103170008F4F9F4F1F910895BB274A3031F49923F9
:1031800022F4BDE2909581959F4F0C94DD18592F44
:10319000482F372F262F660F771F881F991F660F1E
:1031A000771F881F991F620F731F841F951F660F5B
:1031B000771F881F991F0895BB27FB015527AA2752
:1031C000880F991FAA1FA41710F0A41B83955051B4
:1031D000B9F7A05DAA3308F0A95DA193009779F72C
:1031E000B111B1931192CB010C94F618DC01FC01E2
:1031F000672F71917723E1F7329704C07C916D932B
:1032000070836291AE17BF07C8F30895F999FECF96
:1032100092BD81BDF89A992780B50895262FF99916
:10322000FECF1FBA92BD81BD20BD0FB6F894FA9AA9
:10323000F99A0FBE01960895052E97FB1EF400948F
:103240000E94331957FD07D00E944E1907FC03D086
:103250004EF40C94331950954095309521953F4F7D
:103260004F4F5F4F089590958095709561957F4F72
:103270008F4F9F4F08950E947019A59F900DB49F86
:10328000900DA49F800D911D11240895B7FF0C94FB
:103290003B190E943B19821B930B0895A1E21A2E41
:1032A000AA1BBB1BFD010DC0AA1FBB1FEE1FFF1FEA
:1032B000A217B307E407F50720F0A21BB30BE40B3A
:1032C000F50B661F771F881F991F1A9469F7609581
:1032D0007095809590959B01AC01BD01CF0108953B
:1032E000A29FB001B39FC001A39F700D811D112447
:1032F000911DB29F700D811D1124911D0895991B80
:1033000079E004C0991F961708F0961B881F7A95DC
:10331000C9F78095089597FB072E16F4009407D0FF
:1033200077FD09D00E94AE1907FC05D03EF49095B8
:1033300081959F4F0895709561957F4F0895EE0F89
:10334000FF1F881F8BBF0790F691E02D19940E94F4
:103350007019B7FF0895821B930B0895AA1BBB1B1E
:1033600051E107C0AA1FBB1FA617B70710F0A61B85
:10337000B70B881F991F5A95A9F780959095BC01A6
:10338000CD0108950F931F93CF93DF938230910562
:1033900010F482E090E0E091BC05F091BD0530E0D2
:1033A00020E0B0E0A0E0309799F42115310509F450
:1033B0004AC0281B390B24303105D8F58A819B81FE
:1033C0006115710589F1FB0193838283FE0111C0B0
:1033D000408151810281138148175907E0F0481755
:1033E000590799F4109761F012960C93129713965F
:1033F0001C933296CF01DF91CF911F910F910895C9
:103400000093BC051093BD05F4CF2115310551F093
:103410004217530738F0A901DB019A01BD01DF0112
:10342000F801C1CFEF01F9CF9093BD058093BC05A2
:10343000CDCFFE01E20FF31F81939193225031090A
:1034400039832883D7CF2091BA053091BB05232B30
:1034500041F420910202309103023093BB05209386
:10346000BA0520910002309101022115310541F485
:103470002DB73EB74091040250910502241B350B35
:10348000E091BA05F091BB05E217F307A0F42E1BFB
:103490003F0B2817390778F0AC014E5F5F4F2417B8
:1034A000350748F04E0F5F1F5093BB054093BA0598
:1034B000819391939FCFF0E0E0E09CCFCF93DF9397
:1034C0000097E9F0FC01329713821282A091BC05AB
:1034D000B091BD05ED0130E020E01097A1F420810E
:1034E0003181820F931F2091BA053091BB052817B7
:1034F000390709F061C0F093BB05E093BA05DF918D
:10350000CF910895EA01CE17DF07E8F54A815B8184
:103510009E0141155105B1F7E901FB83EA83499109
:103520005991C40FD51FEC17FD0761F4808191817B
:103530000296840F951FE901998388838281938184
:103540009B838A83F0E0E0E012968D919C91139723
:103550000097B9F52D913C911197CD010296820FFC
:10356000931F2091BA053091BB052817390739F60A
:10357000309751F51092BD051092BC05B093BB0574
:10358000A093BA05BCCFD383C28340815181840FFD
:10359000951FC817D90761F44E5F5F4F88819981E5
:1035A000480F591F518340838A819B819383828373
:1035B0002115310509F0B0CFF093BD05E093BC05AE
:1035C0009ECFFD01DC01C0CF13821282D7CF4F9274
:1035D0005F926F927F928F929F92AF92BF92CF92A3
:1035E000DF92EF92FF920F931F93CF93DF938C01A3
:1035F000009799F4CB01DF91CF911F910F91FF902C
:10360000EF90DF90CF90BF90AF909F908F907F9082
:103610006F905F904F900C94C219FC01E60FF71F5A
:103620009C0122503109E217F30708F4AEC0D9011A
:10363000CD91DC911197C617D70720F1C530D10580
:1036400078F0CE0104978617970750F0C61BD70B6A
:103650002297C193D1936D937C93CF010E945E1A00
:10366000C801DF91CF911F910F91FF90EF90DF90F4
:10367000CF90BF90AF909F908F907F906F905F9012
:103680004F9008955B01AC1ABD0A4C018C0E9D1E33
:10369000A091BC05B091BD05512C412CF12CE12C21
:1036A000109731F58091BA059091BB058815990561
:1036B00009F05CC04616570608F058C08091000219
:1036C00090910102009741F48DB79EB7409104029A
:1036D00050910502841B950BE817F90708F055C0B7
:1036E000F093BB05E093BA05F90171836083B8CF0D
:1036F0008D919C91119712966C90129713967C90D5
:103700001397A815B90559F56C0142E0C40ED11CF8
:10371000CA14DB0420F1AC014A195B09DA011296E4
:10372000159780F06282738251834083D9016D9333
:103730007C93E114F10471F0D7011396FC93EE939E
:1037400012978ECF22968C0F9D1FF9019183808353
:10375000F301EFCFF093BD05E093BC0581CF481690
:10376000590608F42C017D01D3019ACFCB010E94A8
:10377000C2197C01009749F0AE01B8010E94C81B34
:10378000C8010E945E1A87016BCF10E000E068CF8D
:10379000FB01DC0102C001900D9241505040D8F76E
:1037A0000895FB01DC018D91019080190110D9F37E
:1037B000990B0895FB01DC0101900D920020E1F7C7
:1037C000089511E0CDE6D1E000E006C0802FFE01B3
:1037D0000E949F192196011DCE36D10780E008076F
:0637E000A9F7F894FFCFE9
:1037E6000000BE0580001F1C1F1E1F1E1F1F1E1F60
:1037F6001E1F00000000D6041304590423058A0482
:1038060068047C04000000001907EC064807C90696
:103816006C05D906CA060D0A0025005F00527463BE
:103826004E6F74466F756E64006C6F6700527463FA
:103836005772697465496E697469616C54696D651E
:1038460000215274634368697050726573656E74C3
:1038560000527463466F756E640054696D654C69F9
:10386600625374617475734572726F720054696D38
:10387600654C69625374617475734F6B00312E30F9
:103886002E300076657273696F6E004C65644D6FFD
:103896006465004D0041004F004C32333032313206
:1038A60046000D006374006C656400736200646C0E
:1038B60073007374007364003A3A002E2E002D00D4
:0838C600676F74636D6400007C
:00000001FF
