:100000000C946B010C949C010C949C010C949C012D
:100010000C949C010C949C010C949C010C949C01EC
:100020000C949C010C949C010C949C010C949C01DC
:100030000C949C010C949C010C949C010C949C01CC
:100040000C949C010C949C010C949C010C949C01BC
:100050000C949C010C949C010C949C010C94560DE6
:100060000C949C010C94C60E0C949C0E0C949C0158
:100070000C949C010C949C010C949C010C949C018C
:100080000C949C010C949C010C949C010C949C017C
:100090000C94720E0C94480E0C949C010C94F00E6F
:1000A0000C949C010C949C010C949C010C949C015C
:1000B0000C949C010C949C010C949C010C949C014C
:1000C0000C949C010C949C010C949C010C941E0EAD
:1000D0000C94F40D0C949C010C94CA0D0C94A00D7E
:1000E0000C949C010C942B040C9427030C941B037C
:1000F0000C94A2060C94AA030C9482030C94520252
:100100000C9444020C9414100C9496030C94200745
:100110000C949E010C944D030C9444050C946002C5
:100120000C9448020C9430020C94F1060C9440029A
:100130000C94C8090C943A040C94FF040C94220308
:100140000C945C040C945F030C945C020C943103DB
:100150000C9469030C9421020C94A1060C942902BE
:100160000C944E040C94B4030C941B020C943A02AD
:100170000C94C4060C94DE030C9436020C945B02BF
:100180000C9455030C948C030C9473030C9425026B
:100190000C943B030C944E020C94A0030C94450366
:1001A0000C94B2040C942D020C94B1060C949F0193
:1001B0000C94560200002100240027002A002D0084
:1001C0003000330001010000040107010A010000B2
:1001D0002200250028002B002E00310034000201EF
:1001E0000000050108010B0100002000230026008B
:1001F00029002C002F00320000010000030106013D
:10020000090105050505070508080808020202029C
:100210000A0A0808040404040101010101010101A2
:100220000303030303030303040707070C0C0C0C6D
:100230000C0C0C0C02020202060606060606060656
:100240000B0B0B0B0B0B0B0B0102102020080810E3
:100250002040102040800201020108040201010236
:10026000040810204080804020100804020180040F
:10027000020180402010080402010804020101026A
:100280000408102040800102040810204080000073
:100290000A0B02090C0D0E08070304010000000000
:1002A000000000000000000000000000000000004E
:1002B000000000000000000000001211100000000B
:1002C000000000000000000000000000000000002E
:1002D00000000000141011241FBECFEFD1E2DEBFDA
:1002E000CDBF00E00CBF26E0A4EDB2E001C01D923E
:1002F000A034B207E1F712E0A0E0B2E0E4EAFFE2E6
:1003000000E00BBF02C007900D92A43DB107D9F7E2
:1003100011E0CBE6D1E000E006C021970109802F73
:10032000FE010E949615CA36D10780E00807A9F79A
:100330000E94DF100C94D0170C94000008950895CB
:10034000FC01A089B18982E08C93A485B5851C92BB
:10035000A685B7858FEC8C93108EA489B5896C9394
:10036000A289B3898C9180618C93A289B3898C9185
:1003700088608C93A289B3898C9180688C93028861
:10038000F389E02D80818F7D808308951F93CF9323
:10039000DF93FC01A481B58170E060E04FEF5FEF77
:1003A0006A177B0701F1FC0120813181211531059C
:1003B000C1F0260F371FF9012081E8E0F0E030E0BE
:1003C000E901C42756954795C0FF04C0C8E04C27F3
:1003D000C4E85C2735952795319789F76F5F7F4F84
:1003E000DFCF20E0EACFCA01809590959827892732
:1003F0009827DF91CF911F9108958150823108F0A5
:100400005AC0E82FF0E08827E75FFD4F8F4F0C942C
:10041000961529022D021B02210225025B023002E1
:1004200036023A024002440248024E0252025B0285
:1004300056025C026002809180008F77809380007A
:100440000895809180008F7DF9CF80918000877F13
:10045000F5CF84B58F7784BD089584B58F7DFBCFAC
:100460008091B0008F778093B00008958091B000A4
:100470008F7DF9CF809190008F77809390000895C1
:10048000809190008F7DF9CF80919000877FF5CF8C
:100490008091A0008F778093A00008958091A000A4
:1004A0008F7DF9CF8091A000877FF5CF80912001CB
:1004B0008F77809320010895809120018F7DF9CF5F
:1004C00080912001877FF5CFCF93DF93E0E9F2E0C1
:1004D0008491EAE4F2E0D491E4E0F2E0C491CC2328
:1004E000A1F081110E94FD01EC2FF0E0EE0FFF1F43
:1004F000E851FE4FA591B491EC91ED2381E090E09D
:1005000009F480E0DF91CF91089580E090E0FACF88
:100510001F93CF93DF93282F30E0F901E257FD4F6F
:100520008491F901E85BFD4FD491F901EE5FFD4F35
:10053000C491CC23A9F0162F81110E94FD01EC2F4C
:10054000F0E0EE0FFF1FE253FE4FA591B4918FB77D
:10055000F894EC91111108C0D095DE23DC938FBF85
:10056000DF91CF911F910895DE2BF8CFCF93DF93CA
:1005700090E0FC01E85BFD4F24918E5F9D4FFC01F4
:1005800084918823D1F090E0880F991FFC01EC54EE
:10059000FE4FA591B491FC01E253FE4FC591D49159
:1005A000623071F49FB7F8943C91822F8095832339
:1005B0008C93E8812E2B28839FBFDF91CF910895E4
:1005C0008FB7F894EC912E2B2C938FBFF6CFCF934F
:1005D000DF93EC0161E088E00E94B602209731F4DD
:1005E00060E088E0DF91CF910C948802CF3FD10585
:1005F00011F461E0F6CFE6E9F2E0E491E150E23196
:1006000008F0B2C0F0E08827E75FFC4F8F4F0C94F2
:1006100096151B032203270331033B03B403450351
:100620004D0355035F036903730382038C03B40313
:100630009603A003AA0384B5806884BDC7BDDF917B
:10064000CF91089584B5806284BDC8BDF8CF8091F4
:100650008000806880938000D0938900C0938800D8
:10066000EECF80918000806280938000D0938B00D9
:10067000C0938A00E4CF80918000886080938000DE
:10068000D0938D00C0938C00DACF8091B000806849
:100690008093B000C093B300D2CF8091B00080624D
:1006A0008093B000C093B400CACF8091900080685E
:1006B00080939000D0939900C0939800C0CF809110
:1006C0009000806280939000D0939B00C0939A002A
:1006D000B6CF80919000886080939000D0939D0069
:1006E000C0939C00ACCF8091A00080688093A00054
:1006F0008091A0008F7B8093A000D093A900C0932D
:10070000A8009DCF8091A00080628093A000D0932C
:10071000AB00C093AA0093CF8091A0008860809323
:10072000A000D093AD00C093AC0089CF8091200190
:10073000806880932001D0932901C09328017FCF46
:1007400080912001806280932001D0932B01C0937F
:100750002A0175CF80912001886080932001D09379
:100760002D01C0932C016BCFC038D1050CF041CFC7
:1007700037CF3FB7F8948091620390916303A091C3
:100780006403B091650326B5A89B05C02F3F19F0FF
:100790000196A11DB11D3FBFBA2FA92F982F882701
:1007A000BC01CD01620F711D811D911D42E0660FDC
:1007B000771F881F991F4A95D1F70895AF92BF926E
:1007C000CF92DF92EF92FF920F931F93CF93DF931D
:1007D0006C017B018B01040F151FEB015E01AE184C
:1007E000BF08C017D10759F06991D601ED91FC916E
:1007F0000190F081E02DC6011995892B79F7C5018B
:10080000DF91CF911F910F91FF90EF90DF90CF90EC
:10081000BF90AF900895FB01448155816081718143
:100820000C94DE03FC01A089B1898C91A689B7895B
:1008300082FD0FC09C91818D8F5F8F73228D8217F7
:1008400049F0A18DAE0FBF2FB11D5D969C93818F96
:1008500008958C910895FC01538D448D252F30E02F
:10086000842F90E0821B930B541710F0CF960895BD
:1008700001970895FC01918D828D981761F0A28DEA
:10088000AE0FBF2FB11D5D968C91928D9F5F9F73B0
:10089000928F90E008958FEF9FEF0895FC01918D66
:1008A000828D981731F0828DE80FF11D858D90E0D3
:1008B00008958FEF9FEF0895FC01918D228D892F70
:1008C00090E0805C9F4F821B91098F739927089558
:1008D00084EB93E00E945C0421E0892B09F420E082
:1008E000822F089581E594E00E945C0421E0892B29
:1008F00009F420E0822F08958EEE94E00E945C04BB
:1009000021E0892B09F420E0822F08958BE895E0FF
:100910000E945C0421E0892B09F420E0822F0895D5
:10092000FC01A48DA80FB92FB11DA35ABF4F2C9164
:10093000848D90E001968F739927848FA689B7895B
:100940002C93A089B1898C91837080648C93938D52
:10095000848D981306C00288F389E02D80818F7DF5
:1009600080830895EF92FF920F931F93CF93DF93AD
:10097000EC0181E0888F9B8D8C8D98131AC0E889DB
:10098000F989808185FF15C09FB7F894EE89FF89AA
:100990006083E889F98980818370806480839FBF48
:1009A00081E090E0DF91CF911F910F91FF90EF9048
:1009B0000895F62E0B8D10E00F5F1F4F0F73112758
:1009C000E02E8C8D8E110CC00FB607FCFACFE88993
:1009D000F989808185FFF5CFCE010E949004F1CF87
:1009E000EB8DEC0FFD2FF11DE35AFF4FF0829FB707
:1009F000F8940B8FEA89FB8980818062CFCFCF93F7
:100A0000DF93EC01888D8823B9F0AA89BB89E88936
:100A1000F9898C9185FD03C0808186FD0DC00FB6DC
:100A200007FCF7CF8C9185FFF2CF808185FFEDCF5A
:100A3000CE010E949004E9CFDF91CF91089580E02C
:100A400090E0892B29F00E94860481110E94000009
:100A500080E090E0892B29F00E947C0481110E94A3
:100A6000000080E090E0892B29F00E94720481113F
:100A70000E94000080E090E0892B29F00E94680429
:100A800081110C940000089580912E0690912F06FC
:100A9000891B990B08952091FD02260F3327331FE0
:100AA00021323105ECF420918C03FC0190E080E0D0
:100AB000243069F082E00895A091FD022191AC01FB
:100AC00043525D4FA40FB52FB11D2C93019686178D
:100AD00098F38091FD02680F6093FD0280E0089515
:100AE00081E0089510928C0381E080938B03109233
:100AF000660361E084E10E94880261E085E10E9472
:100B00008802E9EBF0E080818E7F808380818D7F99
:100B1000808388E48093B80085E48093BC000895C6
:100B2000CF93DF9391E09093DC028823B9F0C091DA
:100B3000B800D091BA008091BC008A7B8093BC0041
:100B400060E084E10E94880260E085E10E94880202
:100B50000E947205D093BA00C093B800DF91CF9184
:100B600008958F929F92AF92BF92CF92DF92EF92B1
:100B7000FF920F931F93CF93DF93D0912C06D13226
:100B800008F0D7C0182FC091B3030E94B9036B01BE
:100B90007C0180918C0381116BC082E080938C0377
:100BA00010938B038FEF80938A0310928903D09365
:100BB0008803A3E9B3E0E8E6F3E080E0D81391C04E
:100BC0001092670380916703CC0FC82BC093670313
:100BD00080916603813009F088C0109266030E94FC
:100BE000B9036B017C01809167038093BB00809106
:100BF0008E0390918F03A0919003B0919103892B64
:100C00008A2B8B2BA1F00E94B90300918E031091C7
:100C10008F0320919003309191036C197D098E0907
:100C20009F09061717072807390708F442C0809163
:100C3000BC0083FDD8CF85EC8093BC000E94B90333
:100C40006B017C0180918C03823009F450C080914B
:100C50008A038F3F09F46FC080918A03803209F4C0
:100C60006CC080918A03803309F469C084E026C097
:100C700080918E0390918F03A0919003B091910386
:100C8000892B8A2B8B2B09F484CF0E94B903809087
:100C90008E0390908F03A0909003B09091036C19F5
:100CA0007D098E099F0986169706A806B90608F0E1
:100CB00070CF80918D030E94900585E010922D06E3
:100CC00010922C0610929203DF91CF911F910F91F9
:100CD000FF90EF90DF90CF90BF90AF909F908F905C
:100CE00008959D9191938F5F69CF85EEA5CF8091F7
:100CF0008E0390918F03A0919003B0919103892B63
:100D00008A2B8B2B09F49ECF0E94B90300918E038E
:100D100010918F0320919003309191036C197D09FC
:100D20008E099F09061717072807390708F08ACF89
:100D3000C0CF81E0C3CF80E0C1CF82E0BFCF83E0EE
:100D4000BDCF0895E0912F0680912E06E81730F46C
:100D5000F0E0E05EFC4F808190E008958FEF9FEF20
:100D6000089590912F0680912E062FEF3FEF981750
:100D700048F4E92FF0E0E05EFC4F208130E09F5F17
:100D800090932F06C9010895CF92DF92EF92FF92C0
:100D90000F931F93CF93DF937C01CB018A012091A6
:100DA0009203222389F0EB016B01C40ED51ECC15F2
:100DB000DD0569F06991D701ED91FC910190F08119
:100DC000E02DC7011995F3CF642F0E944B05C80190
:100DD000DF91CF911F910F91FF90EF90DF90CF9017
:100DE0000895CF93DF931F92CDB7DEB7698320912B
:100DF00092032223F9F020912C06203258F021E0B2
:100E000030E0FC013383228390E080E00F90DF919B
:100E1000CF91089580912D06E82FF0E0ED56FC4F1C
:100E2000998190838F5F80932D0680932C0681E0BB
:100E300090E0ECCF61E0CE0101960E944B05F7CF28
:100E400090E080E00895609344037093450380939D
:100E5000460390934703645D7E4F8F4F9F4F60938F
:100E6000400370934103809342039093430382E0D5
:100E700090E090934C0380934B032FB7F8948091AC
:100E80005E0390915F03A0916003B09161032FBF57
:100E90008093D8029093D902A093DA02B093DB0238
:100EA00008950F931F938FB7F89400915E031091EC
:100EB0005F0320916003309161038FBF4091D8029E
:100EC0005091D9026091DA027091DB02041B150B7C
:100ED000260B370B8091440390914503A091460364
:100EE000B0914703083E134021053105C0F001963B
:100EF000A11DB11D8093440390934503A093460325
:100F0000B093470348515C4F6F4F7F4F4093D802D7
:100F10005093D9026093DA027093DB02C4CF409100
:100F20004003509141036091420370914303841741
:100F30009507A607B70770F0E0914803F0914903C1
:100F4000309741F01995611571058105910569F09A
:100F50000E942307609144037091450380914603EA
:100F6000909147031F910F910895809144039091B0
:100F70004503A0914603B0914703845D9E4FAF4F58
:100F8000BF4F8093400390934103A0934203B093DB
:100F9000430381E090E020914B0330914C03232BDD
:100FA00011F490E080E090934C0380934B03D2CFF8
:100FB0004F925F926F927F928F929F92AF92BF9269
:100FC000CF92DF92EF92FF920F931F93CF93DF9315
:100FD000FC011681A12FB0E020E833E341EE51E09F
:100FE0000E943A154B015C01C2EBD7E09D0104E67B
:100FF00010E080E9E82EFF24F394CE01825B974055
:10100000821793079CF14580512C2E54384FC9010B
:1010100064E670E00E9460157C01C90160E971E03E
:101020000E9460156C0106E012E0C1E0D0E03901D9
:1010300083E068227724C415D5050CF040C0C23087
:10104000D10571F56114710459F5E114F10419F435
:10105000C114D10429F5B0E88B0EBBE39B1EB6E2A8
:10106000AB1EB11C21960F5F1F4FE5CFCE018370E1
:101070009927892B99F4CE01B8010E946015892B1C
:1010800031F4CE01B7010E946015892B39F4A0E834
:101090008A0EA1E59A1EA1E0AA1EB11C2196ADCF31
:1010A000D8018C91A82FB0E020E831E541E050E074
:1010B0000E943A15860E971EA81EB91ED3CF228114
:1010C00030E0A0E1BEE00E9445156B017C0121816A
:1010D00030E0ACE3B0E00E944515C60ED71EE81E16
:1010E000F91E8081C80ED11CE11CF11CA481A15005
:1010F000BB0B20E831E541E050E00E949E156C0DED
:101100007D1D8E1D9F1D680D791D8A1D9B1DDF9104
:10111000CF911F910F91FF90EF90DF90CF90BF90F4
:10112000AF909F908F907F906F905F904F900895B9
:101130004F925F926F927F928F929F92AF92BF92E7
:10114000CF92DF92EF92FF920F931F93CF93DF9393
:101150004B015C018091D4029091D502A091D602FE
:10116000B091D70288159905AA05BB0509F4C6C038
:101170008CE3C82ED12CE12CF12CC501A7019601DE
:101180000E94741560934D03CA01B901A70196012D
:101190000E94741560934E03C501B40120E13EE046
:1011A00040E050E00E947415CA01B90128E130E026
:1011B00040E050E00E94741560934F03C501B401F4
:1011C00020E831E541E050E00E94741569017A01A0
:1011D000CA01B9016C5F7F4F8F4F9F4F27E030E00E
:1011E00040E050E00E9474156F5F60935003412C03
:1011F000512C320140E004E610E0C0E9D1E0242F98
:1012000030E02E54384FF901E370FF273097F9F49E
:10121000C901B8010E946015892B31F4C901BE01D2
:101220000E946015892B99F48EE691E0A0E0B0E071
:10123000480E591E6A1E7B1ED301C201AA27BB2776
:10124000C816D906EA06FB0638F04F5FD8CF8DE600
:1012500091E0A0E0B0E0ECCF40935303C90164E615
:1012600070E00E946015EC01C90160E971E00E9424
:101270006015309721F42097D9F40097C9F04DE616
:1012800051E060E070E0441A550A660A770AC41813
:10129000D508E608F708A6E0B2E020E0213069F4BE
:1012A0003097E9F5209711F40097C9F54DE106C094
:1012B0004EE651E060E070E0E6CF4C9150E070E027
:1012C00060E031E0320FC416D506E606F70640F0BE
:1012D000C41AD50AE60AF70A1196232F3C30F1F614
:1012E0002F5F20935203C394C09251038092D40283
:1012F0009092D502A092D602B092D702DF91CF9100
:101300001F910F91FF90EF90DF90CF90BF90AF9023
:101310009F908F907F906F905F904F9008954CE1D9
:10132000CDCF66E00E945415911103C01092550371
:10133000089584E1913051F082E3923039F086E9EA
:10134000933021F088EC943009F08FEF80935503AF
:10135000089542E050E066E372E00C94DE03CF9320
:10136000DF93FC0101900020E9F73197AF01481BA2
:10137000590BBC018BE895E00E94DE03EC018BE881
:1013800095E00E94A9098C0F9D1FDF91CF910895D0
:101390008F929F92AF92BF92CF92DF92EF92FF9285
:1013A0000F931F93CF93DF9300D000D01F92CDB740
:1013B000DEB701E00093920388E68093B3031092B6
:1013C0002D0610922C0660E080E396E00E94F10664
:1013D00081E00E94B105182F8823C1F010924A03C2
:1013E00060E070E0CB0127960FB6F894DEBF0FBE29
:1013F000CDBFDF91CF911F910F91FF90EF90DF90C4
:10140000CF90BF90AF909F908F90089500934A0324
:101410000E94B9036B017C0180918C03811164C02F
:1014200081E080938C0380938B039FEF90938A03DA
:101430001092890396E090938803809367038091CC
:101440006703806D8093670380916603813009F0A4
:10145000D6C0109266030E94B9036B017C01809193
:1014600067038093BB0080918E0390918F03A091BE
:101470009003B0919103892B8A2B8B2BA1F00E94B2
:10148000B90380908E0390908F03A0909003B0904A
:1014900091036C197D098E099F0986169706A80687
:1014A000B90608F442C08091BC0083FDD8CF85EC1A
:1014B0008093BC000E94B9036B017C0180918C0376
:1014C000813009F49EC080918903873008F0BBC049
:1014D00080918903A8E6B3E0E0E2F3E0181749F150
:1014E0009D9191931F5FFACF80918E0390918F030E
:1014F000A0919003B0919103892B8A2B8B2B09F437
:101500008BCF0E94B90380908E0390908F03A090A0
:101510009003B09091036C197D098E099F0986167E
:101520009706A806B90608F077CF80918D030E9430
:10153000900510922F0610932E06173008F450CF06
:1015400080E396E00E94B106082F982F929597703D
:101550001AE0802F8F70919F800D1124898380E382
:1015600096E00E94B106982F92959F708F70919F80
:10157000800D11248A8380E396E00E94B106982FA3
:10158000929593708F70919F800D11248B8380E3CF
:1015900096E00E94B106982F92959F708F70919F50
:1015A000800D11248C8380E396E00E94B106982F71
:1015B00092959F708F70919F800D11248D8380E391
:1015C00096E00E94B106982F92959F708F70919F20
:1015D000800D11248E8380E396E00E94B106982F3F
:1015E0009F70925E82958F70819F900D11249F83D2
:1015F00007FDF6CECE0101960E94D807F4CE85EE07
:1016000057CF80918E0390918F03A0919003B0915A
:101610009103892B8A2B8B2B09F450CF0E94B9039D
:1016200080908E0390908F03A0909003B0909103D0
:101630006C197D098E099F0986169706A806B906BA
:1016400008F03CCF72CF87E045CF0F931F93CF9325
:10165000DF93EC0188819981009759F02A813B81C1
:101660002617370730F081E0DF91CF911F910F915E
:1016700008958B016F5F7F4F0E94DF16009759F02E
:10168000998388831B830A832C813D81232B59F7FF
:10169000FC011082E8CF80E0E7CFEF92FF920F933A
:1016A0001F93CF93DF936115710541F480E0DF91C3
:1016B000CF911F910F91FF90EF9008954115510523
:1016C000B1F07B01EC010C811D81040F151FB801E5
:1016D0000E94250B882351F3288139818C819D81BB
:1016E000B701820F931F0E94C9171D830C8381E0ED
:1016F000DECFCF93DF93EC0188819981009711F0C1
:101700000E945616198218821D821C821B821A8220
:10171000DF91CF910895EF92FF920F931F93CF9394
:10172000DF9300D000D01F92CDB7DEB77C01CB0194
:101730004AE08E010F5F1F4FB8010E94FA14F801B2
:1017400001900020E9F73197AF01401B510BB80120
:10175000C7010E944D0B811103C0C7010E94790B84
:10176000C70127960FB6F894DEBF0FBECDBFDF913D
:10177000CF911F910F91FF90EF900895CF93DF933A
:10178000EC01FB0101900020E9F73197AF01461B06
:10179000570B0E944D0B811103C0CE010E94790BA3
:1017A000CE01DF91CF910895CF93DF93EC01FB0140
:1017B00044815581608171810E944D0B811103C06C
:1017C000CE010E94790BCE01DF91CF910895EF9267
:1017D000FF920F931F93CF93DF93EC017B018A015C
:1017E000BA010E94250B81110BC0CE010E94790B1A
:1017F000CE01DF91CF911F910F91FF90EF9008954F
:101800001D830C83B701888199810E94C917F0CF8D
:10181000EF92FF920F931F93CF93DF93CDB7DEB775
:1018200062970FB6F894DEBF0FBECDBF8C01CB011F
:10183000F8011182108213821282158214824AE00A
:101840009E012F5F3F4F7901B9010E94EF14F7010C
:1018500001900020E9F73197AF014E195F09B701F8
:10186000C8010E94E70B62960FB6F894DEBF0FBE68
:10187000CDBFDF91CF911F910F91FF90EF90089511
:10188000CF93DF93EC01FB018617970749F0608146
:1018900071816115710541F0448155810E94E70B0A
:1018A000CE01DF91CF9108950E94790BF9CFFC0111
:1018B0001182108213821282158214820C94400CC1
:1018C000FC01118210821382128215821482FB01A4
:1018D00001900020E9F73197AF01461B570B0C949C
:1018E000E70BFC0180819181009711F00C94561652
:1018F0000895CF92DF92EF92FF920F931F93CF93B1
:10190000DF93CDB7DEB762970FB6F894DEBF0FBE98
:10191000CDBF7C018B01BC01CE0107960E94570C04
:10192000B801CE0107960E94D40BBC01CE010D96E2
:101930000E94570CCE010D960E94C6016C0169E30E
:1019400072E0CE0101960E94600CB701CE010196B3
:101950000E94D40B62ED72E00E94BE0BB8010E949F
:10196000D40B62ED72E00E94BE0BB6010E948B0B9D
:10197000BC018BE895E00E940B048BE895E00E9487
:10198000A909CE0101960E94710CCE010D960E940C
:10199000710CCE0107960E94710CB701CE0107961B
:1019A0000E94570CB801CE0107960E94D40BBC01CF
:1019B000CE010D960E94570CCE010D960E94C601D5
:1019C0006C0169E372E0CE0101960E94600CB701E0
:1019D000CE0101960E94D40B62ED72E00E94BE0B14
:1019E000B8010E94D40B62ED72E00E94BE0BB601FA
:1019F0000E948B0BBC0184EB93E00E940B0484EBF0
:101A000093E00E94A909CE0101960E94710CCE01BB
:101A10000D960E94710CCE0107960E94710C629681
:101A20000FB6F894DEBF0FBECDBFDF91CF911F91EF
:101A30000F91FF90EF90DF90CF90089585ED809308
:101A4000BC0080918E0390918F03A0919003B09180
:101A500091030796A11DB11D23E0B695A795979513
:101A600087952A95D1F72091BC0024FD03C01092E0
:101A70008C03089540918E0350918F0360919003E1
:101A800070919103452B462B472B69F30097A105D5
:101A9000B10541F02AE22A95F1F700C00197A109AA
:101AA000B109E1CF80918D030C9490051F920F92A4
:101AB0000FB60F9211242F933F938F939F93AF9361
:101AC000BF9380915E0390915F03A0916003B091FA
:101AD000610330915D0323E0230F2D3758F5019604
:101AE000A11DB11D20935D0380935E0390935F035E
:101AF000A0936003B09361038091620390916303AC
:101B0000A0916403B09165030196A11DB11D80935E
:101B1000620390936303A0936403B0936503BF9142
:101B2000AF919F918F913F912F910F900FBE0F908A
:101B30001F90189526E8230F0296A11DB11DD2CF44
:101B40001F920F920FB60F9211240BB60F922F9384
:101B50003F934F935F936F937F938F939F93AF9335
:101B6000BF93EF93FF9384EB93E00E949004FF9167
:101B7000EF91BF91AF919F918F917F916F915F9105
:101B80004F913F912F910F900BBE0F900FBE0F9072
:101B90001F9018951F920F920FB60F9211240BB63B
:101BA0000F922F933F934F935F936F937F938F93F6
:101BB0009F93AF93BF93EF93FF9384EB93E00E94C7
:101BC0001204FF91EF91BF91AF919F918F917F91FF
:101BD0006F915F914F913F912F910F900BBE0F909E
:101BE0000FBE0F901F9018951F920F920FB60F9275
:101BF00011240BB60F922F933F934F935F936F93E4
:101C00007F938F939F93AF93BF93EF93FF9381E560
:101C100094E00E949004FF91EF91BF91AF919F914A
:101C20008F917F916F915F914F913F912F910F9085
:101C30000BBE0F900FBE0F901F9018951F920F9222
:101C40000FB60F9211240BB60F922F933F934F9321
:101C50005F936F937F938F939F93AF93BF93EF9314
:101C6000FF9381E594E00E941204FF91EF91BF91F0
:101C7000AF919F918F917F916F915F914F913F9124
:101C80002F910F900BBE0F900FBE0F901F901895C5
:101C90001F920F920FB60F9211240BB60F922F9333
:101CA0003F934F935F936F937F938F939F93AF93E4
:101CB000BF93EF93FF938EEE94E00E949004FF9108
:101CC000EF91BF91AF919F918F917F916F915F91B4
:101CD0004F913F912F910F900BBE0F900FBE0F9021
:101CE0001F9018951F920F920FB60F9211240BB6EA
:101CF0000F922F933F934F935F936F937F938F93A5
:101D00009F93AF93BF93EF93FF938EEE94E00E9467
:101D10001204FF91EF91BF91AF919F918F917F91AD
:101D20006F915F914F913F912F910F900BBE0F904C
:101D30000FBE0F901F9018951F920F920FB60F9223
:101D400011240BB60F922F933F934F935F936F9392
:101D50007F938F939F93AF93BF93EF93FF938BE802
:101D600095E00E949004FF91EF91BF91AF919F91F8
:101D70008F917F916F915F914F913F912F910F9034
:101D80000BBE0F900FBE0F901F9018951F920F92D1
:101D90000FB60F9211240BB60F922F933F934F93D0
:101DA0005F936F937F938F939F93AF93BF93EF93C3
:101DB000FF938BE895E00E941204FF91EF91BF9191
:101DC000AF919F918F917F916F915F914F913F91D3
:101DD0002F910F900BBE0F900FBE0F901F90189574
:101DE0001F920F920FB60F9211240BB60F922F93E2
:101DF0003F934F935F936F937F938F939F93AF9393
:101E0000BF93EF93FF938091B900887F803609F4E8
:101E10004DC008F040C0883209F4A9C028F58031CF
:101E200009F49DC0C8F4882309F4FBC0883009F484
:101E300096C0FF91EF91BF91AF919F918F917F914C
:101E40006F915F914F913F912F910F900BBE0F902B
:101E50000FBE0F901F901895883109F488C080320A
:101E600041F780938A0314C0803409F49DC040F484
:101E70008033B9F38833E9F680938A0385ECB0C0E8
:101E8000803509F485C0883509F496C0883489F610
:101E90000E941E0DCECF883909F48CC038F58837E2
:101EA00029F050F4883611F0803719F683E08093DA
:101EB0008C0310921F0357C0883809F47BC0803907
:101EC00019F0803809F0B5CF80911F03803208F0F7
:101ED00071C0E0911F0381E08E0F80931F038091FA
:101EE000BB00F0E0E150FD4F80833DC0803B39F006
:101EF000E0F4803A09F479C0883A09F09ACF84E096
:101F000080938C031092FE021092FD02E09128064D
:101F1000F091290619958091FD0281110FC081E091
:101F20008093FD021092DD0209C0803C09F4A6CF27
:101F3000883C09F4A3CF883B09F07BCFE091FE02F7
:101F400081E08E0F8093FE02F0E0E352FD4F80812E
:101F50008093BB009091FE028091FD0229C0809188
:101F600067038093BB0085EC8093BC0062CF9091A7
:101F7000890380918803981758F5E091890381E0DF
:101F80008E0F80938903F0E0E859FC4F8081E9CF00
:101F9000E091890381E08E0F809389038091BB00DB
:101FA000F0E0E859FC4F8083909189038091880389
:101FB0009817C8F285E8D8CFE091890381E08E0FA9
:101FC000809389038091BB00F0E0E859FC4F808347
:101FD00080918B0381115CCF81E08093660384EA5A
:101FE0008093BC0010928C0324CF85EC8093BC00BE
:101FF00010928C0380911F03803230F4E0911F0314
:10200000F0E0E150FD4F108260911F0370E0E0911D
:102010002A06F0912B068FEF92E0199510921F037C
:1020200008CF10928A0334CFCF92DF92EF92FF92C3
:10203000E4EBF3E01382128288EEC82E83E0D82E00
:10204000E12CF12CC482D582E682F78286E192E00F
:102050009183808325E331E03587248724E331E0D1
:102060003787268720E331E0318B208B21E331E075
:10207000338B228B22E331E0358B248B26E331E056
:10208000378B268B118E128E138E148EE1E5F4E0C1
:1020900013821282C482D582E682F7829183808382
:1020A00025ED30E03587248724ED30E0378726871B
:1020B00020ED30E0318B208B21ED30E0338B228B13
:1020C00022ED30E0358B248B26ED30E0378B268BEC
:1020D000118E128E138E148EEEEEF4E013821282A5
:1020E000C482D582E682F782918380832DEC30E032
:1020F000358724872CEC30E03787268728EC30E0C2
:10210000318B208B29EC30E0338B228B2AEC30E0B2
:10211000358B248B2EEC30E0378B268B118E128E74
:10212000138E148EEBE8F5E013821282C482D582FE
:10213000E682F7829183808385EC90E0958784879F
:1021400084EC90E09787868780EC90E0918B808B81
:1021500081EC90E0938B828B82EC90E0958B848B6A
:1021600086EC90E0978B868B118E128E138E148ED8
:1021700010922F0610922E0610922D0610922C0609
:102180000E9472058EE991E09093290680932806BB
:102190008FE991E090932B0680932A06E0E3F6E026
:1021A00013821282C482D582E682F78288E292E0AC
:1021B00091838083FF90EF90DF90CF900895CF932D
:1021C000DF93CDB7DEB7AA970FB6F894DEBF0FBE88
:1021D000CDBF789484B5826084BD84B5816084BDB0
:1021E00085B5826085BD85B5816085BD80916E00B5
:1021F000816080936E0010928100809181008260E6
:102200008093810080918100816080938100809122
:1022100080008160809380008091B1008460809311
:10222000B1008091B00081608093B00080919100F6
:1022300082608093910080919100816080939100F1
:10224000809190008160809390008091A1008260D5
:102250008093A1008091A10081608093A100809172
:10226000A00081608093A000809121018260809312
:1022700021018091210181608093210180912001C1
:1022800081608093200180917A00846080937A003D
:1022900080917A00826080937A0080917A008160D8
:1022A00080937A0080917A00806880937A001092FF
:1022B000C10066E08BE895E00E94A00164E28EEE2A
:1022C00094E00E94A00164E281E594E00E94A001F4
:1022D00066E084EB93E00E94A00162E082E00E944D
:1022E000B60261E088E00E94B60290E080E00E94C1
:1022F000E70290E080E00E942415182F80935B0392
:1023000081E090E00E94241580935603812F0E9463
:10231000910910922F0610922E0610922D061092FF
:102320002C060E9472058EE991E090932906809315
:1023300028068FE991E090932B0680932A0611E0FE
:102340001093920308E60093B30381E00E94B10565
:102350006BE372E081118DC080914A03811134C01A
:102360006FE572E0CE0101960E94600C67E472E0B6
:10237000CE0107960E94600CBE016F5F7F4FCE01B9
:1023800007960E94790CCE0107960E94710CCE012F
:1023900001960E94710C88EC99E090934903809318
:1023A00048038091440390914503A0914603B09166
:1023B00047038093400390934103A0934203B0935B
:1023C00043030E94510753C060E672E0CE010196BC
:1023D0000E94600C67E472E0CE0107960E94600CD8
:1023E000BE016F5F7F4FCE0107960E94790CCE0130
:1023F00007960E94710CCE0101960E94710C1093F9
:1024000092030093B30310922D0610922C0660E005
:1024100080E396E00E94F10660E880E396E00E9487
:10242000F10660E080E396E00E94F10660E080E360
:1024300096E00E94F10664E080E396E00E94F106D7
:1024400061E080E396E00E94F10661E080E396E0BF
:102450000E94F10666E680E396E00E94F10681E0C4
:102460000E94B105882309F43AC210924A036FE62C
:1024700072E0CE0101960E94600C67E472E0CE012A
:1024800007960E94600CBE016F5F7F4FCE010796DA
:102490000E94790CCE0107960E94710CCE01019624
:1024A0000E94710C0E94510780914B0390914C0344
:1024B00068E772E0029711F46BE872E0CE010196D2
:1024C0000E94600C67E472E0CE0107960E94600CE7
:1024D000BE016F5F7F4FCE0107960E94790CCE013F
:1024E00007960E94710CCE0101960E94710C6BE957
:1024F00072E0CE0101960E94600C61EA72E0CE01AA
:1025000007960E94600CBE016F5F7F4FCE01079659
:102510000E94790CCE0107960E94710CCE010196A3
:102520000E94710CDD24D39495E3C92E0CE310E0D6
:1025300028E1E22EF12C0E946402892B09F01AC2D4
:1025400080915C03882309F415C210925C0380918A
:102550005B038F5F873008F015C280935B0389EAC5
:1025600092E00E94AF0960915B0390E080E00E94DE
:102570002C1580915B030E9491092FB7F8948091EC
:102580005E0390915F03A0916003B09161032FBF40
:1025900040915703509158036091590370915A0329
:1025A0004C015D01841A950AA60AB70AB501A40177
:1025B000483E53406105710508F450C180935703AC
:1025C00090935803A0935903B0935A030E94510764
:1025D00080914B0390914C03029709F0D6C10E9461
:1025E00051070E94980880915603882361F00E9449
:1025F00051070E9498080E9451070E9498080E9463
:1026000051070E9498080E9451070E9498088090E4
:102610004D03912C0E9451070E949808A0904E03F0
:10262000B12CC401B8010E9460154C01BC01CE015F
:1026300085960E94080C8AE088169104B4F46FE92C
:1026400072E0CE0101960E94600CBE016B5D7F4F6F
:10265000CE0101960E94D40BBC01CE0185960E944A
:10266000400CCE0101960E94710CC501B8010E9478
:1026700060154C01BC01CE014F960E94080C2AE067
:1026800082169104B4F46FE972E0CE0101960E94C3
:10269000600CBE01615E7F4FCE0101960E94D40B9B
:1026A000BC01CE014F960E94400CCE0101960E94C3
:1026B000710CC501B7010E9460155C01BC01CE011F
:1026C00049960E94080C8AE0A816B104B4F46FE998
:1026D00072E0CE0101960E94600CBE01675E7F4FE2
:1026E000CE0101960E94D40BBC01CE0149960E94F6
:1026F000400CCE0101960E94710C6DEA72E0CE0191
:1027000043960E94600C41E050E06FEA72E0CE0117
:1027100043960E94E70B61EB72E0CE0101960E94A6
:10272000600CBE016D5E7F4FCE0101960E94D40BFE
:1027300063EB72E00E94BE0BBE01675E7F4F0E949A
:10274000D40BBE01615E7F4F0E94D40BBE016B5D56
:102750007F4F0E94D40B6CEB72E00E94BE0BBC0159
:1027600081E594E00E940B04CE0101960E94710C59
:1027700061EB72E0CE0101960E94600CBE016D5EBD
:102780007F4FCE0101960E94D40B63EB72E00E9452
:10279000BE0BBE01675E7F4F0E94D40BBE01615E1F
:1027A0007F4F0E94D40BBE016B5D7F4F0E94D40B04
:1027B0006CEB72E00E94BE0BBC0184EB93E00E94C4
:1027C0000B04CE0101960E94710CBE01675E7F4F23
:1027D000CE0107960E94570C6EEB72E0CE01079671
:1027E0000E94BE0BBE01615E7F4F0E94D40B6EEB58
:1027F00072E00E94BE0BBE016B5D7F4F0E94D40B46
:10280000BC01CE010D960E94570C60EC72E0CE0127
:1028100001960E94600CBE01635F7F4FCE0101965E
:102820000E94790CCE0101960E94710CCE010D968A
:102830000E94710CCE0107960E94710CCE01439646
:102840000E94710CCE0149960E94710CCE014F96E8
:102850000E94710CCE0185960E94710C2091550347
:1028600080915403281708F0A9C0281B330B37FFA9
:1028700003C0319521953109253131050CF49CC0F7
:102880008350809354038091540390E00E94E702A8
:102890000E94B9032B013C018EE1882E912CA12CC2
:1028A000B12C0E94B9036419750986099709683E1D
:1028B000734081059105A8F321E0821A9108A108CF
:1028C000B10888EE480E83E0581E611C711C81140B
:1028D0009104A104B10429F70E941F052CCE109386
:1028E0004A031093920310922D0610922C0660E07A
:1028F00080E396E00E94F10660E080E396E00E94AB
:10290000F10681E00E94B1058111AFCD88EC99E01C
:102910009093490380934803809144039091450329
:10292000A0914603B09147038093400390934103E5
:10293000A0934203B09343030E9451076BE472E0FB
:10294000CE0101960E94600C67E472E0CE0107960A
:102950000E94600CBE016F5F7F4FCE0107960E9400
:10296000790CCE0107960E94710CCE0101960E944F
:10297000710C7DCD0E946402019709F0FECDD092CA
:102980005C03FBCD10925B03EACD83EC92E00E94E6
:10299000AF09C0925303D0925203D09251031092C8
:1029A0004F0310924E0310924D038DE493E00E946A
:1029B000D8070E94230752CF815063CF821708F0B7
:1029C00067CF281B330B37FF03C0319521953109A1
:1029D0002531310514F08D5F54CF8F5F52CFBB2767
:1029E0004A3031F4992322F4BDE2909581959F4FAE
:1029F0000C94FB14BB27FB015527AA27880F991FAE
:102A0000AA1FA41710F0A41B83955051B9F7A05D1D
:102A1000AA3308F0A95DA193009779F7B111B1939A
:102A20001192CB010C941415DC01FC01672F7191FC
:102A30007723E1F7329704C07C916D9370836291A4
:102A4000AE17BF07C8F30895F999FECF92BD81BDB7
:102A5000F89A992780B50895262FF999FECF1FBAC5
:102A600092BD81BD20BD0FB6F894FA9AF99A0FBEB7
:102A7000019608950E944515A59F900DB49F900D55
:102A8000A49F800D911D11240895A29FB001B39FB2
:102A9000C001A39F700D811D1124911DB29F700D67
:102AA000811D1124911D0895991B79E004C0991F7F
:102AB000961708F0961B881F7A95C9F78095089598
:102AC00097FB072E16F4009407D077FD09D00E94DB
:102AD000A61507FC05D03EF4909581959F4F08956B
:102AE000709561957F4F0895A1E21A2EAA1BBB1B1A
:102AF000FD010DC0AA1FBB1FEE1FFF1FA217B307CA
:102B0000E407F50720F0A21BB30BE40BF50B661FDF
:102B1000771F881F991F1A9469F7609570958095A3
:102B200090959B01AC01BD01CF010895EE0FFF1FF1
:102B3000881F8BBF0790F691E02D1994B7FF0C9476
:102B40003A150E943A15821B930B0895AA1BBB1BD2
:102B500051E107C0AA1FBB1FA617B70710F0A61B9D
:102B6000B70B881F991F5A95A9F780959095BC01BE
:102B7000CD0108950F931F93CF93DF93823091057A
:102B800010F482E090E0E0913E06F0913F0630E0E4
:102B900020E0B0E0A0E0309799F42115310509F468
:102BA0004AC0281B390B24303105D8F58A819B8116
:102BB0006115710589F1FB0193838283FE0111C0C8
:102BC000408151810281138148175907E0F048176D
:102BD000590799F4109761F012960C931297139677
:102BE0001C933296CF01DF91CF911F910F910895E1
:102BF00000933E0610933F06F4CF2115310551F0A6
:102C00004217530738F0A901DB019A01BD01DF012A
:102C1000F801C1CFEF01F9CF90933F0680933E06B4
:102C2000CDCFFE01E20FF31F819391932250310922
:102C300039832883D7CF20913C0630913D06232B42
:102C400041F4209102023091030230933D0620931B
:102C50003C0620910002309101022115310541F41A
:102C60002DB73EB74091040250910502241B350B4D
:102C7000E0913C06F0913D06E217F307A0F42E1B0D
:102C80003F0B2817390778F0AC014E5F5F4F2417D0
:102C9000350748F04E0F5F1F50933D0640933C06AA
:102CA000819391939FCFF0E0E0E09CCFCF93DF93AF
:102CB0000097E9F0FC01329713821282A0913E0640
:102CC000B0913F06ED0130E020E01097A1F42081A3
:102CD0003181820F931F20913C0630913D062817C9
:102CE000390709F061C0F0933D06E0933C06DF919F
:102CF000CF910895EA01CE17DF07E8F54A815B819D
:102D00009E0141155105B1F7E901FB83EA83499121
:102D10005991C40FD51FEC17FD0761F48081918193
:102D20000296840F951FE90199838883828193819C
:102D30009B838A83F0E0E0E012968D919C9113973B
:102D40000097B9F52D913C911197CD010296820F14
:102D5000931F20913C0630913D062817390739F61C
:102D6000309751F510923F0610923E06B0933D0603
:102D7000A0933C06BCCFD383C28340815181840F92
:102D8000951FC817D90761F44E5F5F4F88819981FD
:102D9000480F591F518340838A819B81938382838B
:102DA0002115310509F0B0CFF0933F06E0933E06C0
:102DB0009ECFFD01DC01C0CF13821282D7CF4F928C
:102DC0005F926F927F928F929F92AF92BF92CF92BB
:102DD000DF92EF92FF920F931F93CF93DF938C01BB
:102DE000009799F4CB01DF91CF911F910F91FF9044
:102DF000EF90DF90CF90BF90AF909F908F907F909B
:102E00006F905F904F900C94BA15FC01E60FF71F7E
:102E10009C0122503109E217F30708F4AEC0D90132
:102E2000CD91DC911197C617D70720F1C530D10598
:102E300078F0CE0104978617970750F0C61BD70B82
:102E40002297C193D1936D937C93CF010E94561624
:102E5000C801DF91CF911F910F91FF90EF90DF900C
:102E6000CF90BF90AF909F908F907F906F905F902A
:102E70004F9008955B01AC1ABD0A4C018C0E9D1E4B
:102E8000A0913E06B0913F06512C412CF12CE12C33
:102E9000109731F580913C0690913D068815990573
:102EA00009F05CC04616570608F058C08091000231
:102EB00090910102009741F48DB79EB740910402B2
:102EC00050910502841B950BE817F90708F055C0CF
:102ED000F0933D06E0933C06F90171836083B8CF1F
:102EE0008D919C91119712966C90129713967C90ED
:102EF0001397A815B90559F56C0142E0C40ED11C11
:102F0000CA14DB0420F1AC014A195B09DA011296FC
:102F1000159780F06282738251834083D9016D934B
:102F20007C93E114F10471F0D7011396FC93EE93B6
:102F300012978ECF22968C0F9D1FF901918380836B
:102F4000F301EFCFF0933F06E0933E0681CF4816A2
:102F5000590608F42C017D01D3019ACFCB010E94C0
:102F6000BA157C01009749F0AE01B8010E94C01764
:102F7000C8010E94561687016BCF10E000E068CFB1
:102F8000FB01DC0102C001900D9241505040D8F786
:102F90000895FB01DC0101900D920020E1F70895F6
:042FA000F894FFCFD3
:102FA4000000400680001F1C1F1E1F1E1F1F1E1F27
:102FB4001E1F00000000B204DE032B04FF045C04A7
:102FC4003A044E0400000000F106C4062007A106DE
:102FD4004405B106A2060D0A0025005274634E6F23
:102FE40074466F756E64006C6F6700527463577239
:102FF400697465496E697469616C54696D65002111
:103004005274634368697050726573656E740052DC
:103014007463466F756E640054696D654C696253E0
:1030240074617475734572726F720054696D654C86
:1030340069625374617475734F6B00312E302E3096
:103044000076657273696F6E0062746E004D0041A4
:10305400004F004C32333032313246000D003A001A
:103064006374005F6C6F675F74696D656E6F747312
:0430740065745F0020
:00000001FF
