:020000040000FA
:100000000C946B010C949C010C949C010C949C012D
:100010000C949C010C949C010C949C010C949C01EC
:100020000C949C010C949C010C949C010C949C01DC
:100030000C949C010C949C010C949C010C949C01CC
:100040000C949C010C949C010C949C010C949C01BC
:100050000C949C010C949C010C949C010C94560DE6
:100060000C949C010C94C60E0C949C0E0C949C0158
:100070000C949C010C949C010C949C010C949C018C
:100080000C949C010C949C010C949C010C949C017C
:100090000C94720E0C94480E0C949C010C94F00E6F
:1000A0000C949C010C949C010C949C010C949C015C
:1000B0000C949C010C949C010C949C010C949C014C
:1000C0000C949C010C949C010C949C010C941E0EAD
:1000D0000C94F40D0C949C010C94CA0D0C94A00D7E
:1000E0000C949C010C942B040C9427030C941B037C
:1000F0000C94A2060C94AA030C9482030C94520252
:100100000C9444020C9414100C9496030C94200745
:100110000C949E010C944D030C9444050C946002C5
:100120000C9448020C9430020C94F1060C9440029A
:100130000C94C8090C943A040C94FF040C94220308
:100140000C945C040C945F030C945C020C943103DB
:100150000C9469030C9421020C94A1060C942902BE
:100160000C944E040C94B4030C941B020C943A02AD
:100170000C94C4060C94DE030C9436020C945B02BF
:100180000C9455030C948C030C9473030C9425026B
:100190000C943B030C944E020C94A0030C94450366
:1001A0000C94B2040C942D020C94B1060C949F0193
:1001B0000C94560200002100240027002A002D0084
:1001C0003000330001010000040107010A010000B2
:1001D0002200250028002B002E00310034000201EF
:1001E0000000050108010B0100002000230026008B
:1001F00029002C002F00320000010000030106013D
:10020000090105050505070508080808020202029C
:100210000A0A0808040404040101010101010101A2
:100220000303030303030303040707070C0C0C0C6D
:100230000C0C0C0C02020202060606060606060656
:100240000B0B0B0B0B0B0B0B0102102020080810E3
:100250002040102040800201020108040201010236
:10026000040810204080804020100804020180040F
:10027000020180402010080402010804020101026A
:100280000408102040800102040810204080000073
:100290000A0B02090C0D0E08070304010000000000
:1002A000000000000000000000000000000000004E
:1002B000000000000000000000001211100000000B
:1002C000000000000000000000000000000000002E
:1002D00000000000141011241FBECFEFD1E2DEBFDA
:1002E000CDBF00E00CBF26E0A4EDB2E001C01D923E
:1002F000A034B207E1F712E0A0E0B2E0E4EAFFE2E6
:1003000000E00BBF02C007900D92A43DB107D9F7E2
:1003100011E0CBE6D1E000E006C021970109802F73
:10032000FE010E949615CA36D10780E00807A9F79A
:100330000E94DF100C94D0170C94000008950895CB
:10034000FC01A089B18982E08C93A485B5851C92BB
:10035000A685B7858FEC8C93108EA489B5896C9394
:10036000A289B3898C9180618C93A289B3898C9185
:1003700088608C93A289B3898C9180688C93028861
:10038000F389E02D80818F7D808308951F93CF9323
:10039000DF93FC01A481B58170E060E04FEF5FEF77
:1003A0006A177B0701F1FC0120813181211531059C
:1003B000C1F0260F371FF9012081E8E0F0E030E0BE
:1003C000E901C42756954795C0FF04C0C8E04C27F3
:1003D000C4E85C2735952795319789F76F5F7F4F84
:1003E000DFCF20E0EACFCA01809590959827892732
:1003F0009827DF91CF911F9108958150823108F0A5
:100400005AC0E82FF0E08827E75FFD4F8F4F0C942C
:10041000961529022D021B02210225025B023002E1
:1004200036023A024002440248024E0252025B0285
:1004300056025C026002809180008F77809380007A
:100440000895809180008F7DF9CF80918000877F13
:10045000F5CF84B58F7784BD089584B58F7DFBCFAC
:100460008091B0008F778093B00008958091B000A4
:100470008F7DF9CF809190008F77809390000895C1
:10048000809190008F7DF9CF80919000877FF5CF8C
:100490008091A0008F778093A00008958091A000A4
:1004A0008F7DF9CF8091A000877FF5CF80912001CB
:1004B0008F77809320010895809120018F7DF9CF5F
:1004C00080912001877FF5CFCF93DF93E0E9F2E0C1
:1004D0008491EAE4F2E0D491E4E0F2E0C491CC2328
:1004E000A1F081110E94FD01EC2FF0E0EE0FFF1F43
:1004F000E851FE4FA591B491EC91ED2381E090E09D
:1005000009F480E0DF91CF91089580E090E0FACF88
:100510001F93CF93DF93282F30E0F901E257FD4F6F
:100520008491F901E85BFD4FD491F901EE5FFD4F35
:10053000C491CC23A9F0162F81110E94FD01EC2F4C
:10054000F0E0EE0FFF1FE253FE4FA591B4918FB77D
:10055000F894EC91111108C0D095DE23DC938FBF85
:10056000DF91CF911F910895DE2BF8CFCF93DF93CA
:1005700090E0FC01E85BFD4F24918E5F9D4FFC01F4
:1005800084918823D1F090E0880F991FFC01EC54EE
:10059000FE4FA591B491FC01E253FE4FC591D49159
:1005A000623071F49FB7F8943C91822F8095832339
:1005B0008C93E8812E2B28839FBFDF91CF910895E4
:1005C0008FB7F894EC912E2B2C938FBFF6CFCF934F
:1005D000DF93EC0161E088E00E94B602209731F4DD
:1005E00060E088E0DF91CF910C948802CF3FD10585
:1005F00011F461E0F6CFE6E9F2E0E491E150E23196
:1006000008F0B2C0F0E08827E75FFC4F8F4F0C94F2
:1006100096151B032203270331033B03B403450351
:100620004D0355035F036903730382038C03B40313
:100630009603A003AA0384B5806884BDC7BDDF917B
:10064000CF91089584B5806284BDC8BDF8CF8091F4
:100650008000806880938000D0938900C0938800D8
:10066000EECF80918000806280938000D0938B00D9
:10067000C0938A00E4CF80918000886080938000DE
:10068000D0938D00C0938C00DACF8091B000806849
:100690008093B000C093B300D2CF8091B00080624D
:1006A0008093B000C093B400CACF8091900080685E
:1006B00080939000D0939900C0939800C0CF809110
:1006C0009000806280939000D0939B00C0939A002A
:1006D000B6CF80919000886080939000D0939D0069
:1006E000C0939C00ACCF8091A00080688093A00054
:1006F0008091A0008F7B8093A000D093A900C0932D
:10070000A8009DCF8091A00080628093A000D0932C
:10071000AB00C093AA0093CF8091A0008860809323
:10072000A000D093AD00C093AC0089CF8091200190
:10073000806880932001D0932901C09328017FCF46
:1007400080912001806280932001D0932B01C0937F
:100750002A0175CF80912001886080932001D09379
:100760002D01C0932C016BCFC038D1050CF041CFC7
:1007700037CF3FB7F8948091620390916303A091C3
:100780006403B091650326B5A89B05C02F3F19F0FF
:100790000196A11DB11D3FBFBA2FA92F982F882701
:1007A000BC01CD01620F711D811D911D42E0660FDC
:1007B000771F881F991F4A95D1F70895AF92BF926E
:1007C000CF92DF92EF92FF920F931F93CF93DF931D
:1007D0006C017B018B01040F151FEB015E01AE184C
:1007E000BF08C017D10759F06991D601ED91FC916E
:1007F0000190F081E02DC6011995892B79F7C5018B
:10080000DF91CF911F910F91FF90EF90DF90CF90EC
:10081000BF90AF900895FB01448155816081718143
:100820000C94DE03FC01A089B1898C91A689B7895B
:1008300082FD0FC09C91818D8F5F8F73228D8217F7
:1008400049F0A18DAE0FBF2FB11D5D969C93818F96
:1008500008958C910895FC01538D448D252F30E02F
:10086000842F90E0821B930B541710F0CF960895BD
:1008700001970895FC01918D828D981761F0A28DEA
:10088000AE0FBF2FB11D5D968C91928D9F5F9F73B0
:10089000928F90E008958FEF9FEF0895FC01918D66
:1008A000828D981731F0828DE80FF11D858D90E0D3
:1008B00008958FEF9FEF0895FC01918D228D892F70
:1008C00090E0805C9F4F821B91098F739927089558
:1008D00084EB93E00E945C0421E0892B09F420E082
:1008E000822F089581E594E00E945C0421E0892B29
:1008F00009F420E0822F08958EEE94E00E945C04BB
:1009000021E0892B09F420E0822F08958BE895E0FF
:100910000E945C0421E0892B09F420E0822F0895D5
:10092000FC01A48DA80FB92FB11DA35ABF4F2C9164
:10093000848D90E001968F739927848FA689B7895B
:100940002C93A089B1898C91837080648C93938D52
:10095000848D981306C00288F389E02D80818F7DF5
:1009600080830895EF92FF920F931F93CF93DF93AD
:10097000EC0181E0888F9B8D8C8D98131AC0E889DB
:10098000F989808185FF15C09FB7F894EE89FF89AA
:100990006083E889F98980818370806480839FBF48
:1009A00081E090E0DF91CF911F910F91FF90EF9048
:1009B0000895F62E0B8D10E00F5F1F4F0F73112758
:1009C000E02E8C8D8E110CC00FB607FCFACFE88993
:1009D000F989808185FFF5CFCE010E949004F1CF87
:1009E000EB8DEC0FFD2FF11DE35AFF4FF0829FB707
:1009F000F8940B8FEA89FB8980818062CFCFCF93F7
:100A0000DF93EC01888D8823B9F0AA89BB89E88936
:100A1000F9898C9185FD03C0808186FD0DC00FB6DC
:100A200007FCF7CF8C9185FFF2CF808185FFEDCF5A
:100A3000CE010E949004E9CFDF91CF91089580E02C
:100A400090E0892B29F00E94860481110E94000009
:100A500080E090E0892B29F00E947C0481110E94A3
:100A6000000080E090E0892B29F00E94720481113F
:100A70000E94000080E090E0892B29F00E94680429
:100A800081110C940000089580912E0690912F06FC
:100A9000891B990B08952091FD02260F3327331FE0
:100AA00021323105ECF420918C03FC0190E080E0D0
:100AB000243069F082E00895A091FD022191AC01FB
:100AC00043525D4FA40FB52FB11D2C93019686178D
:100AD00098F38091FD02680F6093FD0280E0089515
:100AE00081E0089510928C0381E080938B03109233
:100AF000660361E084E10E94880261E085E10E9472
:100B00008802E9EBF0E080818E7F808380818D7F99
:100B1000808388E48093B80085E48093BC000895C6
:100B2000CF93DF9391E09093DC028823B9F0C091DA
:100B3000B800D091BA008091BC008A7B8093BC0041
:100B400060E084E10E94880260E085E10E94880202
:100B50000E947205D093BA00C093B800DF91CF9184
:100B600008958F929F92AF92BF92CF92DF92EF92B1
:100B7000FF920F931F93CF93DF93D0912C06D13226
:100B800008F0D7C0182FC091B3030E94B9036B01BE
:100B90007C0180918C0381116BC082E080938C0377
:100BA00010938B038FEF80938A0310928903D09365
:100BB0008803A3E9B3E0E8E6F3E080E0D81391C04E
:100BC0001092670380916703CC0FC82BC093670313
:100BD00080916603813009F088C0109266030E94FC
:100BE000B9036B017C01809167038093BB00809106
:100BF0008E0390918F03A0919003B0919103892B64
:100C00008A2B8B2BA1F00E94B90300918E031091C7
:100C10008F0320919003309191036C197D098E0907
:100C20009F09061717072807390708F442C0809163
:100C3000BC0083FDD8CF85EC8093BC000E94B90333
:100C40006B017C0180918C03823009F450C080914B
:100C50008A038F3F09F46FC080918A03803209F4C0
:100C60006CC080918A03803309F469C084E026C097
:100C700080918E0390918F03A0919003B091910386
:100C8000892B8A2B8B2B09F484CF0E94B903809087
:100C90008E0390908F03A0909003B09091036C19F5
:100CA0007D098E099F0986169706A806B90608F0E1
:100CB00070CF80918D030E94900585E010922D06E3
:100CC00010922C0610929203DF91CF911F910F91F9
:100CD000FF90EF90DF90CF90BF90AF909F908F905C
:100CE00008959D9191938F5F69CF85EEA5CF8091F7
:100CF0008E0390918F03A0919003B0919103892B63
:100D00008A2B8B2B09F49ECF0E94B90300918E038E
:100D100010918F0320919003309191036C197D09FC
:100D20008E099F09061717072807390708F08ACF89
:100D3000C0CF81E0C3CF80E0C1CF82E0BFCF83E0EE
:100D4000BDCF0895E0912F0680912E06E81730F46C
:100D5000F0E0E05EFC4F808190E008958FEF9FEF20
:100D6000089590912F0680912E062FEF3FEF981750
:100D700048F4E92FF0E0E05EFC4F208130E09F5F17
:100D800090932F06C9010895CF92DF92EF92FF92C0
:100D90000F931F93CF93DF937C01CB018A012091A6
:100DA0009203222389F0EB016B01C40ED51ECC15F2
:100DB000DD0569F06991D701ED91FC910190F08119
:100DC000E02DC7011995F3CF642F0E944B05C80190
:100DD000DF91CF911F910F91FF90EF90DF90CF9017
:100DE0000895CF93DF931F92CDB7DEB7698320912B
:100DF00092032223F9F020912C06203258F021E0B2
:100E000030E0FC013383228390E080E00F90DF919B
:100E1000CF91089580912D06E82FF0E0ED56FC4F1C
:100E2000998190838F5F80932D0680932C0681E0BB
:100E300090E0ECCF61E0CE0101960E944B05F7CF28
:100E400090E080E00895609344037093450380939D
:100E5000460390934703645D7E4F8F4F9F4F60938F
:100E6000400370934103809342039093430382E0D5
:100E700090E090934C0380934B032FB7F8948091AC
:100E80005E0390915F03A0916003B09161032FBF57
:100E90008093D8029093D902A093DA02B093DB0238
:100EA00008950F931F938FB7F89400915E031091EC
:100EB0005F0320916003309161038FBF4091D8029E
:100EC0005091D9026091DA027091DB02041B150B7C
:100ED000260B370B8091440390914503A091460364
:100EE000B0914703083E134021053105C0F001963B
:100EF000A11DB11D8093440390934503A093460325
:100F0000B093470348515C4F6F4F7F4F4093D802D7
:100F10005093D9026093DA027093DB02C4CF409100
:100F20004003509141036091420370914303841741
:100F30009507A607B70770F0E0914803F0914903C1
:100F4000309741F01995611571058105910569F09A
:100F50000E942307609144037091450380914603EA
:100F6000909147031F910F910895809144039091B0
:100F70004503A0914603B0914703845D9E4FAF4F58
:100F8000BF4F8093400390934103A0934203B093DB
:100F9000430381E090E020914B0330914C03232BDD
:100FA00011F490E080E090934C0380934B03D2CFF8
:100FB0004F925F926F927F928F929F92AF92BF9269
:100FC000CF92DF92EF92FF920F931F93CF93DF9315
:100FD000FC011681A12FB0E020E833E341EE51E09F
:100FE0000E943A154B015C01C2EBD7E09D0104E67B
:100FF00010E080E9E82EFF24F394CE01825B974055
:10100000821793079CF14580512C2E54384FC9010B
:1010100064E670E00E9460157C01C90160E971E03E
:101020000E9460156C0106E012E0C1E0D0E03901D9
:1010300083E068227724C415D5050CF040C0C23087
:10104000D10571F56114710459F5E114F10419F435
:10105000C114D10429F5B0E88B0EBBE39B1EB6E2A8
:10106000AB1EB11C21960F5F1F4FE5CFCE018370E1
:101070009927892B99F4CE01B8010E946015892B1C
:1010800031F4CE01B7010E946015892B39F4A0E834
:101090008A0EA1E59A1EA1E0AA1EB11C2196ADCF31
:1010A000D8018C91A82FB0E020E831E541E050E074
:1010B0000E943A15860E971EA81EB91ED3CF228114
:1010C00030E0A0E1BEE00E9445156B017C0121816A
:1010D00030E0ACE3B0E00E944515C60ED71EE81E16
:1010E000F91E8081C80ED11CE11CF11CA481A15005
:1010F000BB0B20E831E541E050E00E949E156C0DED
:101100007D1D8E1D9F1D680D791D8A1D9B1DDF9104
:10111000CF911F910F91FF90EF90DF90CF90BF90F4
:10112000AF909F908F907F906F905F904F900895B9
:101130004F925F926F927F928F929F92AF92BF92E7
:10114000CF92DF92EF92FF920F931F93CF93DF9393
:101150004B015C018091D4029091D502A091D602FE
:10116000B091D70288159905AA05BB0509F4C6C038
:101170008CE3C82ED12CE12CF12CC501A7019601DE
:101180000E94741560934D03CA01B901A70196012D
:101190000E94741560934E03C501B40120E13EE046
:1011A00040E050E00E947415CA01B90128E130E026
:1011B00040E050E00E94741560934F03C501B401F4
:1011C00020E831E541E050E00E94741569017A01A0
:1011D000CA01B9016C5F7F4F8F4F9F4F27E030E00E
:1011E00040E050E00E9474156F5F60935003412C03
:1011F000512C320140E004E610E0C0E9D1E0242F98
:1012000030E02E54384FF901E370FF273097F9F49E
:10121000C901B8010E946015892B31F4C901BE01D2
:101220000E946015892B99F48EE691E0A0E0B0E071
:10123000480E591E6A1E7B1ED301C201AA27BB2776
:10124000C816D906EA06FB0638F04F5FD8CF8DE600
:1012500091E0A0E0B0E0ECCF40935303C90164E615
:1012600070E00E946015EC01C90160E971E00E9424
:101270006015309721F42097D9F40097C9F04DE616
:1012800051E060E070E0441A550A660A770AC41813
:10129000D508E608F708A6E0B2E020E0213069F4BE
:1012A0003097E9F5209711F40097C9F54DE106C094
:1012B0004EE651E060E070E0E6CF4C9150E070E027
:1012C00060E031E0320FC416D506E606F70640F0BE
:1012D000C41AD50AE60AF70A1196232F3C30F1F614
:1012E0002F5F20935203C394C09251038092D40283
:1012F0009092D502A092D602B092D702DF91CF9100
:101300001F910F91FF90EF90DF90CF90BF90AF9023
:101310009F908F907F906F905F904F9008954CE1D9
:10132000CDCF66E00E945415911103C01092550371
:10133000089584E1913051F082E3923039F086E9EA
:10134000933021F088EC943009F08FEF80935503AF
:10135000089542E050E066E372E00C94DE03CF9320
:10136000DF93FC0101900020E9F73197AF01481BA2
:10137000590BBC018BE895E00E94DE03EC018BE881
:1013800095E00E94A9098C0F9D1FDF91CF910895D0
:101390008F929F92AF92BF92CF92DF92EF92FF9285
:1013A0000F931F93CF93DF9300D000D01F92CDB740
:1013B000DEB701E00093920388E68093B3031092B6
:1013C0002D0610922C0660E080E396E00E94F10664
:1013D00081E00E94B105182F8823C1F010924A03C2
:1013E00060E070E0CB0127960FB6F894DEBF0FBE29
:1013F000CDBFDF91CF911F910F91FF90EF90DF90C4
:10140000CF90BF90AF909F908F90089500934A0324
:101410000E94B9036B017C0180918C03811164C02F
:1014200081E080938C0380938B039FEF90938A03DA
:101430001092890396E090938803809367038091CC
:101440006703806D8093670380916603813009F0A4
:10145000D6C0109266030E94B9036B017C01809193
:1014600067038093BB0080918E0390918F03A091BE
:101470009003B0919103892B8A2B8B2BA1F00E94B2
:10148000B90380908E0390908F03A0909003B0904A
:1014900091036C197D098E099F0986169706A80687
:1014A000B90608F442C08091BC0083FDD8CF85EC1A
:1014B0008093BC000E94B9036B017C0180918C0376
:1014C000813009F49EC080918903873008F0BBC049
:1014D00080918903A8E6B3E0E0E2F3E0181749F150
:1014E0009D9191931F5FFACF80918E0390918F030E
:1014F000A0919003B0919103892B8A2B8B2B09F437
:101500008BCF0E94B90380908E0390908F03A090A0
:101510009003B09091036C197D098E099F0986167E
:101520009706A806B90608F077CF80918D030E9430
:10153000900510922F0610932E06173008F450CF06
:1015400080E396E00E94B106082F982F929597703D
:101550001AE0802F8F70919F800D1124898380E382
:1015600096E00E94B106982F92959F708F70919F80
:10157000800D11248A8380E396E00E94B106982FA3
:10158000929593708F70919F800D11248B8380E3CF
:1015900096E00E94B106982F92959F708F70919F50
:1015A000800D11248C8380E396E00E94B106982F71
:1015B00092959F708F70919F800D11248D8380E391
:1015C00096E00E94B106982F92959F708F70919F20
:1015D000800D11248E8380E396E00E94B106982F3F
:1015E0009F70925E82958F70819F900D11249F83D2
:1015F00007FDF6CECE0101960E94D807F4CE85EE07
:1016000057CF80918E0390918F03A0919003B0915A
:101610009103892B8A2B8B2B09F450CF0E94B9039D
:1016200080908E0390908F03A0909003B0909103D0
:101630006C197D098E099F0986169706A806B906BA
:1016400008F03CCF72CF87E045CF0F931F93CF9325
:10165000DF93EC0188819981009759F02A813B81C1
:101660002617370730F081E0DF91CF911F910F915E
:1016700008958B016F5F7F4F0E94DF16009759F02E
:10168000998388831B830A832C813D81232B59F7FF
:10169000FC011082E8CF80E0E7CFEF92FF920F933A
:1016A0001F93CF93DF936115710541F480E0DF91C3
:1016B000CF911F910F91FF90EF9008954115510523
:1016C000B1F07B01EC010C811D81040F151FB801E5
:1016D0000E94250B882351F3288139818C819D81BB
:1016E000B701820F931F0E94C9171D830C8381E0ED
:1016F000DECFCF93DF93EC0188819981009711F0C1
:101700000E945616198218821D821C821B821A8220
:10171000DF91CF910895EF92FF920F931F93CF9394
:10172000DF9300D000D01F92CDB7DEB77C01CB0194
:101730004AE08E010F5F1F4FB8010E94FA14F801B2
:1017400001900020E9F73197AF01401B510BB80120
:10175000C7010E944D0B811103C0C7010E94790B84
:10176000C70127960FB6F894DEBF0FBECDBFDF913D
:10177000CF911F910F91FF90EF900895CF93DF933A
:10178000EC01FB0101900020E9F73197AF01461B06
:10179000570B0E944D0B811103C0CE010E94790BA3
:1017A000CE01DF91CF910895CF93DF93EC01FB0140
:1017B00044815581608171810E944D0B811103C06C
:1017C000CE010E94790BCE01DF91CF910895EF9267
:1017D000FF920F931F93CF93DF93EC017B018A015C
:1017E000BA010E94250B81110BC0CE010E94790B1A
:1017F000CE01DF91CF911F910F91FF90EF9008954F
:101800001D830C83B701888199810E94C917F0CF8D
:10181000EF92FF920F931F93CF93DF93CDB7DEB775
:1018200062970FB6F894DEBF0FBECDBF8C01CB011F
:10183000F8011182108213821282158214824AE00A
:101840009E012F5F3F4F7901B9010E94EF14F7010C
:1018500001900020E9F73197AF014E195F09B701F8
:10186000C8010E94E70B62960FB6F894DEBF0FBE68
:10187000CDBFDF91CF911F910F91FF90EF90089511
:10188000CF93DF93EC01FB018617970749F0608146
:1018900071816115710541F0448155810E94E70B0A
:1018A000CE01DF91CF9108950E94790BF9CFFC0111
:1018B0001182108213821282158214820C94400CC1
:1018C000FC01118210821382128215821482FB01A4
:1018D00001900020E9F73197AF01461B570B0C949C
:1018E000E70BFC0180819181009711F00C94561652
:1018F0000895CF92DF92EF92FF920F931F93CF93B1
:10190000DF93CDB7DEB762970FB6F894DEBF0FBE98
:10191000CDBF7C018B01BC01CE0107960E94570C04
:10192000B801CE0107960E94D40BBC01CE010D96E2
:101930000E94570CCE010D960E94C6016C0169E30E
:1019400072E0CE0101960E94600CB701CE010196B3
:101950000E94D40B62ED72E00E94BE0BB8010E949F
:10196000D40B62ED72E00E94BE0BB6010E948B0B9D
:10197000BC018BE895E00E940B048BE895E00E9487
:10198000A909CE0101960E94710CCE010D960E940C
:10199000710CCE0107960E94710CB701CE0107961B
:1019A0000E94570CB801CE0107960E94D40BBC01CF
:1019B000CE010D960E94570CCE010D960E94C601D5
:1019C0006C0169E372E0CE0101960E94600CB701E0
:1019D000CE0101960E94D40B62ED72E00E94BE0B14
:1019E000B8010E94D40B62ED72E00E94BE0BB601FA
:1019F0000E948B0BBC0184EB93E00E940B0484EBF0
:101A000093E00E94A909CE0101960E94710CCE01BB
:101A10000D960E94710CCE0107960E94710C629681
:101A20000FB6F894DEBF0FBECDBFDF91CF911F91EF
:101A30000F91FF90EF90DF90CF90089585ED809308
:101A4000BC0080918E0390918F03A0919003B09180
:101A500091030796A11DB11D23E0B695A795979513
:101A600087952A95D1F72091BC0024FD03C01092E0
:101A70008C03089540918E0350918F0360919003E1
:101A800070919103452B462B472B69F30097A105D5
:101A9000B10541F02AE22A95F1F700C00197A109AA
:101AA000B109E1CF80918D030C9490051F920F92A4
:101AB0000FB60F9211242F933F938F939F93AF9361
:101AC000BF9380915E0390915F03A0916003B091FA
:101AD000610330915D0323E0230F2D3758F5019604
:101AE000A11DB11D20935D0380935E0390935F035E
:101AF000A0936003B09361038091620390916303AC
:101B0000A0916403B09165030196A11DB11D80935E
:101B1000620390936303A0936403B0936503BF9142
:101B2000AF919F918F913F912F910F900FBE0F908A
:101B30001F90189526E8230F0296A11DB11DD2CF44
:101B40001F920F920FB60F9211240BB60F922F9384
:101B50003F934F935F936F937F938F939F93AF9335
:101B6000BF93EF93FF9384EB93E00E949004FF9167
:101B7000EF91BF91AF919F918F917F916F915F9105
:101B80004F913F912F910F900BBE0F900FBE0F9072
:101B90001F9018951F920F920FB60F9211240BB63B
:101BA0000F922F933F934F935F936F937F938F93F6
:101BB0009F93AF93BF93EF93FF9384EB93E00E94C7
:101BC0001204FF91EF91BF91AF919F918F917F91FF
:101BD0006F915F914F913F912F910F900BBE0F909E
:101BE0000FBE0F901F9018951F920F920FB60F9275
:101BF00011240BB60F922F933F934F935F936F93E4
:101C00007F938F939F93AF93BF93EF93FF9381E560
:101C100094E00E949004FF91EF91BF91AF919F914A
:101C20008F917F916F915F914F913F912F910F9085
:101C30000BBE0F900FBE0F901F9018951F920F9222
:101C40000FB60F9211240BB60F922F933F934F9321
:101C50005F936F937F938F939F93AF93BF93EF9314
:101C6000FF9381E594E00E941204FF91EF91BF91F0
:101C7000AF919F918F917F916F915F914F913F9124
:101C80002F910F900BBE0F900FBE0F901F901895C5
:101C90001F920F920FB60F9211240BB60F922F9333
:101CA0003F934F935F936F937F938F939F93AF93E4
:101CB000BF93EF93FF938EEE94E00E949004FF9108
:101CC000EF91BF91AF919F918F917F916F915F91B4
:101CD0004F913F912F910F900BBE0F900FBE0F9021
:101CE0001F9018951F920F920FB60F9211240BB6EA
:101CF0000F922F933F934F935F936F937F938F93A5
:101D00009F93AF93BF93EF93FF938EEE94E00E9467
:101D10001204FF91EF91BF91AF919F918F917F91AD
:101D20006F915F914F913F912F910F900BBE0F904C
:101D30000FBE0F901F9018951F920F920FB60F9223
:101D400011240BB60F922F933F934F935F936F9392
:101D50007F938F939F93AF93BF93EF93FF938BE802
:101D600095E00E949004FF91EF91BF91AF919F91F8
:101D70008F917F916F915F914F913F912F910F9034
:101D80000BBE0F900FBE0F901F9018951F920F92D1
:101D90000FB60F9211240BB60F922F933F934F93D0
:101DA0005F936F937F938F939F93AF93BF93EF93C3
:101DB000FF938BE895E00E941204FF91EF91BF9191
:101DC000AF919F918F917F916F915F914F913F91D3
:101DD0002F910F900BBE0F900FBE0F901F90189574
:101DE0001F920F920FB60F9211240BB60F922F93E2
:101DF0003F934F935F936F937F938F939F93AF9393
:101E0000BF93EF93FF938091B900887F803609F4E8
:101E10004DC008F040C0883209F4A9C028F58031CF
:101E200009F49DC0C8F4882309F4FBC0883009F484
:101E300096C0FF91EF91BF91AF919F918F917F914C
:101E40006F915F914F913F912F910F900BBE0F902B
:101E50000FBE0F901F901895883109F488C080320A
:101E600041F780938A0314C0803409F49DC040F484
:101E70008033B9F38833E9F680938A0385ECB0C0E8
:101E8000803509F485C0883509F496C0883489F610
:101E90000E941E0DCECF883909F48CC038F58837E2
:101EA00029F050F4883611F0803719F683E08093DA
:101EB0008C0310921F0357C0883809F47BC0803907
:101EC00019F0803809F0B5CF80911F03803208F0F7
:101ED00071C0E0911F0381E08E0F80931F038091FA
:101EE000BB00F0E0E150FD4F80833DC0803B39F006
:101EF000E0F4803A09F479C0883A09F09ACF84E096
:101F000080938C031092FE021092FD02E09128064D
:101F1000F091290619958091FD0281110FC081E091
:101F20008093FD021092DD0209C0803C09F4A6CF27
:101F3000883C09F4A3CF883B09F07BCFE091FE02F7
:101F400081E08E0F8093FE02F0E0E352FD4F80812E
:101F50008093BB009091FE028091FD0229C0809188
:101F600067038093BB0085EC8093BC0062CF9091A7
:101F7000890380918803981758F5E091890381E0DF
:101F80008E0F80938903F0E0E859FC4F8081E9CF00
:101F9000E091890381E08E0F809389038091BB00DB
:101FA000F0E0E859FC4F8083909189038091880389
:101FB0009817C8F285E8D8CFE091890381E08E0FA9
:101FC000809389038091BB00F0E0E859FC4F808347
:101FD00080918B0381115CCF81E08093660384EA5A
:101FE0008093BC0010928C0324CF85EC8093BC00BE
:101FF00010928C0380911F03803230F4E0911F0314
:10200000F0E0E150FD4F108260911F0370E0E0911D
:102010002A06F0912B068FEF92E0199510921F037C
:1020200008CF10928A0334CFCF92DF92EF92FF92C3
:10203000E4EBF3E01382128288EEC82E83E0D82E00
:10204000E12CF12CC482D582E682F78286E192E00F
:102050009183808325E331E03587248724E331E0D1
:102060003787268720E331E0318B208B21E331E075
:10207000338B228B22E331E0358B248B26E331E056
:10208000378B268B118E128E138E148EE1E5F4E0C1
:1020900013821282C482D582E682F7829183808382
:1020A00025ED30E03587248724ED30E0378726871B
:1020B00020ED30E0318B208B21ED30E0338B228B13
:1020C00022ED30E0358B248B26ED30E0378B268BEC
:1020D000118E128E138E148EEEEEF4E013821282A5
:1020E000C482D582E682F782918380832DEC30E032
:1020F000358724872CEC30E03787268728EC30E0C2
:10210000318B208B29EC30E0338B228B2AEC30E0B2
:10211000358B248B2EEC30E0378B268B118E128E74
:10212000138E148EEBE8F5E013821282C482D582FE
:10213000E682F7829183808385EC90E0958784879F
:1021400084EC90E09787868780EC90E0918B808B81
:1021500081EC90E0938B828B82EC90E0958B848B6A
:1021600086EC90E0978B868B118E128E138E148ED8
:1021700010922F0610922E0610922D0610922C0609
:102180000E9472058EE991E09093290680932806BB
:102190008FE991E090932B0680932A06E0E3F6E026
:1021A00013821282C482D582E682F78288E292E0AC
:1021B00091838083FF90EF90DF90CF900895CF932D
:1021C000DF93CDB7DEB7AA970FB6F894DEBF0FBE88
:1021D000CDBF789484B5826084BD84B5816084BDB0
:1021E00085B5826085BD85B5816085BD80916E00B5
:1021F000816080936E0010928100809181008260E6
:102200008093810080918100816080938100809122
:1022100080008160809380008091B1008460809311
:10222000B1008091B00081608093B00080919100F6
:1022300082608093910080919100816080939100F1
:10224000809190008160809390008091A1008260D5
:102250008093A1008091A10081608093A100809172
:10226000A00081608093A000809121018260809312
:1022700021018091210181608093210180912001C1
:1022800081608093200180917A00846080937A003D
:1022900080917A00826080937A0080917A008160D8
:1022A00080937A0080917A00806880937A001092FF
:1022B000C10066E08BE895E00E94A00164E28EEE2A
:1022C00094E00E94A00164E281E594E00E94A001F4
:1022D00066E084EB93E00E94A00162E082E00E944D
:1022E000B60261E088E00E94B60290E080E00E94C1
:1022F000E70290E080E00E942415182F80935B0392
:1023000081E090E00E94241580935603812F0E9463
:10231000910910922F0610922E0610922D061092FF
:102320002C060E9472058EE991E090932906809315
:1023300028068FE991E090932B0680932A0611E0FE
:102340001093920308E60093B30381E00E94B10565
:102350006BE372E081118DC080914A03811134C01A
:102360006FE572E0CE0101960E94600C67E472E0B6
:10237000CE0107960E94600CBE016F5F7F4FCE01B9
:1023800007960E94790CCE0107960E94710CCE012F
:1023900001960E94710C88EC99E090934903809318
:1023A00048038091440390914503A0914603B09166
:1023B00047038093400390934103A0934203B0935B
:1023C00043030E94510753C060E672E0CE010196BC
:1023D0000E94600C67E472E0CE0107960E94600CD8
:1023E000BE016F5F7F4FCE0107960E94790CCE0130
:1023F00007960E94710CCE0101960E94710C1093F9
:1024000092030093B30310922D0610922C0660E005
:1024100080E396E00E94F10660E880E396E00E9487
:10242000F10660E080E396E00E94F10660E080E360
:1024300096E00E94F10664E080E396E00E94F106D7
:1024400061E080E396E00E94F10661E080E396E0BF
:102450000E94F10666E680E396E00E94F10681E0C4
:102460000E94B105882309F43AC210924A036FE62C
:1024700072E0CE0101960E94600C67E472E0CE012A
:1024800007960E94600CBE016F5F7F4FCE010796DA
:102490000E94790CCE0107960E94710CCE01019624
:1024A0000E94710C0E94510780914B0390914C0344
:1024B00068E772E0029711F46BE872E0CE010196D2
:1024C0000E94600C67E472E0CE0107960E94600CE7
:1024D000BE016F5F7F4FCE0107960E94790CCE013F
:1024E00007960E94710CCE0101960E94710C6BE957
:1024F00072E0CE0101960E94600C61EA72E0CE01AA
:1025000007960E94600CBE016F5F7F4FCE01079659
:102510000E94790CCE0107960E94710CCE010196A3
:102520000E94710CDD24D39495E3C92E0CE310E0D6
:1025300028E1E22EF12C0E946402892B09F01AC2D4
:1025400080915C03882309F415C210925C0380918A
:102550005B038F5F873008F015C280935B0389EAC5
:1025600092E00E94AF0960915B0390E080E00E94DE
:102570002C1580915B030E9491092FB7F8948091EC
:102580005E0390915F03A0916003B09161032FBF40
:1025900040915703509158036091590370915A0329
:1025A0004C015D01841A950AA60AB70AB501A40177
:1025B000483E53406105710508F450C180935703AC
:1025C00090935803A0935903B0935A030E94510764
:1025D00080914B0390914C03029709F0D6C10E9461
:1025E00051070E94980880915603882361F00E9449
:1025F00051070E9498080E9451070E9498080E9463
:1026000051070E9498080E9451070E9498088090E4
:102610004D03912C0E9451070E949808A0904E03F0
:10262000B12CC401B8010E9460154C01BC01CE015F
:1026300085960E94080C8AE088169104B4F46FE92C
:1026400072E0CE0101960E94600CBE016B5D7F4F6F
:10265000CE0101960E94D40BBC01CE0185960E944A
:10266000400CCE0101960E94710CC501B8010E9478
:1026700060154C01BC01CE014F960E94080C2AE067
:1026800082169104B4F46FE972E0CE0101960E94C3
:10269000600CBE01615E7F4FCE0101960E94D40B9B
:1026A000BC01CE014F960E94400CCE0101960E94C3
:1026B000710CC501B7010E9460155C01BC01CE011F
:1026C00049960E94080C8AE0A816B104B4F46FE998
:1026D00072E0CE0101960E94600CBE01675E7F4FE2
:1026E000CE0101960E94D40BBC01CE0149960E94F6
:1026F000400CCE0101960E94710C6DEA72E0CE0191
:1027000043960E94600C41E050E06FEA72E0CE0117
:1027100043960E94E70B61EB72E0CE0101960E94A6
:10272000600CBE016D5E7F4FCE0101960E94D40BFE
:1027300063EB72E00E94BE0BBE01675E7F4F0E949A
:10274000D40BBE01615E7F4F0E94D40BBE016B5D56
:102750007F4F0E94D40B6CEB72E00E94BE0BBC0159
:1027600081E594E00E940B04CE0101960E94710C59
:1027700061EB72E0CE0101960E94600CBE016D5EBD
:102780007F4FCE0101960E94D40B63EB72E00E9452
:10279000BE0BBE01675E7F4F0E94D40BBE01615E1F
:1027A0007F4F0E94D40BBE016B5D7F4F0E94D40B04
:1027B0006CEB72E00E94BE0BBC0184EB93E00E94C4
:1027C0000B04CE0101960E94710CBE01675E7F4F23
:1027D000CE0107960E94570C6EEB72E0CE01079671
:1027E0000E94BE0BBE01615E7F4F0E94D40B6EEB58
:1027F00072E00E94BE0BBE016B5D7F4F0E94D40B46
:10280000BC01CE010D960E94570C60EC72E0CE0127
:1028100001960E94600CBE01635F7F4FCE0101965E
:102820000E94790CCE0101960E94710CCE010D968A
:102830000E94710CCE0107960E94710CCE01439646
:102840000E94710CCE0149960E94710CCE014F96E8
:102850000E94710CCE0185960E94710C2091550347
:1028600080915403281708F0A9C0281B330B37FFA9
:1028700003C0319521953109253131050CF49CC0F7
:102880008350809354038091540390E00E94E702A8
:102890000E94B9032B013C018EE1882E912CA12CC2
:1028A000B12C0E94B9036419750986099709683E1D
:1028B000734081059105A8F321E0821A9108A108CF
:1028C000B10888EE480E83E0581E611C711C81140B
:1028D0009104A104B10429F70E941F052CCE109386
:1028E0004A031093920310922D0610922C0660E07A
:1028F00080E396E00E94F10660E080E396E00E94AB
:10290000F10681E00E94B1058111AFCD88EC99E01C
:102910009093490380934803809144039091450329
:10292000A0914603B09147038093400390934103E5
:10293000A0934203B09343030E9451076BE472E0FB
:10294000CE0101960E94600C67E472E0CE0107960A
:102950000E94600CBE016F5F7F4FCE0107960E9400
:10296000790CCE0107960E94710CCE0101960E944F
:10297000710C7DCD0E946402019709F0FECDD092CA
:102980005C03FBCD10925B03EACD83EC92E00E94E6
:10299000AF09C0925303D0925203D09251031092C8
:1029A0004F0310924E0310924D038DE493E00E946A
:1029B000D8070E94230752CF815063CF821708F0B7
:1029C00067CF281B330B37FF03C0319521953109A1
:1029D0002531310514F08D5F54CF8F5F52CFBB2767
:1029E0004A3031F4992322F4BDE2909581959F4FAE
:1029F0000C94FB14BB27FB015527AA27880F991FAE
:102A0000AA1FA41710F0A41B83955051B9F7A05D1D
:102A1000AA3308F0A95DA193009779F7B111B1939A
:102A20001192CB010C941415DC01FC01672F7191FC
:102A30007723E1F7329704C07C916D9370836291A4
:102A4000AE17BF07C8F30895F999FECF92BD81BDB7
:102A5000F89A992780B50895262FF999FECF1FBAC5
:102A600092BD81BD20BD0FB6F894FA9AF99A0FBEB7
:102A7000019608950E944515A59F900DB49F900D55
:102A8000A49F800D911D11240895A29FB001B39FB2
:102A9000C001A39F700D811D1124911DB29F700D67
:102AA000811D1124911D0895991B79E004C0991F7F
:102AB000961708F0961B881F7A95C9F78095089598
:102AC00097FB072E16F4009407D077FD09D00E94DB
:102AD000A61507FC05D03EF4909581959F4F08956B
:102AE000709561957F4F0895A1E21A2EAA1BBB1B1A
:102AF000FD010DC0AA1FBB1FEE1FFF1FA217B307CA
:102B0000E407F50720F0A21BB30BE40BF50B661FDF
:102B1000771F881F991F1A9469F7609570958095A3
:102B200090959B01AC01BD01CF010895EE0FFF1FF1
:102B3000881F8BBF0790F691E02D1994B7FF0C9476
:102B40003A150E943A15821B930B0895AA1BBB1BD2
:102B500051E107C0AA1FBB1FA617B70710F0A61B9D
:102B6000B70B881F991F5A95A9F780959095BC01BE
:102B7000CD0108950F931F93CF93DF93823091057A
:102B800010F482E090E0E0913E06F0913F0630E0E4
:102B900020E0B0E0A0E0309799F42115310509F468
:102BA0004AC0281B390B24303105D8F58A819B8116
:102BB0006115710589F1FB0193838283FE0111C0C8
:102BC000408151810281138148175907E0F048176D
:102BD000590799F4109761F012960C931297139677
:102BE0001C933296CF01DF91CF911F910F910895E1
:102BF00000933E0610933F06F4CF2115310551F0A6
:102C00004217530738F0A901DB019A01BD01DF012A
:102C1000F801C1CFEF01F9CF90933F0680933E06B4
:102C2000CDCFFE01E20FF31F819391932250310922
:102C300039832883D7CF20913C0630913D06232B42
:102C400041F4209102023091030230933D0620931B
:102C50003C0620910002309101022115310541F41A
:102C60002DB73EB74091040250910502241B350B4D
:102C7000E0913C06F0913D06E217F307A0F42E1B0D
:102C80003F0B2817390778F0AC014E5F5F4F2417D0
:102C9000350748F04E0F5F1F50933D0640933C06AA
:102CA000819391939FCFF0E0E0E09CCFCF93DF93AF
:102CB0000097E9F0FC01329713821282A0913E0640
:102CC000B0913F06ED0130E020E01097A1F42081A3
:102CD0003181820F931F20913C0630913D062817C9
:102CE000390709F061C0F0933D06E0933C06DF919F
:102CF000CF910895EA01CE17DF07E8F54A815B819D
:102D00009E0141155105B1F7E901FB83EA83499121
:102D10005991C40FD51FEC17FD0761F48081918193
:102D20000296840F951FE90199838883828193819C
:102D30009B838A83F0E0E0E012968D919C9113973B
:102D40000097B9F52D913C911197CD010296820F14
:102D5000931F20913C0630913D062817390739F61C
:102D6000309751F510923F0610923E06B0933D0603
:102D7000A0933C06BCCFD383C28340815181840F92
:102D8000951FC817D90761F44E5F5F4F88819981FD
:102D9000480F591F518340838A819B81938382838B
:102DA0002115310509F0B0CFF0933F06E0933E06C0
:102DB0009ECFFD01DC01C0CF13821282D7CF4F928C
:102DC0005F926F927F928F929F92AF92BF92CF92BB
:102DD000DF92EF92FF920F931F93CF93DF938C01BB
:102DE000009799F4CB01DF91CF911F910F91FF9044
:102DF000EF90DF90CF90BF90AF909F908F907F909B
:102E00006F905F904F900C94BA15FC01E60FF71F7E
:102E10009C0122503109E217F30708F4AEC0D90132
:102E2000CD91DC911197C617D70720F1C530D10598
:102E300078F0CE0104978617970750F0C61BD70B82
:102E40002297C193D1936D937C93CF010E94561624
:102E5000C801DF91CF911F910F91FF90EF90DF900C
:102E6000CF90BF90AF909F908F907F906F905F902A
:102E70004F9008955B01AC1ABD0A4C018C0E9D1E4B
:102E8000A0913E06B0913F06512C412CF12CE12C33
:102E9000109731F580913C0690913D068815990573
:102EA00009F05CC04616570608F058C08091000231
:102EB00090910102009741F48DB79EB740910402B2
:102EC00050910502841B950BE817F90708F055C0CF
:102ED000F0933D06E0933C06F90171836083B8CF1F
:102EE0008D919C91119712966C90129713967C90ED
:102EF0001397A815B90559F56C0142E0C40ED11C11
:102F0000CA14DB0420F1AC014A195B09DA011296FC
:102F1000159780F06282738251834083D9016D934B
:102F20007C93E114F10471F0D7011396FC93EE93B6
:102F300012978ECF22968C0F9D1FF901918380836B
:102F4000F301EFCFF0933F06E0933E0681CF4816A2
:102F5000590608F42C017D01D3019ACFCB010E94C0
:102F6000BA157C01009749F0AE01B8010E94C01764
:102F7000C8010E94561687016BCF10E000E068CFB1
:102F8000FB01DC0102C001900D9241505040D8F786
:102F90000895FB01DC0101900D920020E1F70895F6
:102FA000F894FFCF0000400680001F1C1F1E1F1E4C
:102FB0001F1F1E1F1E1F00000000B204DE032B0493
:102FC000FF045C043A044E0400000000F106C4064D
:102FD0002007A1064405B106A2060D0A00250052ED
:102FE00074634E6F74466F756E64006C6F67005249
:102FF00074635772697465496E697469616C546968
:103000006D65002152746343686970507265736521
:103010006E7400527463466F756E640054696D651A
:103020004C69625374617475734572726F720054A7
:10303000696D654C69625374617475734F6B0031CF
:103040002E302E300076657273696F6E0062746E7A
:10305000004D0041004F004C3233303231324600D7
:103060000D003A006374005F6C6F675F74696D6593
:083070006E6F747365745F005C
:020000040003F7
:10E000000D9489F10D94B2F10D94B2F10D94B2F129
:10E010000D94B2F10D94B2F10D94B2F10D94B2F1F0
:10E020000D94B2F10D94B2F10D94B2F10D94B2F1E0
:10E030000D94B2F10D94B2F10D94B2F10D94B2F1D0
:10E040000D94B2F10D94B2F10D94B2F10D94B2F1C0
:10E050000D94B2F10D94B2F10D94B2F10D94B2F1B0
:10E060000D94B2F10D94B2F10D94B2F10D94B2F1A0
:10E070000D94B2F10D94B2F10D94B2F10D94B2F190
:10E080000D94B2F10D94B2F10D94B2F10D94B2F180
:10E090000D94B2F10D94B2F10D94B2F10D94B2F170
:10E0A0000D94B2F10D94B2F10D94B2F10D94B2F160
:10E0B0000D94B2F10D94B2F10D94B2F10D94B2F150
:10E0C0000D94B2F10D94B2F10D94B2F10D94B2F140
:10E0D0000D94B2F10D94B2F10D94B2F10D94B2F130
:10E0E0000D94B2F141546D656761323536300041AF
:10E0F000726475696E6F206578706C6F72657220DE
:10E1000073746B3530305632206279204D4C530099
:10E11000426F6F746C6F616465723E004875683F52
:10E1200000436F6D70696C6564206F6E203D200048
:10E130004350552054797065202020203D20005FF9
:10E140005F4156525F415243485F5F3D2000415658
:10E1500052204C696243205665723D20004743437C
:10E160002056657273696F6E203D20004350552024
:10E1700049442020202020203D20004C6F7720663D
:10E18000757365202020203D20004869676820665F
:10E190007573652020203D200045787420667573D6
:10E1A00065202020203D20004C6F636B2066757336
:10E1B000652020203D20004D617220203720323024
:10E1C000313300312E362E3800342E332E350056A2
:10E1D00023202020414444522020206F7020636F70
:10E1E00064652020202020696E73747275637469E1
:10E1F0006F6E2061646472202020496E74657272B3
:10E20000757074006E6F20766563746F7200726A49
:10E210006D702020006A6D70200057686174207056
:10E220006F72743A00506F7274206E6F7420737541
:10E2300070706F72746564004D7573742062652030
:10E2400061206C6574746572002000577269747483
:10E25000696E672045450052656164696E672045B7
:10E26000450045452065727220636E743D00504F35
:10E27000525400303D5A65726F2061646472003FF1
:10E280003D43505520737461747300403D454550C3
:10E29000524F4D207465737400423D426C696E6B41
:10E2A000204C454400453D44756D70204545505215
:10E2B0004F4D00463D44756D7020464C415348001B
:10E2C000483D48656C70004C3D4C69737420492F83
:10E2D0004F20506F72747300513D51756974005234
:10E2E0003D44756D702052414D00563D73686F7707
:10E2F00020696E7465727275707420566563746FF0
:10E30000727300593D506F727420626C696E6B00BD
:10E310002A0011241FBECFEFD1E2DEBFCDBF01E046
:10E320000CBF12E0A0E0B2E0EEE1FDEF03E00BBFB6
:10E3300002C007900D92A030B107D9F712E0A0E01B
:10E34000B2E001C01D92AE30B107E1F70F9460F367
:10E350000D948DFE01E20EBF0FEF0DBF11241FBE05
:10E360000D9460F30D9400F020E030E040ED57E0B4
:10E3700005C0FA013197F1F72F5F3F4F2817390792
:10E38000C0F308959C01260F311DC901A0E0B0E043
:10E390002F5F3F4FABBFFC018791882361F08093D3
:10E3A000C6008091C00086FFFCCF8091C0008064D1
:10E3B0008093C000EACF08958DE08093C6008091DD
:10E3C000C00086FFFCCF8091C00080648093C000B5
:10E3D0008AE08093C6008091C00086FFFCCF8091C8
:10E3E000C00080648093C00008950F94C2F10F9420
:10E3F000DCF10895FC019081992359F09093C600B7
:10E400008091C00086FFFCCF8091C0008064809323
:10E41000C0003196992379F70895282F982F929567
:10E420009F70892F805D8A3308F0895F8093C600D2
:10E430008091C00086FFFCCF8091C00080648093F3
:10E44000C000822F8F70982F905D9A3308F0995FEB
:10E450009093C6008091C00086FFFCCF8091C000E1
:10E4600080648093C00008959C01FB01853691056E
:10E470001CF46330710594F0C90164E670E00F94F8
:10E480002EFE605D7F4F6093C6008091C00086FFC6
:10E49000FCCF8091C00080648093C0002B30310598
:10E4A00014F43297B4F0C90164E670E00F942EFEC4
:10E4B0006AE070E00F942EFE605D7F4F6093C600AF
:10E4C0008091C00086FFFCCF8091C0008064809363
:10E4D000C000C9016AE070E00F942EFEC0968093E0
:10E4E000C6008091C00086FFFCCF8091C000806490
:10E4F0008093C00008951F93182F8EE692EE60E07F
:10E500000F94C2F11093C6008091C00086FFFCCF2B
:10E510008091C00080648093C0000F94DCF11F9153
:10E5200008952F923F924F925F926F927F928F92B7
:10E530009F92AF92BF92CF92DF92EF92FF920F9392
:10E540001F93DF93CF93CDB7DEB762970FB6F894E2
:10E55000DEBF0FBECDBF382E622ECA01DB015C01CB
:10E560006D01772420E2222E2E010894411C511CBB
:10E570008BC081E0A81680E0B80681E0C80680E084
:10E58000D80628F0C601AA27BB270F940DF2BB2797
:10E59000AD2D9C2D8B2D0F940DF28A2D0F940DF225
:10E5A0002092C6008091C00086FFFCCF8091C00001
:10E5B00080648093C0009DE29093C6008091C0006B
:10E5C00086FFFCCF8091C00080648093C0002092C1
:10E5D000C6008091C00086FFFCCF8091C00080649F
:10E5E0008093C00019828601750188249924A1E0D6
:10E5F0003A1651F03A1620F0B2E03B1661F409C029
:10E600000BBFF701779007C0C7010F9477FE782EF4
:10E6100002C0F7017080872D0F940DF22092C60082
:10E620008091C00086FFFCCF8091C0008064809301
:10E63000C000872D8052F401EF70F0708F3520F408
:10E64000E40DF51D708204C0E40DF51D8EE280839B
:10E650000894E11CF11C011D111D0894811C911CE2
:10E6600090E18916910409F0C2CF80E190E0A0E02A
:10E67000B0E0A80EB91ECA1EDB1E198AC2010F9493
:10E68000FAF10F94DCF16A94662009F072CF629679
:10E690000FB6F894DEBF0FBECDBFCF91DF911F91B3
:10E6A0000F91FF90EF90DF90CF90BF90AF909F9031
:10E6B0008F907F906F905F904F903F902F90089534
:10E6C0002F923F924F925F926F927F928F929F9282
:10E6D000AF92BF92CF92DF92EF92FF920F931F9370
:10E6E000DF93CF93CDB7DEB7CD53D1400FB6F894BB
:10E6F000DEBF0FBECDBF01E20EBF0FEF0DBF94B75F
:10E70000F894A89514BE80916000886180936000A1
:10E7100010926000789493FF05C0E0910002F091A0
:10E7200001021995279A2F9A8091C00082608093E8
:10E73000C00080E18093C40088E18093C1000000A4
:10E74000EE24FF24870144E0A42EB12CCC24DD2448
:10E7500024C0C5010197F1F70894E11CF11C011DCB
:10E76000111D21E2E2162EE4F20620E0020720E06D
:10E77000120718F031E0C32ED12CC801B70127ECE5
:10E780003BE140E050E00F9441FE611571058105C9
:10E79000910519F485B1805885B98091C00087FD35
:10E7A00003C0C114D104A9F2A6014F5F5F4FC25E3E
:10E7B000DE4F59834883CE51D140C25EDE4F8881FF
:10E7C0009981CE51D140019711F00D9410FEC05D9A
:10E7D000DE4F19821882C053D14060E0C15DDE4F28
:10E7E0001882CF52D14088249924C35DDE4F19820C
:10E7F0001882CD52D140C05EDE4F188219821A8233
:10E800001B82C052D140CE5CDE4F188219821A8220
:10E810001B82C253D140EE24FF2487010BBFF701B6
:10E8200007911691C45CDE4F19830883CC53D14005
:10E830000D940BFEC25EDE4F28813981CE51D1404E
:10E840002130310509F52091C600C25EDE4F1982E4
:10E850001882CE51D14022C02F5F3F4F4F4F5F4FA4
:10E86000213082E138078AE7480780E0580780F0C6
:10E87000C45CDE4FE881F981CC53D140EF5FFF4F9C
:10E8800019F0EE27FF27099420E030E040E050E047
:10E890008091C00087FFE0CF2091C600C35DDE4FAE
:10E8A00048815981CD52D1404F5F5F4FC35DDE4FEC
:10E8B00059834883CD52D140213209F063C64A3092
:10E8C000510508F05FC60894811C911C53E0851621
:10E8D000910409F059C600E010E018C081E280936D
:10E8E000C6008091C00086FFFCCF8091C00080648C
:10E8F0008093C0002F5F3F4F2931310579F70F9486
:10E90000DCF10F5F1F4F0530110519F020E030E0FA
:10E91000E5CF10920A0210920B0210920C02109294
:10E920000D02109206021092070210920802109235
:10E930000902109202021092030210920402109235
:10E9400005028FEE90EE60E00F94F5F180E191EE1C
:10E9500060E00F94C2F18091C00087FFFCCF9091DE
:10E96000C600903608F09F759032B8F09093C600BC
:10E970008091C00086FFFCCF8091C00080648093AE
:10E98000C000A0E2A093C6008091C00086FFFCCF2B
:10E990008091C00080648093C000983409F4D7C18E
:10E9A0009934B8F4923409F459C1933458F490333B
:10E9B00019F1903308F4E3C59F33A1F1903409F0C5
:10E9C000DEC5BDC0953409F470C1963409F0D7C5D1
:10E9D00098C1923509F42BC2933538F49C3409F46C
:10E9E000F5C1913509F0CBC518C2963509F445C279
:10E9F000993509F0C4C567C483E792EE62E00F94CD
:10EA0000F5F110920602109207021092080210927D
:10EA1000090210920A0210920B0210920C0210923C
:10EA20000D0213C18FE792EE62E00F94F5F18FEEC5
:10EA300090EE60E00F94F5F181E291EE60E00F94CA
:10EA4000C2F187EB91EE60E00F94F5F180E391EE77
:10EA500060E00F94C2F184EE90EE60E00F94F5F167
:10EA60008FE391EE60E00F94C2F186E090E061E008
:10EA700070E00F9434F20F94DCF18DE591EE60E0DC
:10EA80000F94C2F189EC91EE60E00F94F5F18EE401
:10EA900091EE60E00F94C2F183EC91EE60E00F9490
:10EAA000F5F18CE691EE60E00F94C2F18EE10F94E7
:10EAB0000DF288E90F940DF281E00F940DF20F949E
:10EAC000DCF18BE791EE60E00F94C2F119E0E0E039
:10EAD000F0E010935700E4918E2F0F940DF20F94F5
:10EAE000DCF18AE891EE60E00F94C2F1E3E0F0E03F
:10EAF00010935700E4918E2F0F940DF20F94DCF1D8
:10EB000089E991EE60E00F94C2F1E2E0F0E0109349
:10EB10005700E4918E2F0F940DF20F94DCF188EAE8
:10EB200091EE60E00F94C2F1E1E0F0E01093570045
:10EB30001491812F0F940DF20F94DCF107CF8BE825
:10EB400092EE62E00F94F5F18BE492EE60E00F94A8
:10EB5000F5F10F94DCF100E010E019C0C8016F2D51
:10EB60000F947FFEFF2031F489E492EE60E00F9471
:10EB7000C2F10BC0F092C6008091C00086FFFCCFAE
:10EB80008091C00080648093C0000F5F1F4FC80158
:10EB900081519F41A0E0B0E0ABBFFC01F790BAE229
:10EBA000FB1621F0E2E000301E07C1F60F94DCF105
:10EBB0000F94DCF187E592EE60E00F94F5F10F948D
:10EBC000DCF1CC24DD2400E010E01EC0C8010F946D
:10EBD00077FEF82E882331F489E492EE60E00F94FA
:10EBE000C2F10BC08093C6008091C00086FFFCCFAD
:10EBF0008091C00080648093C000FE1419F00894D6
:10EC0000C11CD11C0F5F1F4FC80181519F41A0E063
:10EC1000B0E0ABBFFC01E790FAE2EF1621F022E092
:10EC20000030120799F60F94DCF10F94DCF182E6C4
:10EC300092EE60E00F94C2F1C60161E070E00F94C3
:10EC400034F20F94DCF10F94DCF110920202109276
:10EC50000302109204021092050278CE89E992EE26
:10EC600062E00F94F5F1279A2F9A16C02F9880E052
:10EC700090E0E0EDF7E03197F1F7019684369105E9
:10EC8000C1F72F9A80E090E0E0EDF7E03197F1F7DF
:10EC9000019684369105C1F78091C00087FFE6CFC9
:10ECA0008091C00087FFFCCF64C485EA92EE62E0E9
:10ECB0000F94F5F140910202509103026091040219
:10ECC0007091050281E020E10F9491F2809102029F
:10ECD00090910302A0910402B091050280509F4FD1
:10ECE000AF4FBF4F8093020290930302A0930402A0
:10ECF000B093050280509041A040B04008F426CE69
:10ED0000A4CF83EB92EE62E00F94F5F140910602FE
:10ED100050910702609108027091090280E020E1A1
:10ED20000F9491F28091060290910702A09108023F
:10ED3000B091090280509F4FAF4FBF4F80930602A2
:10ED400090930702A0930802B0930902FFCD80ECD4
:10ED500092EE62E00F94F5F183E792EE60E00F949B
:10ED6000F5F18FE792EE60E00F94F5F18BE892EE0B
:10ED700060E00F94F5F189E992EE60E00F94F5F10F
:10ED800085EA92EE60E00F94F5F183EB92EE60E09D
:10ED90000F94F5F180EC92EE60E00F94F5F187ECC2
:10EDA00092EE60E00F94F5F188ED92EE60E00F9442
:10EDB000F5F18FED92EE60E00F94F5F18AEE92EEB0
:10EDC00060E00F94F5F183E093EEBDCD87EC92EE19
:10EDD00062E00F94F5F181E40F947BF282E40F94EA
:10EDE0007BF283E40F947BF284E40F947BF285E45E
:10EDF0000F947BF286E40F947BF287E40F947BF20E
:10EE000088E40F947BF28AE40F947BF28BE40F94F6
:10EE10007BF28CE40F947BF299CD88ED92EE62E068
:10EE20000F94F5F1772473948824992409C48FED05
:10EE300092EE62E00F94F5F140910A0250910B02BC
:10EE400060910C0270910D0282E020E10F9491F22A
:10EE500080910A0290910B02A0910C02B0910D02D8
:10EE600080509F4FAF4FBF4F80930A0290930B0289
:10EE7000A0930C02B0930D0269CD8AEE92EE62E08F
:10EE80000F94F5F184EE90EE60E00F94F5F18FECC5
:10EE900091EE60E00F94F5F1662477244301CC5D98
:10EEA000DE4F19821882C452D140D401C301B695F5
:10EEB000A79597958795CA5DDE4F88839983AA8326
:10EEC000BB83C652D140CC5DDE4FA881B981C4520C
:10EED000D1401196CC5DDE4FB983A883C452D14096
:10EEE000CD0162E070E00F9434F2B0E2B093C6005E
:10EEF0008091C00086FFFCCF8091C0008064809329
:10EF0000C000EDE2E093C6008091C00086FFFCCF18
:10EF10008091C00080648093C000F0E2F093C6004E
:10EF20008091C00086FFFCCF8091C00080648093F8
:10EF3000C000CA5DDE4FE880F9800A811B81C6529D
:10EF4000D140BB27A12F902F8F2D0F940DF2CA5DBA
:10EF5000DE4F8881C652D1400F940DF2B0E2FB2EF5
:10EF6000F092C6008091C00086FFFCCF8091C00067
:10EF700080648093C0000DE30093C6008091C000C0
:10EF800086FFFCCF8091C00080648093C00010E2B7
:10EF90001093C6008091C00086FFFCCF8091C00016
:10EFA00080648093C0008BBEF3012791C65DDE4F65
:10EFB0002883CA52D140A22EBB24CC24DD2408943D
:10EFC000611C711C811C911C8BBEF3018791282E42
:10EFD0003324442455240894611C711C811C911C09
:10EFE0008BBEF3013791C55DDE4F3883CB52D140E4
:10EFF0000894611C711C811C911C8BBEF30147910C
:10F00000C45DDE4F4883CC52D140ADEFEA2EAFEF66
:10F01000FA2EAFEF0A2FAFEF1A2F6E0C7F1C801E57
:10F02000911E142D032DF22CEE24EA0CFB1C0C1D5A
:10F030001D1D0F940DF220E22093C6008091C000A8
:10F0400086FFFCCF8091C00080648093C000C65DC5
:10F05000DE4F8881CA52D1400F940DF230E23093D6
:10F06000C6008091C00086FFFCCF8091C000806404
:10F070008093C000C45DDE4F8881CC52D1400F9494
:10F080000DF240E24093C6008091C00086FFFCCFA5
:10F090008091C00080648093C000C55DDE4F888190
:10F0A000CB52D1400F940DF250E25093C6008091A4
:10F0B000C00086FFFCCF8091C00080648093C000B8
:10F0C0008FEFE8168FEFF80680E0080780E018075A
:10F0D00031F484E092EE60E00F94C2F1DFC0D80119
:10F0E000C7018070907CA070B0708050904CA040A0
:10F0F000B040D1F52FEF3FE340E050E0E222F322B1
:10F1000004231523CA5DDE4FA880B980CA80DB8046
:10F11000C652D140AE0CBF1CC01ED11EAA0CBB1CD7
:10F12000CC1CDD1C8EE092EE60E00F94C2F1BB2798
:10F13000A12F902F8F2D0F940DF28E2D0F940DF285
:10F1400030E23093C6008091C00086FFFCCF8091F2
:10F15000C00080648093C0004EE34093C60080915D
:10F16000C00086FFFCCF87C08EE09EEFA0E0B0E03D
:10F17000E822F9220A231B239CE0E91694E9F90608
:10F1800090E0090790E0190709F088C0C45DDE4FE0
:10F19000A881CC52D140EA2EFF2400E010E0102FCD
:10F1A0000F2DFE2CEE24C55DDE4FB881CB52D14031
:10F1B000EB0EF11C011D111DD601C501817090706F
:10F1C000A070B070DC0199278827E80EF91E0A1F8D
:10F1D0001B1F20EF30E040E050E0A222B322C42207
:10F1E000D52241E1AA0CBB1CCC1CDD1C4A95D1F7F1
:10F1F000EA0CFB1C0C1D1D1D81E090E0A0E0B0E0BE
:10F20000282239224A225B2235E1220C331C441C7D
:10F21000551C3A95D1F7E20CF31C041D151D57013E
:10F220006801AA0CBB1CCC1CDD1C85E192EE60E0E1
:10F230000F94C2F1C801AA27BB270F940DF2BB2778
:10F24000A12F902F8F2D0F940DF28E2D0F940DF274
:10F2500090E29093C6008091C00086FFFCCF809121
:10F26000C00080648093C000AEE3A093C60080918C
:10F27000C00086FFFCCF8091C00080648093C000F6
:10F28000C601AA27BB270F940DF2BB27AD2D9C2DDD
:10F290008B2D0F940DF28A2D0F940DF20F94DCF14B
:10F2A000CC5DDE4FE881F981C452D140F99709F471
:10F2B0004DCBF4E0EF2EF12C012D112D6E0C7F1CA7
:10F2C000801E911EF2CD83E093EE62E00F94F5F183
:10F2D0008AE192EE60E00F94C2F18091C00087FF56
:10F2E000FCCF1091C6001F751093C6008091C0001E
:10F2F00086FFFCCF8091C00080648093C0000F9493
:10F30000DCF1812F81548A3108F036C1163409F4BA
:10F3100095C0173490F4133409F44EC0143430F40B
:10F320001134F1F0123409F01DC130C0143409F465
:10F3300059C0153409F016C16BC01A3409F4C4C0A1
:10F340001B3438F4173409F48FC0183409F00AC19B
:10F35000A1C01B3409F4D2C01C3409F003C1E8C0B9
:10F360008FEF81B90DC082B1809582B980E090E0C5
:10F37000E0EDF7E03197F1F70196883C9105C1F790
:10F380008091C00087FFEFCF12B8EFC08FEF84B934
:10F390000DC085B1809585B980E090E0E0EDF7E0A3
:10F3A0003197F1F70196883C9105C1F78091C00033
:10F3B00087FFEFCF15B8D9C08FEF87B90DC088B1DF
:10F3C000809588B980E090E0E0EDF7E03197F1F7C3
:10F3D0000196883C9105C1F78091C00087FFEFCF6F
:10F3E00018B8C3C08FEF8AB90DC08BB180958BB9A7
:10F3F00080E090E0E0EDF7E03197F1F70196883C8E
:10F400009105C1F78091C00087FFEFCF1BB8ADC059
:10F410008FEF8DB90DC08EB180958EB980E090E0F0
:10F42000E0EDF7E03197F1F70196883C9105C1F7DF
:10F430008091C00087FFEFCF1EB897C08FEF80BBD1
:10F440000DC081B3809581BB80E090E0E0EDF7E0F6
:10F450003197F1F70196883C9105C1F78091C00082
:10F4600087FFEFCF11BA81C08FEF83BB0DC084B38C
:10F47000809584BB80E090E0E0EDF7E03197F1F714
:10F480000196883C9105C1F78091C00087FFEFCFBE
:10F4900014BA6BC08FEF809301010FC080910201FD
:10F4A00080958093020180E090E0E0EDF7E03197F5
:10F4B000F1F70196883C9105C1F78091C00087FF64
:10F4C000EDCF1092020151C08FEF809304010FC065
:10F4D0008091050180958093050180E090E0E0ED4A
:10F4E000F7E03197F1F70196883C9105C1F78091DB
:10F4F000C00087FFEDCF1092050137C08FEF8093DA
:10F5000007010FC08091080180958093080180E079
:10F5100090E0E0EDF7E03197F1F70196883C910536
:10F52000C1F78091C00087FFEDCF109208011DC088
:10F530008FEF80930A010FC080910B01809580931B
:10F540000B0180E090E0E0EDF7E03197F1F70196F4
:10F55000883C9105C1F78091C00087FFEDCF1092E4
:10F560000B0103C085E292EEEEC98091C00087FFD7
:10F57000FCCF8091C600EAC988E392EEE4C98CE131
:10F5800091EEE1C988249924933011F1943028F444
:10F59000913089F09230B8F408C0953061F195301F
:10F5A000F0F0963009F048C043C02B3109F042C951
:10F5B00091E06BE13FC96227C15DDE4F2883CF52E6
:10F5C000D14092E037C9B22FA0E0622793E032C960
:10F5D000822F90E0A82BB92B622794E02BC92E3004
:10F5E00009F039C3622795E0C05DDE4F19821882A9
:10F5F000C053D1401FC9E1E0F0E0EC0FFD1FC05D3A
:10F60000DE4F08811981C053D140E00FF11F2083E4
:10F610000F5F1F4FC05DDE4F19830883C053D14079
:10F6200062270A171B0709F005C9D80196E002C92D
:10F63000261709F010C303C0973009F0FBC87724E0
:10F640009981933109F412C19431C8F4963009F4C8
:10F65000D8C0973050F4923009F406C1933009F4C1
:10F660006DC0913009F059C253C0913109F477C08F
:10F67000923108F0BBC0903109F04FC2F5C098310B
:10F6800009F487C0993150F4953109F4EFC09531F0
:10F6900008F4C6C1963109F040C2C2C19A3109F4DA
:10F6A0006CC09A3108F491C09B3109F45BC09D3164
:10F6B00009F033C29D81903359F48F81882311F46E
:10F6C0009EE11CC0813011F091E018C098E916C08D
:10F6D000892F807591F0903539F4E0E0F0E089E011
:10F6E0008093570094910AC0983539F4E3E0F0E034
:10F6F00089E080935700949101C090E01A821B82A8
:10F700008D818C831D829E831F8227E030E009C299
:10F710001A8288E08B8381E48C8386E58D8382E581
:10F720008E8389E48F8383E5888780E589878FE5E9
:10F730008A8782E38B872BE030E0F3C18A818139AD
:10F7400041F0823941F0803911F48FE005C080E04A
:10F7500003C082E001C08AE01A828B8344C0772410
:10F76000739482C08D81882311F48EE12CC0813086
:10F7700011F081E028C088E926C01A82E1E0F0E0BB
:10F7800089E08093570084918B831C8224E030E0D1
:10F79000C8C18B81803589F48C81883039F4E2E0EE
:10F7A000F0E089E08093570084910DC0E0E0F0E044
:10F7B00089E080935700849106C0E3E0F0E089E09F
:10F7C0008093570084911A82DFCF8D81836C99E0FA
:10F7D000E1E0F0E0082E90935700E89507B600FCB2
:10F7E000FDCF1A821B8223E030E09BC180EC8A832C
:10F7F000CE5CDE4F188219821A821B82C253D1401E
:10F800008EC18A8190E0A0E0B0E0582F44273327D2
:10F8100022278B8190E0A0E0B0E0DC0199278827C7
:10F82000282B392B4A2B5B2B8D8190E0A0E0B0E098
:10F83000282B392B4A2B5B2B8C8190E0A0E0B0E089
:10F84000BA2FA92F982F8827282B392B4A2B5B2BCF
:10F85000220F331F441F551FC05EDE4F288339839C
:10F860004A835B83C052D1401A8259C13A81C95C34
:10F87000DE4F3883C753D140CA5CDE4F1882C6536F
:10F88000D1408B81C82EDD24CA5CDE4F488159816E
:10F89000C653D140C42AD52A933109F082C0CE5C28
:10F8A000DE4F88819981AA81BB81C253D1408050AB
:10F8B000904CA340B04030F583E0CE5CDE4FE88052
:10F8C000F9800A811B81C253D140F70100935B008C
:10F8D00080935700E89507B600FCFDCFCE5CDE4F65
:10F8E000088119812A813B81C253D14000501F4FAA
:10F8F0002F4F3F4FCE5CDE4F088319832A833B8313
:10F90000C253D140C05EDE4F488159816A817B81FC
:10F91000C052D140DE011B9631E08C9111962C91A2
:10F9200011971296C75CDE4F2883C953D140C85C3B
:10F93000DE4F1882C853D14090E0C85CDE4FE881AA
:10F94000F981C853D1408E2B9F2B0C01FA01609393
:10F950005B0030935700E89511244E5F5F4F6F4F67
:10F960007F4F0EEFE02E0FEFF02ECE0CDF1CC114F8
:10F97000D10499F685E0C05EDE4F088119812A81A5
:10F980003B81C052D140F80120935B008093570027
:10F99000E89507B600FCFDCF81E180935700E8951C
:10F9A00035C0C05EDE4F88819981AA81BB81C0527B
:10F9B000D140B695A795979587957C018601ABE0D8
:10F9C000AA2EB12CAC0EBD1E0BC0D5016D915D01F0
:10F9D000C7010F947FFE0894E11CF11C01501040F8
:10F9E0000115110591F7A60160E070E0440F551F65
:10F9F000661F771FC05EDE4FE880F9800A811B8199
:10FA0000C052D1404E0D5F1D601F711F1A82C05E33
:10FA1000DE4F488359836A837B83C052D1407FC0C5
:10FA2000FA80C55CDE4FF882CB53D140C65CDE4F16
:10FA30001882CA53D1408B81C82EDD24C65CDE4FAC
:10FA400008811981CA53D140C02AD12A1A828981DA
:10FA5000BE016D5F7F4F843121F59601C05EDE4FA0
:10FA6000E880F9800A811B81C052D1400BBFF701A9
:10FA700087919691DB018C9311969C936E5F7F4FDB
:10FA8000D801C7010296A11DB11DC05EDE4F88835B
:10FA90009983AA83BB83C052D14022503040F1F6F3
:10FAA00036C0C05EDE4F288139814A815B81C052F9
:10FAB000D1400894C108D108760100E010E0089414
:10FAC000C11CD11C0894E11CF11C011D111DE20E8A
:10FAD000F31E041F151F21BDBB27A52F942F832FB5
:10FAE00082BD2F5F3F4F4F4F5F4FF89A80B5DB01CC
:10FAF0008D93BD012E153F054007510761F7C05E8C
:10FB0000DE4F288339834A835B83C052D1409601FC
:10FB10002D5F3F4FFB01108204C080EC8A8322E0FE
:10FB200030E08BE18093C6008091C00086FFFCCF5F
:10FB30008091C00080648093C000C15DDE4FF88179
:10FB4000CF52D140F093C6008091C00086FFFCCF19
:10FB50008091C00080648093C000432F3093C60022
:10FB60008091C00086FFFCCF8091C00080648093AC
:10FB7000C000922F2093C6008091C00086FFFCCF6A
:10FB80008091C00080648093C0008EE08093C600A6
:10FB90008091C00086FFFCCF8091C000806480937C
:10FBA000C00065E1C15DDE4FE880CF52D1406E25D7
:10FBB00069276427FE01319610C090819093C6009A
:10FBC0008091C00086FFFCCF31968091C000806498
:10FBD0008093C0006927215030402115310569F715
:10FBE0006093C6008091C00086FFFCCF8091C0006A
:10FBF00080648093C00085B1805885B9772081F4F6
:10FC0000C15DDE4F0881CF52D1400F5FC15DDE4F35
:10FC10000883CF52D14090E0A0E0B0E00D941AF4F8
:10FC200027982F9880E090E020ED37E0F901319798
:10FC3000F1F7019684369105C9F700008091C00064
:10FC40008D7F8093C00081E180935700E895EE2777
:10FC5000FF270994FFCF90E00D941AF497FB092E2B
:10FC600007260AD077FD04D02ED006D000201AF443
:10FC7000709561957F4F0895F6F7909581959F4F08
:10FC80000895A1E21A2EAA1BBB1BFD010DC0AA1FDD
:10FC9000BB1FEE1FFF1FA217B307E407F50720F0F5
:10FCA000A21BB30BE40BF50B661F771F881F991F70
:10FCB0001A9469F760957095809590959B01AC01B9
:10FCC000BD01CF010895AA1BBB1B51E107C0AA1FAC
:10FCD000BB1FA617B70710F0A61BB70B881F991FED
:10FCE0005A95A9F780959095BC01CD010895F99991
:10FCF000FECF92BD81BDF89A992780B50895262F31
:10FD0000F999FECF1FBA92BD81BD20BD0FB6F89400
:0EFD1000FA9AF99A0FBE01960895F894FFCF63
:00000001FF
